{"abi":[{"type":"constructor","inputs":[{"name":"_futuresImpl","type":"address","internalType":"address"},{"name":"_powerFuturesImpl","type":"address","internalType":"address"},{"name":"_sigmoidFuturesImpl","type":"address","internalType":"address"}],"stateMutability":"nonpayable"},{"type":"function","name":"createAndFundLinearFuture","inputs":[{"name":"_underlyingToken","type":"address","internalType":"address"},{"name":"_strikeToken","type":"address","internalType":"address"},{"name":"_underlyingSymbol","type":"string","internalType":"string"},{"name":"_strikeSymbol","type":"string","internalType":"string"},{"name":"_positionSize","type":"uint256","internalType":"uint256"},{"name":"_premiumMustBe0","type":"uint256","internalType":"uint256"},{"name":"_oracle","type":"address","internalType":"address"},{"name":"_strikeNotional","type":"uint256","internalType":"uint256"},{"name":"_makerIsLong","type":"bool","internalType":"bool"},{"name":"_expirySeconds","type":"uint256","internalType":"uint256"}],"outputs":[{"name":"clone","type":"address","internalType":"address"}],"stateMutability":"nonpayable"},{"type":"function","name":"createAndFundPowerFuture","inputs":[{"name":"_underlyingToken","type":"address","internalType":"address"},{"name":"_strikeToken","type":"address","internalType":"address"},{"name":"_underlyingSymbol","type":"string","internalType":"string"},{"name":"_strikeSymbol","type":"string","internalType":"string"},{"name":"_positionSize","type":"uint256","internalType":"uint256"},{"name":"_premiumMustBe0","type":"uint256","internalType":"uint256"},{"name":"_oracle","type":"address","internalType":"address"},{"name":"_strikeNotional","type":"uint256","internalType":"uint256"},{"name":"_makerIsLong","type":"bool","internalType":"bool"},{"name":"_expirySeconds","type":"uint256","internalType":"uint256"},{"name":"_power","type":"uint8","internalType":"uint8"}],"outputs":[{"name":"clone","type":"address","internalType":"address"}],"stateMutability":"nonpayable"},{"type":"function","name":"createAndFundSigmoidFuture","inputs":[{"name":"_underlyingToken","type":"address","internalType":"address"},{"name":"_strikeToken","type":"address","internalType":"address"},{"name":"_underlyingSymbol","type":"string","internalType":"string"},{"name":"_strikeSymbol","type":"string","internalType":"string"},{"name":"_positionSize","type":"uint256","internalType":"uint256"},{"name":"_premiumMustBe0","type":"uint256","internalType":"uint256"},{"name":"_oracle","type":"address","internalType":"address"},{"name":"_strikeNotional","type":"uint256","internalType":"uint256"},{"name":"_makerIsLong","type":"bool","internalType":"bool"},{"name":"_expirySeconds","type":"uint256","internalType":"uint256"},{"name":"_intensity1e18","type":"uint256","internalType":"uint256"}],"outputs":[{"name":"clone","type":"address","internalType":"address"}],"stateMutability":"nonpayable"},{"type":"function","name":"enterAndPayPremium","inputs":[{"name":"futureAddress","type":"address","internalType":"address"},{"name":"premiumAmount","type":"uint256","internalType":"uint256"}],"outputs":[],"stateMutability":"nonpayable"},{"type":"function","name":"futuresContracts","inputs":[{"name":"","type":"uint256","internalType":"uint256"}],"outputs":[{"name":"","type":"address","internalType":"address"}],"stateMutability":"view"},{"type":"function","name":"futuresImpl","inputs":[],"outputs":[{"name":"","type":"address","internalType":"address"}],"stateMutability":"view"},{"type":"function","name":"futuresMetadata","inputs":[{"name":"","type":"address","internalType":"address"}],"outputs":[{"name":"futureAddress","type":"address","internalType":"address"},{"name":"underlyingToken","type":"address","internalType":"address"},{"name":"strikeToken","type":"address","internalType":"address"},{"name":"underlyingSymbol","type":"string","internalType":"string"},{"name":"strikeSymbol","type":"string","internalType":"string"},{"name":"strikePrice","type":"uint256","internalType":"uint256"},{"name":"positionSize","type":"uint256","internalType":"uint256"},{"name":"premium","type":"uint256","internalType":"uint256"},{"name":"expiry","type":"uint256","internalType":"uint256"},{"name":"priceAtExpiry","type":"uint256","internalType":"uint256"},{"name":"exercisedAmount","type":"uint256","internalType":"uint256"},{"name":"isExercised","type":"bool","internalType":"bool"},{"name":"isResolved","type":"bool","internalType":"bool"},{"name":"long","type":"address","internalType":"address"},{"name":"short","type":"address","internalType":"address"},{"name":"payoffType","type":"string","internalType":"string"},{"name":"payoffPower","type":"uint8","internalType":"uint8"}],"stateMutability":"view"},{"type":"function","name":"getAllFutures","inputs":[],"outputs":[{"name":"","type":"address[]","internalType":"address[]"}],"stateMutability":"view"},{"type":"function","name":"getFuturesMeta","inputs":[{"name":"futureAddress","type":"address","internalType":"address"}],"outputs":[{"name":"","type":"tuple","internalType":"struct FuturesBook.FuturesMeta","components":[{"name":"futureAddress","type":"address","internalType":"address"},{"name":"underlyingToken","type":"address","internalType":"address"},{"name":"strikeToken","type":"address","internalType":"address"},{"name":"underlyingSymbol","type":"string","internalType":"string"},{"name":"strikeSymbol","type":"string","internalType":"string"},{"name":"strikePrice","type":"uint256","internalType":"uint256"},{"name":"positionSize","type":"uint256","internalType":"uint256"},{"name":"premium","type":"uint256","internalType":"uint256"},{"name":"expiry","type":"uint256","internalType":"uint256"},{"name":"priceAtExpiry","type":"uint256","internalType":"uint256"},{"name":"exercisedAmount","type":"uint256","internalType":"uint256"},{"name":"isExercised","type":"bool","internalType":"bool"},{"name":"isResolved","type":"bool","internalType":"bool"},{"name":"long","type":"address","internalType":"address"},{"name":"short","type":"address","internalType":"address"},{"name":"payoffType","type":"string","internalType":"string"},{"name":"payoffPower","type":"uint8","internalType":"uint8"}]}],"stateMutability":"view"},{"type":"function","name":"isKnownClone","inputs":[{"name":"","type":"address","internalType":"address"}],"outputs":[{"name":"","type":"bool","internalType":"bool"}],"stateMutability":"view"},{"type":"function","name":"longPosition","inputs":[{"name":"","type":"address","internalType":"address"}],"outputs":[{"name":"","type":"address","internalType":"address"}],"stateMutability":"view"},{"type":"function","name":"notifyExercised","inputs":[{"name":"strikeTokenAmount","type":"uint256","internalType":"uint256"}],"outputs":[],"stateMutability":"nonpayable"},{"type":"function","name":"powerFuturesImpl","inputs":[],"outputs":[{"name":"","type":"address","internalType":"address"}],"stateMutability":"view"},{"type":"function","name":"resolveAndExercise","inputs":[{"name":"futureAddress","type":"address","internalType":"address"},{"name":"","type":"uint256","internalType":"uint256"}],"outputs":[],"stateMutability":"nonpayable"},{"type":"function","name":"resolveAndReclaim","inputs":[{"name":"futureAddress","type":"address","internalType":"address"}],"outputs":[],"stateMutability":"nonpayable"},{"type":"function","name":"shortPosition","inputs":[{"name":"","type":"address","internalType":"address"}],"outputs":[{"name":"","type":"address","internalType":"address"}],"stateMutability":"view"},{"type":"function","name":"sigmoidFuturesImpl","inputs":[],"outputs":[{"name":"","type":"address","internalType":"address"}],"stateMutability":"view"},{"type":"event","name":"FutureActivated","inputs":[{"name":"instance","type":"address","indexed":true,"internalType":"address"},{"name":"long","type":"address","indexed":true,"internalType":"address"},{"name":"short","type":"address","indexed":true,"internalType":"address"},{"name":"expiry","type":"uint256","indexed":false,"internalType":"uint256"}],"anonymous":false},{"type":"event","name":"FutureExercised","inputs":[{"name":"instance","type":"address","indexed":true,"internalType":"address"},{"name":"strikeTokenAmount","type":"uint256","indexed":false,"internalType":"uint256"}],"anonymous":false},{"type":"event","name":"LinearFuturesCreated","inputs":[{"name":"creator","type":"address","indexed":true,"internalType":"address"},{"name":"instance","type":"address","indexed":true,"internalType":"address"},{"name":"makerIsLong","type":"bool","indexed":false,"internalType":"bool"},{"name":"strikeNotional","type":"uint256","indexed":false,"internalType":"uint256"},{"name":"positionSize","type":"uint256","indexed":false,"internalType":"uint256"}],"anonymous":false},{"type":"event","name":"PowerFuturesCreated","inputs":[{"name":"creator","type":"address","indexed":true,"internalType":"address"},{"name":"instance","type":"address","indexed":true,"internalType":"address"},{"name":"makerIsLong","type":"bool","indexed":false,"internalType":"bool"},{"name":"strikeNotional","type":"uint256","indexed":false,"internalType":"uint256"},{"name":"positionSize","type":"uint256","indexed":false,"internalType":"uint256"},{"name":"payoffPower","type":"uint8","indexed":false,"internalType":"uint8"}],"anonymous":false},{"type":"event","name":"SigmoidFuturesCreated","inputs":[{"name":"creator","type":"address","indexed":true,"internalType":"address"},{"name":"instance","type":"address","indexed":true,"internalType":"address"},{"name":"makerIsLong","type":"bool","indexed":false,"internalType":"bool"},{"name":"strikeNotional","type":"uint256","indexed":false,"internalType":"uint256"},{"name":"positionSize","type":"uint256","indexed":false,"internalType":"uint256"},{"name":"intensity1e18","type":"uint256","indexed":false,"internalType":"uint256"}],"anonymous":false},{"type":"error","name":"AddressEmptyCode","inputs":[{"name":"target","type":"address","internalType":"address"}]},{"type":"error","name":"AddressInsufficientBalance","inputs":[{"name":"account","type":"address","internalType":"address"}]},{"type":"error","name":"ERC1167FailedCreateClone","inputs":[]},{"type":"error","name":"FailedInnerCall","inputs":[]},{"type":"error","name":"SafeERC20FailedOperation","inputs":[{"name":"token","type":"address","internalType":"address"}]}],"bytecode":{"object":"0x608034620000a957601f6200315b38819003918201601f19168301916001600160401b03831184841017620000ad57808492606094604052833981010312620000a9576200004d81620000c1565b906200006a60406200006260208401620000c1565b9201620000c1565b60018060a01b0380928160018060a01b03199516855f5416175f5516836001541617600155169060025416176002556040516130849081620000d78239f35b5f80fd5b634e487b7160e01b5f52604160045260245ffd5b51906001600160a01b0382168203620000a95756fe60806040526004361015610011575f80fd5b5f803560e01c80631eb11b31146127bb578063226474e11461275f5780632d8fef5e14611fbc57806330cdf64114611f7d578063355ec9f91461167f57806359d02eb0146113c65780636636cc931461139f578063963b630b14610ae25780639d8700a514610983578063a58ae7e31461095a578063b231867614610931578063c151446d146108f5578063c2041ecd14610541578063cc4f87781461047b578063d3dc5819146102e8578063d4961e47146102ac5763ffd29b22146100d5575f80fd5b346102a95760403660031901126102a9576100ee61295a565b60018060a01b03808216918284526020926004845261011360ff604087205416612d0e565b8452600783526040842091600b83018054828160101c163314801561029a575b15610267579060ff8794939260081c16156101c9575b8394505460101c16826040518681019263036d6e5360e31b845282602483015260448201526044815261017b81612a15565b51925af1610187612d4b565b5015610191575080f35b6064906040519062461bcd60e51b825260048201526011602482015270195e195c98da5cd94a0a4819985a5b1959607a1b6044820152fd5b9280610201916040518881019063140870eb60e11b8252600481526101ed816129df565b519082875af16101fb612d4b565b50612d99565b8580604051878101906335ee579f60e21b825260048152610221816129df565b519082865af192610239610233612d4b565b94612dd8565b85848051810103126102635786946009878796015191015561010061ff0019825416178155610149565b5f80fd5b60405162461bcd60e51b815260048101879052600b60248201526a4e6f74206120706172747960a81b6044820152606490fd5b5082600c860154163314610133565b80fd5b50346102a95760203660031901126102a9576020906001600160a01b0390604090826102d661295a565b16815260068452205416604051908152f35b50346102a957602090816003193601126102a9576004353382526004835261031660ff604084205416612d0e565b338252600783526040822092600b84019384549460ff86166104365760017fe9dea3277db703196d00555c464a18cb5bdc1f4951036f781e3526802f5349b594959660ff19161780915584600a83015584600983015460058401541091825f1461042257600c8401546001600160a01b0316925b1561040d5760101c6001600160a01b0316915b816103b3575b505050506040519283523392a280f35b600261040494016103d360018060a01b0393849384845416903091612f16565b5416906040519263a9059cbb60e01b86850152166024830152856044830152604482526103ff82612a15565b612f6a565b5f8084816103a3565b50600c8301546001600160a01b03169161039d565b601081901c6001600160a01b03169261038a565b60405162461bcd60e51b815260048101849052601860248201527f416c7265616479206d61726b65642065786572636973656400000000000000006044820152606490fd5b50346102a957806003193601126102a95760405180916003549081835260208093018092600383527fc2575a0e9e593c00f959f8c92f12db2869c3395a3b0502d05e2516446f71f85b90835b81811061052457505050846104dd910385612a30565b60405193838594850191818652518092526040850193925b82811061050457505050500390f35b83516001600160a01b0316855286955093810193928101926001016104f5565b82546001600160a01b0316845292860192600192830192016104c7565b50346102a95760403660031901126102a95761055b61295a565b6001600160a01b038181168084526004602090815260408520546105819060ff16612d0e565b60249061058f823515612bd9565b8286526007815260408620600b810185815460101c161590600c83019187835416159080801591826108ee575b156108b857806108b0575b15610862575050805462010000600160b01b0319163360101b62010000600160b01b03161781555b888060405186810190637863146960e11b82523389820152888152610613816129fa565b5190828c5af1610621612d4b565b5015610829578880604051868101906307bfce3760e01b825260048152610647816129df565b5190828c5af1610655612d4b565b90156107f55761066e8186808b94518301019101612d7a565b16968980604051878101906338bea4cb60e01b825260048152610690816129df565b5190828d5af161069e612d4b565b90156107c0578a916106b98288808695518301019101612d7a565b169960405182888201916370c264df60e11b8352600481526106da816129df565b51925af1946106e7612d4b565b951561078b575083858051810103126102635793830151845462010000600160b01b031916601088901b62010000600160b01b0316179094557f6cacef504ebd04e5c71c88fd1310779b59d6332a644b1906c6b509b2ff3cf2e4939182906008906001600160601b0360a01b938a8582541617905501558488526005835260408820868282541617905560068352866040892091825416179055604051908152a480f35b84600f6064926040519262461bcd60e51b845260048401528201526e195e1c1a5c9e4a0a4819985a5b1959608a1b6044820152fd5b60405162461bcd60e51b815260048101879052600e818901526d1cda1bdc9d0a0a4819985a5b195960921b6044820152606490fd5b60405162461bcd60e51b815260048101869052600d818801526c1b1bdb99ca0a4819985a5b1959609a1b6044820152606490fd5b60405162461bcd60e51b81526004810185905260128187015271195b9d195c905cd31bdb99c819985a5b195960721b6044820152606490fd5b816108a8575b50156108835781546001600160a01b031916331782556105ef565b805462010000600160b01b0319163360101b62010000600160b01b03161781556105ef565b90505f610868565b5081156105c7565b60405162461bcd60e51b815260048101889052600f818a01526e105b1c9958591e48195b9d195c9959608a1b6044820152606490fd5b50826105bc565b50346102a95760203660031901126102a9576020906001600160a01b03906040908261091f61295a565b16815260058452205416604051908152f35b50346102a957806003193601126102a9576001546040516001600160a01b039091168152602090f35b50346102a957806003193601126102a9576002546040516001600160a01b039091168152602090f35b50346102a95760203660031901126102a9576001600160a01b036109a561295a565b1681526007602052604090208054600182015460028301546001600160a01b03928316939183169216906109db60038201612b38565b6109e760048301612b38565b90600583015491600684015460078501546008860154600987015491600a88015493600b89015495600160a01b60019003600c8b01541697600d8b01610a2c90612b38565b9a600e015460ff169b6040519e8f9e8f9182526020820152604001528c6102206060819201528d01610a5d91612ac2565b8c810360808e0152610a6e91612ac2565b60a08c019890985260c08b015260e08a015261010089015261012088015261014087015260ff8181161515610160880152600882901c16151561018087015260101c6001600160a01b03166101a08601526101c08501528381036101e0850152610ad791612ac2565b906102008301520390f35b50346102a9576101603660031901126102a957610afd61295a565b610b05612970565b6044356001600160401b03811161139b57610b24903690600401612a6c565b916064356001600160401b03811161139757610b44903690600401612a6c565b91610b4d612986565b93610b56612ab2565b93610b6360a43515612bd9565b6002548790610b7a906001600160a01b0316612eb0565b9686156113915760015b6001600160a01b0389163b1561138d57868391610bbf886040519586948594631c49bc6760e01b86528a8c3095608435943360048b01612c1e565b0381836001600160a01b038d165af1801561133e57611379575b50506001600160a01b0386163b1561133a5760405163d690b66760e01b815261014435600482015287908181602481836001600160a01b038d165af1801561133e57611365575b5050841561134957610c3f60e43587336001600160a01b038716612f16565b6001600160a01b0386163b1561133a5760405163a65e2cfd60e01b815260e435600482015261012435602482015287908181604481836001600160a01b038d165af1801561133e57611326575b5050610c9786612e1d565b90610ca187612c92565b6001600160a01b0387168852600460205260408820805460ff191660011790558515611308576001600160a01b038716885260056020526040882080546001600160a01b031916331790555b85156113015733925b86156112fa5788945b60405196610d0c886129c3565b60018060a01b038a16885260018060a01b0316602088015260018060a01b031660408701526060860152608085015260a084015260843560c08401528560e0840152856101008401528561012084015285610140840152856101608401528561018084015260018060a01b03166101a083015260018060a01b03166101c0820152604051610d99816129df565b60148152735369676d6f696446696e6974654675747572657360601b60208201526101e08201528361020082015260018060a01b038316845260076020526040842060018060a01b038251166001600160601b0360a01b8254161781556001810160018060a01b036020840151166001600160601b0360a01b8254161790556002810160018060a01b036040840151166001600160601b0360a01b82541617905560608201518051906001600160401b038211611154578190610e5f6003850154612b00565b601f81116112aa575b50602090601f831160011461123c578892611231575b50508160011b915f199060031b1c19161760038201555b60808201518051906001600160401b038211611154578190610eba6004850154612b00565b601f81116111e1575b50602090601f8311600114611173578892611168575b50508160011b915f199060031b1c19161760048201555b60a0820151600582015560c0820151600682015560e0820151600782015561010082015160088201556101208201516009820155610140820151600a820155610f97600b8201610f536101608501511515829060ff801983541691151516179055565b610180840151815461ff00191690151560081b61ff00161781556101a0840151815462010000600160b01b03191660109190911b62010000600160b01b0316179055565b600c810160018060a01b036101c0840151166001600160601b0360a01b8254161790556101e08201518051906001600160401b03821161115457610fde600d840154612b00565b601f8111611110575b50956020968791601f841160011461109e579280600e9360ff96936102009692611093575b50508160011b915f199060031b1c191617600d8201555b019201511660ff19825416179055604051901515815260e43583820152608435604082015261014435606082015260018060a01b038216907f380fd29f0d36c4921c06e409cb49955678552d42310ee418758293234d1e4e5c60803392a36040516001600160a01b039091168152f35b015190505f8061100c565b9190600d85018352888320925b601f19851681106110f9575083600e9360ff969360019361020097601f198116106110e1575b505050811b01600d820155611023565b01515f1960f88460031b161c191690555f80806110d1565b9192896001819286850151815501940192016110ab565b600d8401885260208820601f840160051c81016020851061114d575b601f830160051c82018110611142575050610fe7565b89815560010161112c565b508061112c565b634e487b7160e01b87526041600452602487fd5b015190505f80610ed9565b9250600484018852602088209088935b601f19841685106111c6576001945083601f198116106111ae575b505050811b016004820155610ef0565b01515f1960f88460031b161c191690555f808061119e565b81810151835560209485019460019093019290910190611183565b90915060048401885260208820601f840160051c81016020851061122a575b90849392915b601f830160051c8201811061121c575050610ec3565b8a8155859450600101611206565b5080611200565b015190505f80610e7e565b9250600384018852602088209088935b601f198416851061128f576001945083601f19811610611277575b505050811b016003820155610e95565b01515f1960f88460031b161c191690555f8080611267565b8181015183556020948501946001909301929091019061124c565b90915060038401885260208820601f840160051c8101602085106112f3575b90849392915b601f830160051c820181106112e5575050610e68565b8a81558594506001016112cf565b50806112c9565b3394610cff565b8792610cf6565b60066020526040882080546001600160a01b03191633179055610ced565b61132f9061299c565b61133a57865f610c8c565b8680fd5b6040513d84823e3d90fd5b61136060843587336001600160a01b038816612f16565b610c3f565b61136e9061299c565b61133a57865f610c20565b6113829061299c565b61133a57865f610bd9565b8280fd5b81610b84565b8480fd5b8380fd5b50346102a957806003193601126102a957546040516001600160a01b039091168152602090f35b50346102a95760203660031901126102a9576040906113e361295a565b8161020084516113f2816129c3565b8281528260208201528286820152606080820152606060808201528260a08201528260c08201528260e08201528261010082015282610120820152826101408201528261016082015282610180820152826101a0820152826101c082015260606101e0820152015260018060a01b0316815260076020522060ff600e6040519261147b846129c3565b80546001600160a01b03908116855260018201548116602086015260028201541660408501526114ad60038201612b38565b60608501526114be60048201612b38565b6080850152600581015460a0850152600681015460c0850152600781015460e08501526008808201546101008601526009820154610120860152600a820154610140860152600b82015484811615156101608701529081901c8416151561018086015260101c6001600160a01b039081166101a0860152600c820154166101c085015261154d600d8201612b38565b6101e085015201541661020082015260405180916020825260018060a01b03815116602083015260018060a01b03602082015116604083015260018060a01b03604082015116606083015260ff6102006116716115d46115be60608601516102206080890152610240880190612ac2565b6080860151878203601f190160a0890152612ac2565b60a085015160c087015260c085015160e087015260e0850151610100870152610100850151610120870152610120850151610140870152610140850151610160870152610160850151151561018087015261018085015115156101a087015260018060a01b036101a0860151166101c087015260018060a01b036101c0860151166101e08701526101e0850151601f198783030184880152612ac2565b920151166102208301520390f35b50346102a9576101603660031901126102a95761169a61295a565b6116a2612970565b6044356001600160401b03811161139b576116c1903690600401612a6c565b6064356001600160401b038111611397576116e0903690600401612a6c565b6116e8612986565b926116f1612ab2565b92610144359260ff84168403611ef55761170d60a43515612bd9565b600160ff851610611f4357600154889061172f906001600160a01b0316612eb0565b968615611f3d5760015b6001600160a01b0389163b1561138d57898391611774886040519586948594631c49bc6760e01b86528a8c3095608435943360048b01612c1e565b0381836001600160a01b038d165af1801561133e57611f29575b50506001600160a01b0386163b15611ef5576040516366eaf2c160e01b815260ff8516600482015288908181602481836001600160a01b038d165af1801561133e57611f15575b50508415611ef9576117f460e43587336001600160a01b038716612f16565b6001600160a01b0386163b15611ef55760405163a65e2cfd60e01b815260e435600482015261012435602482015288908181604481836001600160a01b038d165af1801561133e57611ee1575b505061184c86612e1d565b9061185687612c92565b6001600160a01b0387168952600460205260408920805460ff191660011790558515611ec3576001600160a01b038716895260056020526040892080546001600160a01b031916331790555b8515611ebc5733925b8615611eb55789945b604051996118c18b6129c3565b60018060a01b038a168b5260018060a01b031660208b015260018060a01b031660408a01526060890152608088015260a087015260843560c08701528660e0870152866101008701528661012087015286610140870152866101608701528661018087015260018060a01b03166101a086015260018060a01b03166101c085015260405161194e816129df565b6012815271506f77657246696e6974654675747572657360701b60208201526101e085015260ff811661020085015260018060a01b03831685526007602052604085209360018060a01b038151166001600160601b0360a01b8654161785556001850160018060a01b036020830151166001600160601b0360a01b8254161790556002850160018060a01b036040830151166001600160601b0360a01b82541617905560608101518051906001600160401b038211611d0f578190611a166003890154612b00565b601f8111611e65575b50602090601f8311600114611df7578992611dec575b50508160011b915f199060031b1c19161760038601555b60808101518051906001600160401b038211611d0f578190611a716004890154612b00565b601f8111611d9c575b50602090601f8311600114611d2e578992611d23575b50508160011b915f199060031b1c19161760048601555b60a0810151600586015560c0810151600686015560e0810151600786015561010081015160088601556101208101516009860155610140810151600a860155611b4e600b8601611b0a6101608401511515829060ff801983541691151516179055565b610180830151815461ff00191690151560081b61ff00161781556101a0830151815462010000600160b01b03191660109190911b62010000600160b01b0316179055565b600c850160018060a01b036101c0830151166001600160601b0360a01b8254161790556101e0810151948551956001600160401b038711611d0f57611b96600d830154612b00565b601f8111611ccb575b50966020978891601f8911600114611c5557928860ff97989961020094600e948a9792611c4a575b50508160011b915f199060031b1c191617600d8201555b01920151168319825416179055604051921515835260e43585840152608435604084015216606082015260018060a01b038216907f8130c0d27440495f2e5336d863fd1596d491d29b0d431922670b44da3534222560803392a36040516001600160a01b039091168152f35b015190505f80611bc7565b9190600d84018352898320925b601f198a168110611cb457509260018961020094600e9460ff9a9b9c978b98601f19811610611c9c575b505050811b01600d820155611bde565b01515f1960f88460031b161c191690555f8080611c8c565b91928a600181928685015181550194019201611c62565b600d8301895260208920601f890160051c810160208a10611d08575b601f830160051c82018110611cfd575050611b9f565b8a8155600101611ce7565b5080611ce7565b634e487b7160e01b88526041600452602488fd5b015190505f80611a90565b9250600488018952602089209089935b601f1984168510611d81576001945083601f19811610611d69575b505050811b016004860155611aa7565b01515f1960f88460031b161c191690555f8080611d59565b81810151835560209485019460019093019290910190611d3e565b90915060048801895260208920601f840160051c810160208510611de5575b90849392915b601f830160051c82018110611dd7575050611a7a565b8b8155859450600101611dc1565b5080611dbb565b015190505f80611a35565b9250600388018952602089209089935b601f1984168510611e4a576001945083601f19811610611e32575b505050811b016003860155611a4c565b01515f1960f88460031b161c191690555f8080611e22565b81810151835560209485019460019093019290910190611e07565b90915060038801895260208920601f840160051c810160208510611eae575b90849392915b601f830160051c82018110611ea0575050611a1f565b8b8155859450600101611e8a565b5080611e84565b33946118b4565b88926118ab565b60066020526040892080546001600160a01b031916331790556118a2565b611eea9061299c565b611ef557875f611841565b8780fd5b611f1060843587336001600160a01b038b16612f16565b6117f4565b611f1e9061299c565b611ef557875f6117d5565b611f329061299c565b611ef557875f61178e565b81611739565b60405162461bcd60e51b8152602060048201526012602482015271232aaa1d1034b73b30b634b2103837bbb2b960711b6044820152606490fd5b50346102a95760203660031901126102a95760209060ff906040906001600160a01b03611fa861295a565b168152600484522054166040519015158152f35b50346102a9576101403660031901126102a957611fd761295a565b611fdf612970565b6044356001600160401b03811161139b57611ffe903690600401612a6c565b906064356001600160401b0381116113975761201e903690600401612a6c565b90612027612986565b92612030612ab2565b9261203d60a43515612bd9565b8654612051906001600160a01b0316612eb0565b6001600160a01b038116959091908515612758578860015b883b1561275457899061209a886040519586948594631c49bc6760e01b8652898c3095608435943360048b01612c1e565b0381838b5af1801561274957612736575b50841561271a576120c960e43583336001600160a01b038816612f16565b853b15611ef55760405163a65e2cfd60e01b815260e435600482015261012435602482015288908181604481838c5af1801561133e57612706575b505061211861211283612e1d565b92612c92565b858852600460205260408820805460ff1916600117905584156126e85785885260056020526040882080546001600160a01b031916331790555b84156126e15733925b85156126da5788945b604051986121718a6129c3565b888a5260018060a01b031660208a015260018060a01b031660408901526060880152608087015260a086015260843560c08601528560e0860152856101008601528561012086015285610140860152856101608601528561018086015260018060a01b03166101a085015260018060a01b03166101c08401526040516121f6816129df565b60138152724c696e65617246696e6974654675747572657360681b60208201526101e084015260016102008401528184526007602052604084209260018060a01b038151166001600160601b0360a01b8554161784556001840160018060a01b036020830151166001600160601b0360a01b8254161790556002840160018060a01b036040830151166001600160601b0360a01b82541617905560608101518051906001600160401b0382116111545781906122b56003880154612b00565b601f811161268a575b50602090601f831160011461261c578892612611575b50508160011b915f199060031b1c19161760038501555b60808101518051906001600160401b0382116111545781906123106004880154612b00565b601f81116125c1575b50602090601f8311600114612553578892612548575b50508160011b915f199060031b1c19161760048501555b60a0810151600585015560c0810151600685015560e0810151600785015561010081015160088501556101208101516009850155610140810151600a8501556123a9600b8501611b0a6101608401511515829060ff801983541691151516179055565b600c840160018060a01b036101c0830151166001600160601b0360a01b8254161790556101e08101518051906001600160401b038211611154576123f0600d870154612b00565b601f8111612504575b50956020968791601f841160011461249457968360ff9461020094600e948a9b92612489575b50508160011b915f199060031b1c191617600d8201555b019201511660ff19825416179055604051901515815260e4358482015260843560408201527fb504ee39e775d23efe2496ed5046412e21bc3ca73bd9ab2c310dbd8aa251b7e760603392a3604051908152f35b015190505f8061241f565b9190601f198416600d89018452898420935b8181106124ed57508461020094600e948a9b9460ff98600195106124d5575b505050811b01600d820155612436565b01515f1960f88460031b161c191690555f80806124c5565b92938a6001819287860151815501950193016124a6565b600d8701885260208820601f840160051c810160208510612541575b601f830160051c820181106125365750506123f9565b898155600101612520565b5080612520565b015190505f8061232f565b9250600487018852602088209088935b601f19841685106125a6576001945083601f1981161061258e575b505050811b016004850155612346565b01515f1960f88460031b161c191690555f808061257e565b81810151835560209485019460019093019290910190612563565b90915060048701885260208820601f840160051c81016020851061260a575b90849392915b601f830160051c820181106125fc575050612319565b8a81558594506001016125e6565b50806125e0565b015190505f806122d4565b9250600387018852602088209088935b601f198416851061266f576001945083601f19811610612657575b505050811b0160038501556122eb565b01515f1960f88460031b161c191690555f8080612647565b8181015183556020948501946001909301929091019061262c565b90915060038701885260208820601f840160051c8101602085106126d3575b90849392915b601f830160051c820181106126c55750506122be565b8a81558594506001016126af565b50806126a9565b3394612164565b879261215b565b60066020526040882080546001600160a01b03191633179055612152565b61270f9061299c565b611ef557875f612104565b61273160843583336001600160a01b038b16612f16565b6120c9565b6127429098919861299c565b965f6120ab565b6040513d8b823e3d90fd5b5080fd5b8880612069565b50346102a95760203660031901126102a9576004356003548110156127545760039091527fc2575a0e9e593c00f959f8c92f12db2869c3395a3b0502d05e2516446f71f85b01546040516001600160a01b039091168152602090f35b50346102a957602080600319360112612754576127d661295a565b6001600160a01b038181168085526004845260408520549091906127fc9060ff16612d0e565b818552600684526040852054163303612924578391829182526007845260408220600b810160ff815460081c16156128a3575b5050604051828582019163fc772c8b60e01b835233602482015260248152612856816129fa565b51925af1612862612d4b565b501561286c575080f35b6064906040519062461bcd60e51b82526004820152601060248201526f1c9958db185a5b4a0a4819985a5b195960821b6044820152fd5b9092806128c8916040518881019063140870eb60e11b8252600481526101ed816129df565b8380604051878101906335ee579f60e21b8252600481526128e8816129df565b519082865af1926128fa610233612d4b565b8584805181010312611397576009868695015191015561010061ff00198254161790555f8061282f565b60405162461bcd60e51b815260048101849052600e60248201526d139bdd08185d5d1a1bdc9a5e995960921b6044820152606490fd5b600435906001600160a01b038216820361026357565b602435906001600160a01b038216820361026357565b60c435906001600160a01b038216820361026357565b6001600160401b0381116129af57604052565b634e487b7160e01b5f52604160045260245ffd5b61022081019081106001600160401b038211176129af57604052565b604081019081106001600160401b038211176129af57604052565b606081019081106001600160401b038211176129af57604052565b608081019081106001600160401b038211176129af57604052565b90601f801991011681019081106001600160401b038211176129af57604052565b6001600160401b0381116129af57601f01601f191660200190565b81601f8201121561026357803590612a8382612a51565b92612a916040519485612a30565b8284526020838301011161026357815f926020809301838601378301015290565b6101043590811515820361026357565b91908251928382525f5b848110612aec575050825f602080949584010152601f8019910116010190565b602081830181015184830182015201612acc565b90600182811c92168015612b2e575b6020831014612b1a57565b634e487b7160e01b5f52602260045260245ffd5b91607f1691612b0f565b9060405191825f825492612b4b84612b00565b9081845260019485811690815f14612bb65750600114612b76575b5050612b7492500383612a30565b565b909391505f52602090815f20935f915b818310612b9e575050612b7493508201015f80612b66565b85548884018501529485019487945091830191612b86565b915050612b7494506020925060ff191682840152151560051b8201015f80612b66565b15612be057565b60405162461bcd60e51b815260206004820152601660248201527504655543a207072656d69756d206d75737420626520360541b6044820152606490fd5b97926020969a9995612c6561012099949660ff94612c73948d60018060a01b039c8d809c818096168452169101521660408d015260608c61014091829101528c0190612ac2565b908a820360808c0152612ac2565b991660a088015260c08701525f60e08701521661010085015216910152565b600354680100000000000000008110156129af576001810180600355811015612cfa5760035f527fc2575a0e9e593c00f959f8c92f12db2869c3395a3b0502d05e2516446f71f85b0180546001600160a01b0319166001600160a01b03909216919091179055565b634e487b7160e01b5f52603260045260245ffd5b15612d1557565b60405162461bcd60e51b815260206004820152600e60248201526d556e6b6e6f776e2066757475726560901b6044820152606490fd5b3d15612d75573d90612d5c82612a51565b91612d6a6040519384612a30565b82523d5f602084013e565b606090565b9081602091031261026357516001600160a01b03811681036102635790565b15612da057565b60405162461bcd60e51b815260206004820152601060248201526f1c995cdbdb1d994a0a4819985a5b195960821b6044820152606490fd5b15612ddf57565b60405162461bcd60e51b81526020600482015260166024820152751c1c9a58d9505d115e1c1a5c9e4a0a4819985a5b195960521b6044820152606490fd5b5f8091604051602081019063c52987cf60e01b825260048152612e3f816129df565b51915afa612e4b612d4b565b9080612ea5575b15612e6b57602081805181010312610263576020015190565b60405162461bcd60e51b81526020600482015260126024820152711c995859081cdd1c9a5ad94819985a5b195960721b6044820152606490fd5b506020815114612e52565b6e5af43d82803e903d91602b57fd5bf390763d602d80600a3d3981f3363d3d373d3d3d363d7300000062ffffff8260881c16175f5260781b17602052603760095ff0906001600160a01b03821615612f0457565b6040516330be1a3d60e21b8152600490fd5b6040516323b872dd60e01b60208201526001600160a01b03928316602482015292909116604483015260648083019390935291815260a08101918183106001600160401b038411176129af57612b74926040525b60018060a01b031690612f935f80836020829551910182875af1612f8c612d4b565b9084612feb565b908151918215159283612fc3575b505050612fab5750565b60249060405190635274afe760e01b82526004820152fd5b8192935090602091810103126127545760200151908115918215036102a957505f8080612fa1565b90613012575080511561300057805190602001fd5b604051630a12f52160e11b8152600490fd5b81511580613045575b613023575090565b604051639996b31560e01b81526001600160a01b039091166004820152602490fd5b50803b1561301b56fea2646970667358221220ea018ba411509d7dfdf9e3652d321b17bc7a8f22ecad7728c76b39c2e7ddf16364736f6c63430008140033","linkReferences":{}},"methodIdentifiers":{"createAndFundLinearFuture(address,address,string,string,uint256,uint256,address,uint256,bool,uint256)":"2d8fef5e","createAndFundPowerFuture(address,address,string,string,uint256,uint256,address,uint256,bool,uint256,uint8)":"355ec9f9","createAndFundSigmoidFuture(address,address,string,string,uint256,uint256,address,uint256,bool,uint256,uint256)":"963b630b","enterAndPayPremium(address,uint256)":"c2041ecd","futuresContracts(uint256)":"226474e1","futuresImpl()":"6636cc93","futuresMetadata(address)":"9d8700a5","getAllFutures()":"cc4f8778","getFuturesMeta(address)":"59d02eb0","isKnownClone(address)":"30cdf641","longPosition(address)":"c151446d","notifyExercised(uint256)":"d3dc5819","powerFuturesImpl()":"b2318676","resolveAndExercise(address,uint256)":"ffd29b22","resolveAndReclaim(address)":"1eb11b31","shortPosition(address)":"d4961e47","sigmoidFuturesImpl()":"a58ae7e3"},"id":0}