{"abi":[{"type":"constructor","inputs":[{"name":"_sinusoidalGenieImpl","type":"address","internalType":"address"},{"name":"_polynomialGenieImpl","type":"address","internalType":"address"}],"stateMutability":"nonpayable"},{"type":"function","name":"createAndFundPolynomialGenie","inputs":[{"name":"_underlyingToken","type":"address","internalType":"address"},{"name":"_strikeToken","type":"address","internalType":"address"},{"name":"_underlyingSymbol","type":"string","internalType":"string"},{"name":"_strikeSymbol","type":"string","internalType":"string"},{"name":"_positionSize","type":"uint256","internalType":"uint256"},{"name":"_premiumMustBe0","type":"uint256","internalType":"uint256"},{"name":"_oracle","type":"address","internalType":"address"},{"name":"_strikeNotional","type":"uint256","internalType":"uint256"},{"name":"_makerIsLong","type":"bool","internalType":"bool"},{"name":"_expirySeconds","type":"uint256","internalType":"uint256"},{"name":"_fullPayLine1e18","type":"uint256","internalType":"uint256"}],"outputs":[{"name":"clone","type":"address","internalType":"address"}],"stateMutability":"nonpayable"},{"type":"function","name":"createAndFundSinusoidalGenie","inputs":[{"name":"_underlyingToken","type":"address","internalType":"address"},{"name":"_strikeToken","type":"address","internalType":"address"},{"name":"_underlyingSymbol","type":"string","internalType":"string"},{"name":"_strikeSymbol","type":"string","internalType":"string"},{"name":"_positionSize","type":"uint256","internalType":"uint256"},{"name":"_premiumMustBe0","type":"uint256","internalType":"uint256"},{"name":"_oracle","type":"address","internalType":"address"},{"name":"_strikeNotional","type":"uint256","internalType":"uint256"},{"name":"_makerIsLong","type":"bool","internalType":"bool"},{"name":"_expirySeconds","type":"uint256","internalType":"uint256"},{"name":"_amplitude1e18","type":"uint256","internalType":"uint256"},{"name":"_period1e18","type":"uint256","internalType":"uint256"}],"outputs":[{"name":"clone","type":"address","internalType":"address"}],"stateMutability":"nonpayable"},{"type":"function","name":"enterAndPayPremium","inputs":[{"name":"genieAddress","type":"address","internalType":"address"},{"name":"premiumAmount","type":"uint256","internalType":"uint256"}],"outputs":[],"stateMutability":"nonpayable"},{"type":"function","name":"genieContracts","inputs":[{"name":"","type":"uint256","internalType":"uint256"}],"outputs":[{"name":"","type":"address","internalType":"address"}],"stateMutability":"view"},{"type":"function","name":"genieMetadata","inputs":[{"name":"","type":"address","internalType":"address"}],"outputs":[{"name":"genieAddress","type":"address","internalType":"address"},{"name":"underlyingToken","type":"address","internalType":"address"},{"name":"strikeToken","type":"address","internalType":"address"},{"name":"underlyingSymbol","type":"string","internalType":"string"},{"name":"strikeSymbol","type":"string","internalType":"string"},{"name":"strikePrice","type":"uint256","internalType":"uint256"},{"name":"positionSize","type":"uint256","internalType":"uint256"},{"name":"premium","type":"uint256","internalType":"uint256"},{"name":"expiry","type":"uint256","internalType":"uint256"},{"name":"priceAtExpiry","type":"uint256","internalType":"uint256"},{"name":"exercisedAmount","type":"uint256","internalType":"uint256"},{"name":"isExercised","type":"bool","internalType":"bool"},{"name":"isResolved","type":"bool","internalType":"bool"},{"name":"long","type":"address","internalType":"address"},{"name":"short","type":"address","internalType":"address"},{"name":"payoffType","type":"string","internalType":"string"},{"name":"payoffPower","type":"uint8","internalType":"uint8"}],"stateMutability":"view"},{"type":"function","name":"getAllGenies","inputs":[],"outputs":[{"name":"","type":"address[]","internalType":"address[]"}],"stateMutability":"view"},{"type":"function","name":"getGenieMeta","inputs":[{"name":"genieAddress","type":"address","internalType":"address"}],"outputs":[{"name":"","type":"tuple","internalType":"struct GenieBook.GenieMeta","components":[{"name":"genieAddress","type":"address","internalType":"address"},{"name":"underlyingToken","type":"address","internalType":"address"},{"name":"strikeToken","type":"address","internalType":"address"},{"name":"underlyingSymbol","type":"string","internalType":"string"},{"name":"strikeSymbol","type":"string","internalType":"string"},{"name":"strikePrice","type":"uint256","internalType":"uint256"},{"name":"positionSize","type":"uint256","internalType":"uint256"},{"name":"premium","type":"uint256","internalType":"uint256"},{"name":"expiry","type":"uint256","internalType":"uint256"},{"name":"priceAtExpiry","type":"uint256","internalType":"uint256"},{"name":"exercisedAmount","type":"uint256","internalType":"uint256"},{"name":"isExercised","type":"bool","internalType":"bool"},{"name":"isResolved","type":"bool","internalType":"bool"},{"name":"long","type":"address","internalType":"address"},{"name":"short","type":"address","internalType":"address"},{"name":"payoffType","type":"string","internalType":"string"},{"name":"payoffPower","type":"uint8","internalType":"uint8"}]}],"stateMutability":"view"},{"type":"function","name":"isKnownGenieClone","inputs":[{"name":"","type":"address","internalType":"address"}],"outputs":[{"name":"","type":"bool","internalType":"bool"}],"stateMutability":"view"},{"type":"function","name":"longPosition","inputs":[{"name":"","type":"address","internalType":"address"}],"outputs":[{"name":"","type":"address","internalType":"address"}],"stateMutability":"view"},{"type":"function","name":"notifyExercised","inputs":[{"name":"longPayout","type":"uint256","internalType":"uint256"}],"outputs":[],"stateMutability":"nonpayable"},{"type":"function","name":"polynomialGenieImpl","inputs":[],"outputs":[{"name":"","type":"address","internalType":"address"}],"stateMutability":"view"},{"type":"function","name":"resolveAndExercise","inputs":[{"name":"genieAddress","type":"address","internalType":"address"},{"name":"","type":"uint256","internalType":"uint256"}],"outputs":[],"stateMutability":"nonpayable"},{"type":"function","name":"resolveAndReclaim","inputs":[{"name":"genieAddress","type":"address","internalType":"address"}],"outputs":[],"stateMutability":"nonpayable"},{"type":"function","name":"setPolynomialImpl","inputs":[{"name":"_impl","type":"address","internalType":"address"}],"outputs":[],"stateMutability":"nonpayable"},{"type":"function","name":"setSinusoidalImpl","inputs":[{"name":"_impl","type":"address","internalType":"address"}],"outputs":[],"stateMutability":"nonpayable"},{"type":"function","name":"shortPosition","inputs":[{"name":"","type":"address","internalType":"address"}],"outputs":[{"name":"","type":"address","internalType":"address"}],"stateMutability":"view"},{"type":"function","name":"sinusoidalGenieImpl","inputs":[],"outputs":[{"name":"","type":"address","internalType":"address"}],"stateMutability":"view"},{"type":"event","name":"GenieActivated","inputs":[{"name":"instance","type":"address","indexed":true,"internalType":"address"},{"name":"long","type":"address","indexed":true,"internalType":"address"},{"name":"short","type":"address","indexed":true,"internalType":"address"},{"name":"expiry","type":"uint256","indexed":false,"internalType":"uint256"}],"anonymous":false},{"type":"event","name":"GenieExercised","inputs":[{"name":"instance","type":"address","indexed":true,"internalType":"address"},{"name":"longPayout","type":"uint256","indexed":false,"internalType":"uint256"},{"name":"payer","type":"address","indexed":false,"internalType":"address"},{"name":"receiver","type":"address","indexed":false,"internalType":"address"},{"name":"netAmount","type":"uint256","indexed":false,"internalType":"uint256"}],"anonymous":false},{"type":"event","name":"PolynomialGenieCreated","inputs":[{"name":"creator","type":"address","indexed":true,"internalType":"address"},{"name":"instance","type":"address","indexed":true,"internalType":"address"},{"name":"makerIsLong","type":"bool","indexed":false,"internalType":"bool"},{"name":"strikeNotional","type":"uint256","indexed":false,"internalType":"uint256"},{"name":"positionSize","type":"uint256","indexed":false,"internalType":"uint256"},{"name":"fullPayLine1e18","type":"uint256","indexed":false,"internalType":"uint256"}],"anonymous":false},{"type":"event","name":"SinusoidalGenieCreated","inputs":[{"name":"creator","type":"address","indexed":true,"internalType":"address"},{"name":"instance","type":"address","indexed":true,"internalType":"address"},{"name":"makerIsLong","type":"bool","indexed":false,"internalType":"bool"},{"name":"strikeNotional","type":"uint256","indexed":false,"internalType":"uint256"},{"name":"positionSize","type":"uint256","indexed":false,"internalType":"uint256"},{"name":"amplitude1e18","type":"uint256","indexed":false,"internalType":"uint256"},{"name":"period1e18","type":"uint256","indexed":false,"internalType":"uint256"}],"anonymous":false},{"type":"error","name":"AddressEmptyCode","inputs":[{"name":"target","type":"address","internalType":"address"}]},{"type":"error","name":"AddressInsufficientBalance","inputs":[{"name":"account","type":"address","internalType":"address"}]},{"type":"error","name":"ERC1167FailedCreateClone","inputs":[]},{"type":"error","name":"FailedInnerCall","inputs":[]},{"type":"error","name":"SafeERC20FailedOperation","inputs":[{"name":"token","type":"address","internalType":"address"}]}],"bytecode":{"object":"0x6080346200009557601f62002a5538819003918201601f19168301916001600160401b038311848410176200009957808492604094855283398101031262000095576200005a60206200005283620000ad565b9201620000ad565b5f80546001600160a01b039384166001600160a01b031991821617909155600180549290931691161790556040516129929081620000c38239f35b5f80fd5b634e487b7160e01b5f52604160045260245ffd5b51906001600160a01b0382168203620000955756fe60806040526004361015610011575f80fd5b5f803560e01c80631eb11b31146120a25780632ba9700a14611f435780635d7ec17f14611f0d5780637c47698414611ee457806393e99af614611ea55780639877caaa14611e7e5780639dd70b9314611e45578063bedcdfb114611d7f578063c151446d14611d43578063c2041ecd1461198b578063caec4fde146110f7578063cf0ad98914610e3e578063d3dc581914610c49578063d4961e4714610c0d578063eb2c071f14610bae578063fc6fe915146102ac5763ffd29b22146100d5575f80fd5b346102a95760403660031901126102a9576100ee612241565b60018060a01b03808216918284526020926003845261011360ff6040872054166125fc565b8452600683526040842091600b83018054828160101c163314801561029a575b15610267579060ff8794939260081c16156101c9575b8394505460101c16826040518681019263036d6e5360e31b845282602483015260448201526044815261017b81612334565b51925af1610187612638565b5015610191575080f35b6064906040519062461bcd60e51b825260048201526011602482015270195e195c98da5cd94a0a4819985a5b1959607a1b6044820152fd5b9280610201916040518881019063140870eb60e11b8252600481526101ed816122fe565b519082875af16101fb612638565b50612686565b8580604051878101906335ee579f60e21b825260048152610221816122fe565b519082865af192610239610233612638565b946126c5565b85848051810103126102635786946009878796015191015561010061ff0019825416178155610149565b5f80fd5b60405162461bcd60e51b815260048101879052600b60248201526a4e6f74206120706172747960a81b6044820152606490fd5b5082600c860154163314610133565b80fd5b50346102a9576101603660031901126102a9576102c7612241565b6102cf612257565b6044356001600160401b038111610baa576102ee90369060040161246a565b916064356001600160401b038111610ba65761030e90369060040161246a565b9161031761226d565b936103206124b0565b9361032d60a435156124c0565b6001546001600160a01b03168015610b615761034988916127be565b968615610b5b5760015b6001600160a01b0389163b15610b575786839161038e886040519586948594631c49bc6760e01b86528a8c3095608435943360048b0161250c565b0381836001600160a01b038d165af18015610b0857610b43575b50506001600160a01b0386163b15610b0457604051631e12a31d60e21b815261014435600482015287908181602481836001600160a01b038d165af18015610b0857610b2f575b50508415610b135761040e60e43587336001600160a01b038716612824565b6001600160a01b0386163b15610b045760405163a65e2cfd60e01b815260e435600482015261012435602482015287908181604481836001600160a01b038d165af18015610b0857610af0575b50506104668661272b565b9061047087612580565b6001600160a01b0387168852600360205260408820805460ff191660011790558515610ad2576001600160a01b038716885260046020526040882080546001600160a01b031916331790555b8515610acb5733925b8615610ac45788945b604051966104db886122e2565b60018060a01b038a16885260018060a01b0316602088015260018060a01b031660408701526060860152608085015260a084015260843560c08401528560e0840152856101008401528561012084015285610140840152856101608401528561018084015260018060a01b03166101a083015260018060a01b03166101c0820152604051610568816122fe565b600f81526e506f6c796e6f6d69616c47656e696560881b60208201526101e08201528361020082015260018060a01b038316845260066020526040842060018060a01b038251166001600160601b0360a01b8254161781556001810160018060a01b036020840151166001600160601b0360a01b8254161790556002810160018060a01b036040840151166001600160601b0360a01b82541617905560608201518051906001600160401b03821161091e5781906106296003850154612283565b601f8111610a74575b50602090601f8311600114610a065788926109fb575b50508160011b915f199060031b1c19161760038201555b60808201518051906001600160401b03821161091e5781906106846004850154612283565b601f81116109ab575b50602090601f831160011461093d578892610932575b50508160011b915f199060031b1c19161760048201555b60a0820151600582015560c0820151600682015560e0820151600782015561010082015160088201556101208201516009820155610140820151600a820155610761600b820161071d6101608501511515829060ff801983541691151516179055565b610180840151815461ff00191690151560081b61ff00161781556101a0840151815462010000600160b01b03191660109190911b62010000600160b01b0316179055565b600c810160018060a01b036101c0840151166001600160601b0360a01b8254161790556101e08201518051906001600160401b03821161091e576107a8600d840154612283565b601f81116108da575b50956020968791601f8411600114610868579280600e9360ff9693610200969261085d575b50508160011b915f199060031b1c191617600d8201555b019201511660ff19825416179055604051901515815260e43583820152608435604082015261014435606082015260018060a01b038216907f6a2aba62f29436e2d56e2bfbc37a9035d7b9ddadb4427be0e3472c4f6b37ab3c60803392a36040516001600160a01b039091168152f35b015190505f806107d6565b9190600d85018352888320925b601f19851681106108c3575083600e9360ff969360019361020097601f198116106108ab575b505050811b01600d8201556107ed565b01515f1960f88460031b161c191690555f808061089b565b919289600181928685015181550194019201610875565b600d8401885260208820601f840160051c810160208510610917575b601f830160051c8201811061090c5750506107b1565b8981556001016108f6565b50806108f6565b634e487b7160e01b87526041600452602487fd5b015190505f806106a3565b9250600484018852602088209088935b601f1984168510610990576001945083601f19811610610978575b505050811b0160048201556106ba565b01515f1960f88460031b161c191690555f8080610968565b8181015183556020948501946001909301929091019061094d565b90915060048401885260208820601f840160051c8101602085106109f4575b90849392915b601f830160051c820181106109e657505061068d565b8a81558594506001016109d0565b50806109ca565b015190505f80610648565b9250600384018852602088209088935b601f1984168510610a59576001945083601f19811610610a41575b505050811b01600382015561065f565b01515f1960f88460031b161c191690555f8080610a31565b81810151835560209485019460019093019290910190610a16565b90915060038401885260208820601f840160051c810160208510610abd575b90849392915b601f830160051c82018110610aaf575050610632565b8a8155859450600101610a99565b5080610a93565b33946104ce565b87926104c5565b60056020526040882080546001600160a01b031916331790556104bc565b610af9906122bb565b610b0457865f61045b565b8680fd5b6040513d84823e3d90fd5b610b2a60843587336001600160a01b038816612824565b61040e565b610b38906122bb565b610b0457865f6103ef565b610b4c906122bb565b610b0457865f6103a8565b8280fd5b81610353565b60405162461bcd60e51b815260206004820152601760248201527f506f6c796e6f6d69616c20696d706c206e6f74207365740000000000000000006044820152606490fd5b8480fd5b8380fd5b50346102a95760203660031901126102a957600435600254811015610c095760025f527f405787fa12a823e0f2b7631cc41b3ba8828b3321ca811111fa75cd3aa3bb5ace01546040516001600160a01b039091168152602090f35b5080fd5b50346102a95760203660031901126102a9576020906001600160a01b039060409082610c37612241565b16815260058452205416604051908152f35b50346102a957602080600319360112610c09576004359033835260038152610c7760ff6040852054166125fc565b3383526006815260408320600b810190815460ff8116610e055760019060ff19161780925583600a8201556005810154600682015490818102918183041490151715610df157670de0b6b3a76400009004808511610de9575b610cdb85809261270a565b868082841115610dac575050610cf09161270a565b9260018060a01b0380600c840154169360101c16915b84610d55575b5060405194855260018060a01b038093169085015216604083015260608201527facd714992b6b1ae04abe5ba4df2f263d100bda41bc2055b2745692aeaad35bb560803392a280f35b6002610da6910160018060a01b0381610d75888380955416893091612824565b5460405163a9059cbb60e01b8682015292861660248401526044808401899052835216610da182612334565b612878565b5f610d0c565b83831115610ddb57505090610dc09161270a565b9260018060a01b03809360101c1692600c8301541691610d06565b939592509350508593610d06565b935083610cd0565b634e487b7160e01b86526011600452602486fd5b60405162461bcd60e51b8152600481018590526011602482015270105b1c9958591e48195e195c98da5cd959607a1b6044820152606490fd5b50346102a95760203660031901126102a957604090610e5b612241565b816102008451610e6a816122e2565b8281528260208201528286820152606080820152606060808201528260a08201528260c08201528260e08201528261010082015282610120820152826101408201528261016082015282610180820152826101a0820152826101c082015260606101e0820152015260018060a01b0316815260066020522060ff600e60405192610ef3846122e2565b80546001600160a01b0390811685526001820154811660208601526002820154166040850152610f2560038201612370565b6060850152610f3660048201612370565b6080850152600581015460a0850152600681015460c0850152600781015460e08501526008808201546101008601526009820154610120860152600a820154610140860152600b82015484811615156101608701529081901c8416151561018086015260101c6001600160a01b039081166101a0860152600c820154166101c0850152610fc5600d8201612370565b6101e085015201541661020082015260405180916020825260018060a01b03815116602083015260018060a01b03602082015116604083015260018060a01b03604082015116606083015260ff6102006110e961104c61103660608601516102206080890152610240880190612411565b6080860151878203601f190160a0890152612411565b60a085015160c087015260c085015160e087015260e0850151610100870152610100850151610120870152610120850151610140870152610140850151610160870152610160850151151561018087015261018085015115156101a087015260018060a01b036101a0860151166101c087015260018060a01b036101c0860151166101e08701526101e0850151601f198783030184880152612411565b920151166102208301520390f35b50346102a9576101803660031901126102a957611112612241565b61111a612257565b6044356001600160401b038111610baa5761113990369060040161246a565b906064356001600160401b038111610ba65761115990369060040161246a565b9061116261226d565b9261116b6124b0565b9261117860a435156124c0565b86546001600160a01b0316801561194657611192906127be565b90841561193f576001955b6001600160a01b038316968990883b15610c095789906111db886040519586948594631c49bc6760e01b8652898c3095608435943360048b0161250c565b0381838b5af1801561193457611921575b50853b156118ed576040516314e4514760e11b815261014435600482015261016435602482015288908181604481838c5af18015610b085761190d575b505084156118f15761124860e43583336001600160a01b038816612824565b853b156118ed5760405163a65e2cfd60e01b815260e435600482015261012435602482015288908181604481838c5af18015610b08576118d9575b50506112976112918361272b565b92612580565b858852600360205260408820805460ff1916600117905584156118bb5785885260046020526040882080546001600160a01b031916331790555b84156118b45733925b85156118ad5788945b604051986112f08a6122e2565b888a5260018060a01b031660208a015260018060a01b031660408901526060880152608087015260a086015260843560c08601528560e0860152856101008601528561012086015285610140860152856101608601528561018086015260018060a01b03166101a085015260018060a01b03166101c0840152604051611375816122fe565b600f81526e53696e75736f6964616c47656e696560881b60208201526101e0840152836102008401528184526006602052604084209260018060a01b038151166001600160601b0360a01b8554161784556001840160018060a01b036020830151166001600160601b0360a01b8254161790556002840160018060a01b036040830151166001600160601b0360a01b82541617905560608101518051906001600160401b03821161091e57819061142f6003880154612283565b601f811161185d575b50602090601f83116001146117ef5788926117e4575b50508160011b915f199060031b1c19161760038501555b60808101518051906001600160401b03821161091e57819061148a6004880154612283565b601f8111611794575b50602090601f831160011461172657889261171b575b50508160011b915f199060031b1c19161760048501555b60a0810151600585015560c0810151600685015560e0810151600785015561010081015160088501556101208101516009850155610140810151600a850155611567600b85016115236101608401511515829060ff801983541691151516179055565b610180830151815461ff00191690151560081b61ff00161781556101a0830151815462010000600160b01b03191660109190911b62010000600160b01b0316179055565b600c840160018060a01b036101c0830151166001600160601b0360a01b8254161790556101e08101518051906001600160401b03821161091e576115ae600d870154612283565b601f81116116d7575b50956020968791601f841160011461166457968360ff9461020094600e948a9b92611659575b50508160011b915f199060031b1c191617600d8201555b019201511660ff19825416179055604051901515815260e4358482015260843560408201526101443560608201526101643560808201527f1c379902a14ea9ddaf85d4876e6dc42a79e581b1196d67ca4a1489b4287fac5b60a03392a3604051908152f35b015190505f806115dd565b9190600d88018352888320925b601f19851681106116c057509660018461020094600e948a9b60ff98601f198116106116a8575b505050811b01600d8201556115f4565b01515f1960f88460031b161c191690555f8080611698565b919289600181928685015181550194019201611671565b600d8701885260208820601f840160051c810160208510611714575b601f830160051c820181106117095750506115b7565b8981556001016116f3565b50806116f3565b015190505f806114a9565b9250600487018852602088209088935b601f1984168510611779576001945083601f19811610611761575b505050811b0160048501556114c0565b01515f1960f88460031b161c191690555f8080611751565b81810151835560209485019460019093019290910190611736565b90915060048701885260208820601f840160051c8101602085106117dd575b90849392915b601f830160051c820181106117cf575050611493565b8a81558594506001016117b9565b50806117b3565b015190505f8061144e565b9250600387018852602088209088935b601f1984168510611842576001945083601f1981161061182a575b505050811b016003850155611465565b01515f1960f88460031b161c191690555f808061181a565b818101518355602094850194600190930192909101906117ff565b90915060038701885260208820601f840160051c8101602085106118a6575b90849392915b601f830160051c82018110611898575050611438565b8a8155859450600101611882565b508061187c565b33946112e3565b87926112da565b60056020526040882080546001600160a01b031916331790556112d1565b6118e2906122bb565b6118ed57875f611283565b8780fd5b61190860843583336001600160a01b038b16612824565b611248565b611916906122bb565b6118ed57875f611229565b61192d909891986122bb565b965f6111ec565b6040513d8b823e3d90fd5b879561119d565b60405162461bcd60e51b815260206004820152601760248201527f53696e75736f6964616c20696d706c206e6f74207365740000000000000000006044820152606490fd5b50346102a95760403660031901126102a9576119a5612241565b6001600160a01b038181168084526003602090815260408520546119cb9060ff166125fc565b6024906119d98235156124c0565b8286526006815260408620600b810185815460101c161590600c8301918783541615908080159182611d3c575b15611d065780611cfe575b15611cb0575050805462010000600160b01b0319163360101b62010000600160b01b03161781555b888060405186810190637863146960e11b82523389820152888152611a5d81612319565b5190828c5af1611a6b612638565b5015611c77578880604051868101906307bfce3760e01b825260048152611a91816122fe565b5190828c5af1611a9f612638565b9015611c4357611ab88186808b94518301019101612667565b16968980604051878101906338bea4cb60e01b825260048152611ada816122fe565b5190828d5af1611ae8612638565b9015611c0e578a91611b038288808695518301019101612667565b169960405182888201916370c264df60e11b835260048152611b24816122fe565b51925af194611b31612638565b9515611bd957508385805181010312611bd55793830151845462010000600160b01b031916601088901b62010000600160b01b0316179094557f7b9394d6d160dff61ec1e8e7f6a77d3991f6d641d32477bc257a2c60f72fe41b939182906008906001600160601b0360a01b938a8582541617905501558488526004835260408820868282541617905560058352866040892091825416179055604051908152a480f35b8880fd5b84600f6064926040519262461bcd60e51b845260048401528201526e195e1c1a5c9e4a0a4819985a5b1959608a1b6044820152fd5b60405162461bcd60e51b815260048101879052600e818901526d1cda1bdc9d0a0a4819985a5b195960921b6044820152606490fd5b60405162461bcd60e51b815260048101869052600d818801526c1b1bdb99ca0a4819985a5b1959609a1b6044820152606490fd5b60405162461bcd60e51b81526004810185905260128187015271195b9d195c905cd31bdb99c819985a5b195960721b6044820152606490fd5b81611cf6575b5015611cd15781546001600160a01b03191633178255611a39565b805462010000600160b01b0319163360101b62010000600160b01b0316178155611a39565b90505f611cb6565b508115611a11565b60405162461bcd60e51b815260048101889052600f818a01526e105b1c9958591e48195b9d195c9959608a1b6044820152606490fd5b5082611a06565b50346102a95760203660031901126102a9576020906001600160a01b039060409082611d6d612241565b16815260048452205416604051908152f35b50346102a957806003193601126102a95760405180916002549081835260208093018092600283527f405787fa12a823e0f2b7631cc41b3ba8828b3321ca811111fa75cd3aa3bb5ace90835b818110611e285750505084611de191038561234f565b60405193838594850191818652518092526040850193925b828110611e0857505050500390f35b83516001600160a01b031685528695509381019392810192600101611df9565b82546001600160a01b031684529286019260019283019201611dcb565b50346102a95760203660031901126102a9576001600160a01b03611e67612241565b166001600160601b0360a01b600154161760015580f35b50346102a957806003193601126102a957546040516001600160a01b039091168152602090f35b50346102a95760203660031901126102a95760209060ff906040906001600160a01b03611ed0612241565b168152600384522054166040519015158152f35b50346102a957806003193601126102a9576001546040516001600160a01b039091168152602090f35b50346102a95760203660031901126102a9576001600160a01b03611f2f612241565b82546001600160a01b031916911617815580f35b50346102a95760203660031901126102a9576001600160a01b03611f65612241565b1681526006602052604090208054600182015460028301546001600160a01b0392831693918316921690611f9b60038201612370565b611fa760048301612370565b90600583015491600684015460078501546008860154600987015491600a88015493600b89015495600160a01b60019003600c8b01541697600d8b01611fec90612370565b9a600e015460ff169b6040519e8f9e8f9182526020820152604001528c6102206060819201528d0161201d91612411565b8c810360808e015261202e91612411565b60a08c019890985260c08b015260e08a015261010089015261012088015261014087015260ff8181161515610160880152600882901c16151561018087015260101c6001600160a01b03166101a08601526101c08501528381036101e085015261209791612411565b906102008301520390f35b50346102a957602080600319360112610c09576120bd612241565b6001600160a01b038181168085526003845260408520549091906120e39060ff166125fc565b81855260058452604085205416330361220b578391829182526006845260408220600b810160ff815460081c161561218a575b5050604051828582019163fc772c8b60e01b83523360248201526024815261213d81612319565b51925af1612149612638565b5015612153575080f35b6064906040519062461bcd60e51b82526004820152601060248201526f1c9958db185a5b4a0a4819985a5b195960821b6044820152fd5b9092806121af916040518881019063140870eb60e11b8252600481526101ed816122fe565b8380604051878101906335ee579f60e21b8252600481526121cf816122fe565b519082865af1926121e1610233612638565b8584805181010312610ba6576009868695015191015561010061ff00198254161790555f80612116565b60405162461bcd60e51b815260048101849052600e60248201526d139bdd08185d5d1a1bdc9a5e995960921b6044820152606490fd5b600435906001600160a01b038216820361026357565b602435906001600160a01b038216820361026357565b60c435906001600160a01b038216820361026357565b90600182811c921680156122b1575b602083101461229d57565b634e487b7160e01b5f52602260045260245ffd5b91607f1691612292565b6001600160401b0381116122ce57604052565b634e487b7160e01b5f52604160045260245ffd5b61022081019081106001600160401b038211176122ce57604052565b604081019081106001600160401b038211176122ce57604052565b606081019081106001600160401b038211176122ce57604052565b608081019081106001600160401b038211176122ce57604052565b90601f801991011681019081106001600160401b038211176122ce57604052565b9060405191825f82549261238384612283565b9081845260019485811690815f146123ee57506001146123ae575b50506123ac9250038361234f565b565b909391505f52602090815f20935f915b8183106123d65750506123ac93508201015f8061239e565b855488840185015294850194879450918301916123be565b9150506123ac94506020925060ff191682840152151560051b8201015f8061239e565b91908251928382525f5b84811061243b575050825f602080949584010152601f8019910116010190565b60208183018101518483018201520161241b565b6001600160401b0381116122ce57601f01601f191660200190565b81601f82011215610263578035906124818261244f565b9261248f604051948561234f565b8284526020838301011161026357815f926020809301838601378301015290565b6101043590811515820361026357565b156124c757565b60405162461bcd60e51b815260206004820152601860248201527f47454e49453a207072656d69756d206d757374206265203000000000000000006044820152606490fd5b97926020969a999561255361012099949660ff94612561948d60018060a01b039c8d809c818096168452169101521660408d015260608c61014091829101528c0190612411565b908a820360808c0152612411565b991660a088015260c08701525f60e08701521661010085015216910152565b600254680100000000000000008110156122ce5760018101806002558110156125e85760025f527f405787fa12a823e0f2b7631cc41b3ba8828b3321ca811111fa75cd3aa3bb5ace0180546001600160a01b0319166001600160a01b03909216919091179055565b634e487b7160e01b5f52603260045260245ffd5b1561260357565b60405162461bcd60e51b815260206004820152600d60248201526c556e6b6e6f776e2047656e696560981b6044820152606490fd5b3d15612662573d906126498261244f565b91612657604051938461234f565b82523d5f602084013e565b606090565b9081602091031261026357516001600160a01b03811681036102635790565b1561268d57565b60405162461bcd60e51b815260206004820152601060248201526f1c995cdbdb1d994a0a4819985a5b195960821b6044820152606490fd5b156126cc57565b60405162461bcd60e51b81526020600482015260166024820152751c1c9a58d9505d115e1c1a5c9e4a0a4819985a5b195960521b6044820152606490fd5b9190820391821161271757565b634e487b7160e01b5f52601160045260245ffd5b5f8091604051602081019063c52987cf60e01b82526004815261274d816122fe565b51915afa612759612638565b90806127b3575b1561277957602081805181010312610263576020015190565b60405162461bcd60e51b81526020600482015260126024820152711c995859081cdd1c9a5ad94819985a5b195960721b6044820152606490fd5b506020815114612760565b6e5af43d82803e903d91602b57fd5bf390763d602d80600a3d3981f3363d3d373d3d3d363d7300000062ffffff8260881c16175f5260781b17602052603760095ff0906001600160a01b0382161561281257565b6040516330be1a3d60e21b8152600490fd5b6040516323b872dd60e01b60208201526001600160a01b03928316602482015292909116604483015260648083019390935291815260a08101918183106001600160401b038411176122ce576123ac926040525b60018060a01b0316906128a15f80836020829551910182875af161289a612638565b90846128f9565b9081519182151592836128d1575b5050506128b95750565b60249060405190635274afe760e01b82526004820152fd5b819293509060209181010312610c095760200151908115918215036102a957505f80806128af565b90612920575080511561290e57805190602001fd5b604051630a12f52160e11b8152600490fd5b81511580612953575b612931575090565b604051639996b31560e01b81526001600160a01b039091166004820152602490fd5b50803b1561292956fea26469706673582212208fbd7a8c8170478677d78bfb93b094236e70502f735bb641e3d414f44c1948d464736f6c63430008140033","linkReferences":{}},"methodIdentifiers":{"createAndFundPolynomialGenie(address,address,string,string,uint256,uint256,address,uint256,bool,uint256,uint256)":"fc6fe915","createAndFundSinusoidalGenie(address,address,string,string,uint256,uint256,address,uint256,bool,uint256,uint256,uint256)":"caec4fde","enterAndPayPremium(address,uint256)":"c2041ecd","genieContracts(uint256)":"eb2c071f","genieMetadata(address)":"2ba9700a","getAllGenies()":"bedcdfb1","getGenieMeta(address)":"cf0ad989","isKnownGenieClone(address)":"93e99af6","longPosition(address)":"c151446d","notifyExercised(uint256)":"d3dc5819","polynomialGenieImpl()":"7c476984","resolveAndExercise(address,uint256)":"ffd29b22","resolveAndReclaim(address)":"1eb11b31","setPolynomialImpl(address)":"9dd70b93","setSinusoidalImpl(address)":"5d7ec17f","shortPosition(address)":"d4961e47","sinusoidalGenieImpl()":"9877caaa"},"id":0}