{"abi":[{"type":"function","name":"MAX_POWER","inputs":[],"outputs":[{"name":"","type":"uint8","internalType":"uint8"}],"stateMutability":"view"},{"type":"function","name":"enterAsLong","inputs":[{"name":"realLong","type":"address","internalType":"address"}],"outputs":[],"stateMutability":"nonpayable"},{"type":"function","name":"exercise","inputs":[{"name":"","type":"uint256","internalType":"uint256"},{"name":"realLong","type":"address","internalType":"address"}],"outputs":[],"stateMutability":"nonpayable"},{"type":"function","name":"expiry","inputs":[],"outputs":[{"name":"","type":"uint256","internalType":"uint256"}],"stateMutability":"view"},{"type":"function","name":"fund","inputs":[{"name":"strikeNotional","type":"uint256","internalType":"uint256"},{"name":"expirySeconds","type":"uint256","internalType":"uint256"}],"outputs":[],"stateMutability":"nonpayable"},{"type":"function","name":"futureType","inputs":[],"outputs":[{"name":"","type":"string","internalType":"string"}],"stateMutability":"view"},{"type":"function","name":"futuresBook","inputs":[],"outputs":[{"name":"","type":"address","internalType":"address"}],"stateMutability":"view"},{"type":"function","name":"getOracleAddress","inputs":[],"outputs":[{"name":"","type":"address","internalType":"address"}],"stateMutability":"view"},{"type":"function","name":"initialize","inputs":[{"name":"_short","type":"address","internalType":"address"},{"name":"_underlyingToken","type":"address","internalType":"address"},{"name":"_strikeToken","type":"address","internalType":"address"},{"name":"_underlyingSymbol","type":"string","internalType":"string"},{"name":"_strikeSymbol","type":"string","internalType":"string"},{"name":"_sideFlag","type":"uint256","internalType":"uint256"},{"name":"_positionSize","type":"uint256","internalType":"uint256"},{"name":"_premiumMustBeZero","type":"uint256","internalType":"uint256"},{"name":"_oracle","type":"address","internalType":"address"},{"name":"_futuresBook","type":"address","internalType":"address"}],"outputs":[],"stateMutability":"nonpayable"},{"type":"function","name":"isActive","inputs":[],"outputs":[{"name":"","type":"bool","internalType":"bool"}],"stateMutability":"view"},{"type":"function","name":"isExercised","inputs":[],"outputs":[{"name":"","type":"bool","internalType":"bool"}],"stateMutability":"view"},{"type":"function","name":"isFunded","inputs":[],"outputs":[{"name":"","type":"bool","internalType":"bool"}],"stateMutability":"view"},{"type":"function","name":"isResolved","inputs":[],"outputs":[{"name":"","type":"bool","internalType":"bool"}],"stateMutability":"view"},{"type":"function","name":"long","inputs":[],"outputs":[{"name":"","type":"address","internalType":"address"}],"stateMutability":"view"},{"type":"function","name":"maker","inputs":[],"outputs":[{"name":"","type":"address","internalType":"address"}],"stateMutability":"view"},{"type":"function","name":"makerExpirySeconds","inputs":[],"outputs":[{"name":"","type":"uint256","internalType":"uint256"}],"stateMutability":"view"},{"type":"function","name":"oracle","inputs":[],"outputs":[{"name":"","type":"address","internalType":"contract SimuOracle"}],"stateMutability":"view"},{"type":"function","name":"payoffPower","inputs":[],"outputs":[{"name":"","type":"uint8","internalType":"uint8"}],"stateMutability":"view"},{"type":"function","name":"positionSize","inputs":[],"outputs":[{"name":"","type":"uint256","internalType":"uint256"}],"stateMutability":"view"},{"type":"function","name":"premium","inputs":[],"outputs":[{"name":"","type":"uint256","internalType":"uint256"}],"stateMutability":"view"},{"type":"function","name":"priceAtExpiry","inputs":[],"outputs":[{"name":"","type":"uint256","internalType":"uint256"}],"stateMutability":"view"},{"type":"function","name":"reclaim","inputs":[{"name":"realShort","type":"address","internalType":"address"}],"outputs":[],"stateMutability":"nonpayable"},{"type":"function","name":"resolve","inputs":[],"outputs":[],"stateMutability":"nonpayable"},{"type":"function","name":"setPayoffPower","inputs":[{"name":"_power","type":"uint8","internalType":"uint8"}],"outputs":[],"stateMutability":"nonpayable"},{"type":"function","name":"short","inputs":[],"outputs":[{"name":"","type":"address","internalType":"address"}],"stateMutability":"view"},{"type":"function","name":"strikePrice","inputs":[],"outputs":[{"name":"","type":"uint256","internalType":"uint256"}],"stateMutability":"view"},{"type":"function","name":"strikeSymbol","inputs":[],"outputs":[{"name":"","type":"string","internalType":"string"}],"stateMutability":"view"},{"type":"function","name":"strikeToken","inputs":[],"outputs":[{"name":"","type":"address","internalType":"contract IERC20"}],"stateMutability":"view"},{"type":"function","name":"underlyingSymbol","inputs":[],"outputs":[{"name":"","type":"string","internalType":"string"}],"stateMutability":"view"},{"type":"function","name":"underlyingToken","inputs":[],"outputs":[{"name":"","type":"address","internalType":"contract IERC20"}],"stateMutability":"view"},{"type":"event","name":"FundingRefunded","inputs":[{"name":"maker","type":"address","indexed":true,"internalType":"address"},{"name":"token","type":"address","indexed":false,"internalType":"address"},{"name":"amount","type":"uint256","indexed":false,"internalType":"uint256"}],"anonymous":false},{"type":"event","name":"FutureActivated","inputs":[{"name":"long","type":"address","indexed":true,"internalType":"address"},{"name":"premiumPaid","type":"uint256","indexed":false,"internalType":"uint256"},{"name":"expiry","type":"uint256","indexed":false,"internalType":"uint256"}],"anonymous":false},{"type":"event","name":"FutureCreated","inputs":[{"name":"maker","type":"address","indexed":true,"internalType":"address"}],"anonymous":false},{"type":"event","name":"FutureExpiredUnused","inputs":[{"name":"short","type":"address","indexed":true,"internalType":"address"}],"anonymous":false},{"type":"event","name":"FutureFunded","inputs":[{"name":"maker","type":"address","indexed":true,"internalType":"address"},{"name":"positionSize","type":"uint256","indexed":false,"internalType":"uint256"}],"anonymous":false},{"type":"event","name":"FutureSettled","inputs":[{"name":"long","type":"address","indexed":true,"internalType":"address"},{"name":"pnlPaid","type":"uint256","indexed":false,"internalType":"uint256"},{"name":"sameAsPnl","type":"uint256","indexed":false,"internalType":"uint256"}],"anonymous":false},{"type":"event","name":"PayoffPowerSet","inputs":[{"name":"power","type":"uint8","indexed":false,"internalType":"uint8"}],"anonymous":false},{"type":"event","name":"PriceResolved","inputs":[{"name":"underlyingSymbol","type":"string","indexed":false,"internalType":"string"},{"name":"strikeSymbol","type":"string","indexed":false,"internalType":"string"},{"name":"priceAtExpiry","type":"uint256","indexed":false,"internalType":"uint256"},{"name":"resolvedAt","type":"uint256","indexed":false,"internalType":"uint256"}],"anonymous":false},{"type":"error","name":"AddressEmptyCode","inputs":[{"name":"target","type":"address","internalType":"address"}]},{"type":"error","name":"AddressInsufficientBalance","inputs":[{"name":"account","type":"address","internalType":"address"}]},{"type":"error","name":"FailedInnerCall","inputs":[]},{"type":"error","name":"SafeERC20FailedOperation","inputs":[{"name":"token","type":"address","internalType":"address"}]}],"bytecode":{"object":"0x608080604052346100255761010061ff0019600f541617600f55611db0908161002a8239f35b5f80fdfe608060408181526004361015610013575f80fd5b5f91823560e01c90816307bfce37146115dc575080631b6b7298146113605780631c49bc6714610df257806322f3e2d414610dcf5780632495a59914610da75780632810e1d614610aeb57806338bea4cb14610ac457806345c820af14610a9c57806350655d8c14610a7057806352c65d3d146109fc578063660e3592146109e157806366eaf2c1146108c15780637c6543031461089b5780637dc0d1d0146104e457806384f523ad1461087d578063889533221461085f5780638c3199a51461083757806392fe281a14610811578063a65e2cfd14610510578063b18b78dd146104e4578063c1300a17146104c0578063c52987cf146104a2578063d7b95e7c14610484578063d90a730e1461044b578063dbb3f53714610428578063e0a73a931461040a578063e184c9be146103ec578063f0c628d214610276578063f262b36d146102525763fc772c8b14610169575f80fd5b3461024e57602036600319011261024e57610182611617565b60025490916001600160a01b039161019d908316331461182f565b600b54916101ad60ff84166118d3565b6101bb600a5442101561190c565b6101cb60ff8460081c1615611944565b808554169316928303610214575061ff00191661010017600b556101ed611991565b7ffaaabf0894f388e92b9bf0de644395567da49d23ba2661955bc7bf23d4d5eb018280a280f35b5162461bcd60e51b8152602060048201526014602482015273139bdd08185d5d1a1bdc9a5e9959081cda1bdc9d60621b6044820152606490fd5b5080fd5b503461024e578160031936011261024e5760209060ff600f5460081c169051908152f35b503461024e57602036600319011261024e57610290611617565b6002546001600160a01b039291906102ab908416331461182f565b600b5460ff8160101c16156103b75760ff1661038257600d5460101c60ff161561035a57828454916102df82841615611895565b16906001600160601b0360a01b161783555b600160ff19600b541617600b55600e5442019182421161034657907fe434930c7893705aec5441443b2d8cd63e9c0ba320a18bedf3fc5a8466e9caf69183600a5560015416928151908582526020820152a280f35b634e487b7160e01b84526011600452602484fd5b826001549161036b82841615611895565b16906001600160601b0360a01b16176001556102f1565b815162461bcd60e51b815260206004820152600e60248201526d416c72656164792061637469766560901b6044820152606490fd5b825162461bcd60e51b815260206004820152600e60248201526d139bdd08199d5b991959081e595d60921b6044820152606490fd5b503461024e578160031936011261024e57602090600a549051908152f35b503461024e578160031936011261024e576020906009549051908152f35b503461024e578160031936011261024e5760209060ff600d541690519015158152f35b503461024e578160031936011261024e578051610480916104768261046f81611730565b038361162d565b51918291826116b1565b0390f35b503461024e578160031936011261024e57602090600c549051908152f35b503461024e578160031936011261024e576020906007549051908152f35b503461024e578160031936011261024e578051610480916104768261046f816117be565b503461024e578160031936011261024e57600b54905160189190911c6001600160a01b03168152602090f35b503461024e578060031936011261024e576002546024916001600160a01b03916004359190843590610545908516331461182f565b600b549060ff8260101c166107dd5783156107a257801561076857600d549360ff8560101c165f146106bc5786602087600454168651928380926370a0823160e01b82523060048301525afa9081156106b2579082918a9161067a575b5003610637575b670de0b6b3a764000080820291820403610624576008549687156106115750869004600755600e5562ff000019166201000017600b555192835260181c16907f7bbd832c62ba43aeb8eacd4bb63a4e1f09c87347a6bb6c742580e8b598bd1f3790602090a280f35b634e487b7160e01b5f9081526012600452fd5b634e487b7160e01b885260116004528688fd5b835162461bcd60e51b8152602060048201526017818901527f4655543a2062616420737472696b652066756e64696e670000000000000000006044820152606490fd5b9150506020813d82116106aa575b816106956020938361162d565b810103126106a6578190515f6105a2565b5f80fd5b3d9150610688565b85513d8b823e3d90fd5b86602087600354168651928380926370a0823160e01b82523060048301525afa9081156106b2578991610737575b5060085411156105a957835162461bcd60e51b815260206004820152601b818901527f4655543a2062616420756e6465726c79696e672066756e64696e6700000000006044820152606490fd5b90506020813d8211610760575b816107516020938361162d565b810103126106a657515f6106ea565b3d9150610744565b825162461bcd60e51b8152602060048201526014818801527304655543a206578706972795365636f6e64733d360641b6044820152606490fd5b825162461bcd60e51b8152602060048201526015818801527404655543a20737472696b654e6f74696f6e616c3d3605c1b6044820152606490fd5b825162461bcd60e51b815260206004820152600e818801526d105b1c9958591e48199d5b99195960921b6044820152606490fd5b503461024e578160031936011261024e5760209060ff600b5460081c1690519015158152f35b503461024e578160031936011261024e5760045490516001600160a01b039091168152602090f35b503461024e578160031936011261024e57602090600e549051908152f35b503461024e578160031936011261024e576020906008549051908152f35b503461024e578160031936011261024e5760209060ff600b5460101c1690519015158152f35b503461024e57602036600319011261024e576004359060ff8216918281036109dd576108f860018060a01b0360025416331461182f565b600b5460ff8160101c161590816109d1575b50156109a257600183101580610997575b1561096357916020917f8232ad4210cb57b55938fc9cb5809fb50b45ed7d57bae06f043512374af9d83a9361ff00600f549160081b169061ff00191617600f5551908152a180f35b815162461bcd60e51b815260206004820152600d60248201526c24b73b30b634b2103837bbb2b960991b6044820152606490fd5b50606483111561091b565b815162461bcd60e51b8152602060048201526008602482015267546f6f206c61746560c01b6044820152606490fd5b60ff915016155f61090a565b8380fd5b503461024e578160031936011261024e576020905160648152f35b509034610a6d5780600319360112610a6d575080518181019181831067ffffffffffffffff841117610a59576104809281526014825273504f5745525f46494e4954455f4655545552455360601b602083015251918291826116b1565b634e487b7160e01b5f52604160045260245ffd5b80fd5b503461024e578160031936011261024e57600d54905160189190911c6001600160a01b03168152602090f35b503461024e578160031936011261024e5760025490516001600160a01b039091168152602090f35b503461024e578160031936011261024e57905490516001600160a01b039091168152602090f35b509034610a6d5760031991818336011261024e57600b5490610b0f60ff83166118d3565b610b1d600a5442101561190c565b600d549160ff8316610d785781519263861a210560e01b84528260048501525f60055492610b4a846116f8565b9788604488015260019485811690815f14610d555750600114610d10575b868098995083979697030160248601525f9160065490610b87826116f8565b918282528787821691825f14610cf0575050600114610ca7575b50602097889387939190039150829060181c6001600160a01b03165afa928315610c9d578693610c6e575b508215610c3a5791610c2a93917fa60f416ed7a87ce606d905a15dbcc035e8cc9278a0e64aeab945456776ba975a959382600c5560ff191617600d55815193849360808552610c1d60808601611730565b90858203908601526117be565b918301524260608301520390a180f35b835162461bcd60e51b815260048101869052600d60248201526c496e76616c696420707269636560981b6044820152606490fd5b9092508481813d8311610c96575b610c86818361162d565b810103126106a65751915f610bcc565b503d610c7c565b84513d88823e3d90fd5b60065f908152929350905f80516020611d5b8339815191525b818410610cd55750500160200190845f610ba1565b805460208585018101919091528a9850909301928601610cc0565b90949550602093915060ff191683830152151560051b010191905f610ba1565b915060055f525f80516020611d3b8339815191525f905b898210610d3f57509697508796860160640191610b68565b8581602092546064858c01015201910190610d27565b60ff191660648981019190915298998a9990151560051b8901019350610b689050565b815162461bcd60e51b815260206004820152600860248201526714995cdbdb1d995960c21b6044820152606490fd5b503461024e578160031936011261024e5760035490516001600160a01b039091168152602090f35b503461024e578160031936011261024e5760209060ff600b541690519015158152f35b509034610a6d57610140366003190112610a6d57610e0e611617565b610e16611601565b926044356001600160a01b038116908190036106a65760643567ffffffffffffffff811161135c57610e4c90369060040161166b565b9060843567ffffffffffffffff811161135857610e6d90369060040161166b565b95610104356001600160a01b03811690036106a65761012435936001600160a01b03851685036106a657600d549060ff8260081c1661131f5760e4356112e35760c435156112b2575086546001600160a01b03199081166001600160a01b0388811691909117895562ff0100600160b81b0319909216601888901b6301000000600160b81b03161761010017600d55600380548216939092169290921790556004805490911691909117905580519067ffffffffffffffff821161129e578190610f386005546116f8565b601f811161122f575b50602090601f83116001146111bb5786926111b0575b50508160011b915f199060031b1c1916176005555b835167ffffffffffffffff811161119c57610f886006546116f8565b601f811161114c575b506020601f82116001146110da578190859660ff9596926110cf575b50508160011b915f199060031b1c1916176006555b600d805462ff0000191660a4351515601090811b62ff000016919091179182905560c4356008556009869055600b80546301000000600160b81b0319166101043560181b6301000000600160b81b0316179055600280546001600160a01b0319166001600160a01b0390941693909317909255901c161561109f5760018060a01b03166001600160601b0360a01b60015416176001556001600160601b0360a01b81541681555b600d5460181c6001600160a01b03167f2447a5130f9e0acdbce8830900477e1bc578b69c95c87044d29a906048e6d4348280a280f35b60018060a01b03166001600160601b0360a01b8254161781556001600160601b0360a01b60015416600155611069565b015190505f80610fad565b600685525f80516020611d5b83398151915295601f198316865b81811061113457509160ff9596979184600195941061111c575b505050811b01600655610fc2565b01515f1960f88460031b161c191690555f808061110e565b838301518955600190980197602093840193016110f4565b600685525f80516020611d5b833981519152601f830160051c81019160208410611192575b601f0160051c01905b8181106111875750610f91565b85815560010161117a565b9091508190611171565b634e487b7160e01b84526041600452602484fd5b015190505f80610f57565b9250600586525f80516020611d3b8339815191529086935b601f1984168510611214576001945083601f198116106111fc575b505050811b01600555610f6c565b01515f1960f88460031b161c191690555f80806111ee565b818101518355602094850194600190930192909101906111d3565b90915060058652601f830160051c5f80516020611d3b833981519152016020841061128a575b908392915b601f820160051c5f80516020611d3b83398151915201811061127c5750610f41565b87815584935060010161125a565b505f80516020611d3b833981519152611255565b634e487b7160e01b85526041600452602485fd5b5162461bcd60e51b815260206004820152600b60248201526a04655543a2073697a653d360ac1b6044820152606490fd5b5162461bcd60e51b815260206004820152601660248201527504655543a207072656d69756d206d75737420626520360541b6044820152606490fd5b5162461bcd60e51b8152602060048201526013602482015272105b1c9958591e481a5b9a5d1a585b1a5e9959606a1b6044820152606490fd5b8580fd5b8480fd5b503461024e578060031936011261024e57611379611601565b9060018060a01b036113908160025416331461182f565b600b54906113a060ff83166118d3565b6113ae600a5442101561190c565b6113be60ff8360081c1615611944565b60ff600d5416156115a957808060015416941693840361156f57600754600c5481151580611566575b156115355786929190818111156114fe5761142c61142361141461010094670de0b6b3a764000094611984565b60ff600f5460081c1690611b89565b6008549061186e565b04935b61ff00191617600b55611440611991565b60025416803b1561024e578190602485518094819363d3dc581960e01b83528760048401525af180156114f4576114a5575b50907f427069c8cccc1e9a4db47d472ff349ab88b09f7f3b06dc64e1f0f54e2de080d1918151908082526020820152a280f35b67ffffffffffffffff81959295116114e0578252927f427069c8cccc1e9a4db47d472ff349ab88b09f7f3b06dc64e1f0f54e2de080d1611472565b634e487b7160e01b82526041600452602482fd5b83513d87823e3d90fd5b8181101561152957611522611423611414670de0b6b3a76400009361010095611984565b049361142f565b5050610100829361142f565b845162461bcd60e51b815260206004820152600a6024820152694261642070726963657360b01b6044820152606490fd5b508015156113e7565b825162461bcd60e51b81526020600482015260136024820152724e6f7420617574686f72697a6564206c6f6e6760681b6044820152606490fd5b825162461bcd60e51b815260206004820152600c60248201526b139bdd081c995cdbdb1d995960a21b6044820152606490fd5b83903461024e578160031936011261024e576001546001600160a01b03168152602090f35b602435906001600160a01b03821682036106a657565b600435906001600160a01b03821682036106a657565b90601f8019910116810190811067ffffffffffffffff821117610a5957604052565b67ffffffffffffffff8111610a5957601f01601f191660200190565b81601f820112156106a6578035906116828261164f565b92611690604051948561162d565b828452602083830101116106a657815f926020809301838601378301015290565b602080825282518183018190529093925f5b8281106116e457505060409293505f838284010152601f8019910116010190565b8181018601518482016040015285016116c3565b90600182811c92168015611726575b602083101461171257565b634e487b7160e01b5f52602260045260245ffd5b91607f1691611707565b6005545f929161173f826116f8565b808252916001908181169081156117a1575060011461175d57505050565b9192935060055f525f80516020611d3b833981519152915f925b84841061178957505060209250010190565b80546020858501810191909152909301928101611777565b915050602093945060ff929192191683830152151560051b010190565b6006545f92916117cd826116f8565b808252916001908181169081156117a157506001146117eb57505050565b9192935060065f525f80516020611d5b833981519152915f925b84841061181757505060209250010190565b80546020858501810191909152909301928101611805565b1561183657565b60405162461bcd60e51b815260206004820152601060248201526f4f6e6c792046757475726573426f6f6b60801b6044820152606490fd5b8181029291811591840414171561188157565b634e487b7160e01b5f52601160045260245ffd5b1561189c57565b60405162461bcd60e51b815260206004820152600f60248201526e105b1c9958591e48195b9d195c9959608a1b6044820152606490fd5b156118da57565b60405162461bcd60e51b815260206004820152600a6024820152694e6f742061637469766560b01b6044820152606490fd5b1561191357565b60405162461bcd60e51b8152602060048201526009602482015268546f6f206561726c7960b81b6044820152606490fd5b1561194b57565b60405162461bcd60e51b8152602060048201526011602482015270105b1c9958591e48195e195c98da5cd959607a1b6044820152606490fd5b9190820391821161188157565b600f5460ff8116611b865760ff1916600117600f55600d54601081901c60ff1615611a9e575060018060a01b0380600454166040516370a0823160e01b8152306004820152602081602481855afa908115611a93575f91611a62575b50806119f857505050565b611a2c817fa7d2bc2d53b8added70ccf0bad7e8eb9dbb4703f2928383a5b2d8b264f6ed2629385600d5460181c1690611bf6565b82600d5460181c169260045416611a5d6040519283928360209093929193604081019460018060a01b031681520152565b0390a2565b906020823d8211611a8b575b81611a7b6020938361162d565b81010312610a6d5750515f6119ed565b3d9150611a6e565b6040513d5f823e3d90fd5b6003546040516370a0823160e01b81523060048201526001600160a01b0392918316602082602481845afa918215611a93575f92611b53575b5081611ae4575b50505050565b81611b1691857fa7d2bc2d53b8added70ccf0bad7e8eb9dbb4703f2928383a5b2d8b264f6ed2629560181c1690611bf6565b82600d5460181c169260035416611b476040519283928360209093929193604081019460018060a01b031681520152565b0390a25f808080611ade565b90916020823d8211611b7e575b81611b6d6020938361162d565b81010312610a6d575051905f611ad7565b3d9150611b60565b50565b9060019060ff908116828114611bf057829190845b8183861610611baf57505050505090565b9091670de0b6b3a7640000611bc7838396979861186e565b049516838114611bdc57840193929190611b9e565b60245f634e487b7160e01b81526011600452fd5b50505090565b60405163a9059cbb60e01b602082019081526001600160a01b03939093166024820152604480820194909452928352611c7790611c3460648561162d565b60018060a01b0316925f80938192519082875af13d15611ccf573d90611c598261164f565b91611c67604051938461162d565b82523d84602084013e5b84611cd7565b908151918215159283611ca7575b505050611c8f5750565b60249060405190635274afe760e01b82526004820152fd5b81929350906020918101031261024e576020015190811591821503610a6d57505f8080611c85565b606090611c71565b90611cfe5750805115611cec57805190602001fd5b604051630a12f52160e11b8152600490fd5b81511580611d31575b611d0f575090565b604051639996b31560e01b81526001600160a01b039091166004820152602490fd5b50803b15611d0756fe036b6384b5eca791c62761152d0c79bb0604c104a5fb6f4eb0703f3154bb3db0f652222313e28459528d920b65115c16c04f3efc82aaedc97be59f3f377c0d3fa26469706673582212205a5034f159850a334cfcb6a7049b1d598cd85e3e6d458e0946a9c1d951520dc764736f6c63430008140033","linkReferences":{}},"methodIdentifiers":{"MAX_POWER()":"660e3592","enterAsLong(address)":"f0c628d2","exercise(uint256,address)":"1b6b7298","expiry()":"e184c9be","fund(uint256,uint256)":"a65e2cfd","futureType()":"52c65d3d","futuresBook()":"45c820af","getOracleAddress()":"b18b78dd","initialize(address,address,address,string,string,uint256,uint256,uint256,address,address)":"1c49bc67","isActive()":"22f3e2d4","isExercised()":"92fe281a","isFunded()":"7c654303","isResolved()":"dbb3f537","long()":"07bfce37","maker()":"50655d8c","makerExpirySeconds()":"88953322","oracle()":"7dc0d1d0","payoffPower()":"f262b36d","positionSize()":"84f523ad","premium()":"e0a73a93","priceAtExpiry()":"d7b95e7c","reclaim(address)":"fc772c8b","resolve()":"2810e1d6","setPayoffPower(uint8)":"66eaf2c1","short()":"38bea4cb","strikePrice()":"c52987cf","strikeSymbol()":"c1300a17","strikeToken()":"8c3199a5","underlyingSymbol()":"d90a730e","underlyingToken()":"2495a599"},"id":2}