{"abi":[{"type":"function","name":"MAX_INTENSITY_1E18","inputs":[],"outputs":[{"name":"","type":"uint256","internalType":"uint256"}],"stateMutability":"view"},{"type":"function","name":"enterAsLong","inputs":[{"name":"realLong","type":"address","internalType":"address"}],"outputs":[],"stateMutability":"nonpayable"},{"type":"function","name":"exercise","inputs":[{"name":"","type":"uint256","internalType":"uint256"},{"name":"realLong","type":"address","internalType":"address"}],"outputs":[],"stateMutability":"nonpayable"},{"type":"function","name":"expiry","inputs":[],"outputs":[{"name":"","type":"uint256","internalType":"uint256"}],"stateMutability":"view"},{"type":"function","name":"fund","inputs":[{"name":"strikeNotional","type":"uint256","internalType":"uint256"},{"name":"expirySeconds","type":"uint256","internalType":"uint256"}],"outputs":[],"stateMutability":"nonpayable"},{"type":"function","name":"futureType","inputs":[],"outputs":[{"name":"","type":"string","internalType":"string"}],"stateMutability":"view"},{"type":"function","name":"futuresBook","inputs":[],"outputs":[{"name":"","type":"address","internalType":"address"}],"stateMutability":"view"},{"type":"function","name":"getOracleAddress","inputs":[],"outputs":[{"name":"","type":"address","internalType":"address"}],"stateMutability":"view"},{"type":"function","name":"initialize","inputs":[{"name":"_short","type":"address","internalType":"address"},{"name":"_underlyingToken","type":"address","internalType":"address"},{"name":"_strikeToken","type":"address","internalType":"address"},{"name":"_underlyingSymbol","type":"string","internalType":"string"},{"name":"_strikeSymbol","type":"string","internalType":"string"},{"name":"_sideFlag","type":"uint256","internalType":"uint256"},{"name":"_positionSize","type":"uint256","internalType":"uint256"},{"name":"_premiumMustBeZero","type":"uint256","internalType":"uint256"},{"name":"_oracle","type":"address","internalType":"address"},{"name":"_futuresBook","type":"address","internalType":"address"}],"outputs":[],"stateMutability":"nonpayable"},{"type":"function","name":"isActive","inputs":[],"outputs":[{"name":"","type":"bool","internalType":"bool"}],"stateMutability":"view"},{"type":"function","name":"isExercised","inputs":[],"outputs":[{"name":"","type":"bool","internalType":"bool"}],"stateMutability":"view"},{"type":"function","name":"isFunded","inputs":[],"outputs":[{"name":"","type":"bool","internalType":"bool"}],"stateMutability":"view"},{"type":"function","name":"isResolved","inputs":[],"outputs":[{"name":"","type":"bool","internalType":"bool"}],"stateMutability":"view"},{"type":"function","name":"long","inputs":[],"outputs":[{"name":"","type":"address","internalType":"address"}],"stateMutability":"view"},{"type":"function","name":"maker","inputs":[],"outputs":[{"name":"","type":"address","internalType":"address"}],"stateMutability":"view"},{"type":"function","name":"makerExpirySeconds","inputs":[],"outputs":[{"name":"","type":"uint256","internalType":"uint256"}],"stateMutability":"view"},{"type":"function","name":"oracle","inputs":[],"outputs":[{"name":"","type":"address","internalType":"contract SimuOracle"}],"stateMutability":"view"},{"type":"function","name":"positionSize","inputs":[],"outputs":[{"name":"","type":"uint256","internalType":"uint256"}],"stateMutability":"view"},{"type":"function","name":"premium","inputs":[],"outputs":[{"name":"","type":"uint256","internalType":"uint256"}],"stateMutability":"view"},{"type":"function","name":"priceAtExpiry","inputs":[],"outputs":[{"name":"","type":"uint256","internalType":"uint256"}],"stateMutability":"view"},{"type":"function","name":"reclaim","inputs":[{"name":"realShort","type":"address","internalType":"address"}],"outputs":[],"stateMutability":"nonpayable"},{"type":"function","name":"resolve","inputs":[],"outputs":[],"stateMutability":"nonpayable"},{"type":"function","name":"setSigmoidIntensity","inputs":[{"name":"intensity1e18","type":"uint256","internalType":"uint256"}],"outputs":[],"stateMutability":"nonpayable"},{"type":"function","name":"short","inputs":[],"outputs":[{"name":"","type":"address","internalType":"address"}],"stateMutability":"view"},{"type":"function","name":"sigmoidIntensity1e18","inputs":[],"outputs":[{"name":"","type":"uint256","internalType":"uint256"}],"stateMutability":"view"},{"type":"function","name":"strikePrice","inputs":[],"outputs":[{"name":"","type":"uint256","internalType":"uint256"}],"stateMutability":"view"},{"type":"function","name":"strikeSymbol","inputs":[],"outputs":[{"name":"","type":"string","internalType":"string"}],"stateMutability":"view"},{"type":"function","name":"strikeToken","inputs":[],"outputs":[{"name":"","type":"address","internalType":"contract IERC20"}],"stateMutability":"view"},{"type":"function","name":"underlyingSymbol","inputs":[],"outputs":[{"name":"","type":"string","internalType":"string"}],"stateMutability":"view"},{"type":"function","name":"underlyingToken","inputs":[],"outputs":[{"name":"","type":"address","internalType":"contract IERC20"}],"stateMutability":"view"},{"type":"event","name":"FundingRefunded","inputs":[{"name":"maker","type":"address","indexed":true,"internalType":"address"},{"name":"token","type":"address","indexed":false,"internalType":"address"},{"name":"amount","type":"uint256","indexed":false,"internalType":"uint256"}],"anonymous":false},{"type":"event","name":"FutureActivated","inputs":[{"name":"long","type":"address","indexed":true,"internalType":"address"},{"name":"premiumPaid","type":"uint256","indexed":false,"internalType":"uint256"},{"name":"expiry","type":"uint256","indexed":false,"internalType":"uint256"}],"anonymous":false},{"type":"event","name":"FutureCreated","inputs":[{"name":"maker","type":"address","indexed":true,"internalType":"address"}],"anonymous":false},{"type":"event","name":"FutureExpiredUnused","inputs":[{"name":"short","type":"address","indexed":true,"internalType":"address"}],"anonymous":false},{"type":"event","name":"FutureFunded","inputs":[{"name":"maker","type":"address","indexed":true,"internalType":"address"},{"name":"positionSize","type":"uint256","indexed":false,"internalType":"uint256"}],"anonymous":false},{"type":"event","name":"FutureSettled","inputs":[{"name":"long","type":"address","indexed":true,"internalType":"address"},{"name":"pnlPaid","type":"uint256","indexed":false,"internalType":"uint256"},{"name":"sameAsPnl","type":"uint256","indexed":false,"internalType":"uint256"}],"anonymous":false},{"type":"event","name":"PriceResolved","inputs":[{"name":"underlyingSymbol","type":"string","indexed":false,"internalType":"string"},{"name":"strikeSymbol","type":"string","indexed":false,"internalType":"string"},{"name":"priceAtExpiry","type":"uint256","indexed":false,"internalType":"uint256"},{"name":"resolvedAt","type":"uint256","indexed":false,"internalType":"uint256"}],"anonymous":false},{"type":"event","name":"SigmoidIntensitySet","inputs":[{"name":"intensity1e18","type":"uint256","indexed":false,"internalType":"uint256"}],"anonymous":false},{"type":"error","name":"AddressEmptyCode","inputs":[{"name":"target","type":"address","internalType":"address"}]},{"type":"error","name":"AddressInsufficientBalance","inputs":[{"name":"account","type":"address","internalType":"address"}]},{"type":"error","name":"FailedInnerCall","inputs":[]},{"type":"error","name":"PRBMath_MulDiv_Overflow","inputs":[{"name":"x","type":"uint256","internalType":"uint256"},{"name":"y","type":"uint256","internalType":"uint256"},{"name":"denominator","type":"uint256","internalType":"uint256"}]},{"type":"error","name":"PRBMath_SD59x18_Div_InputTooSmall","inputs":[]},{"type":"error","name":"PRBMath_SD59x18_Div_Overflow","inputs":[{"name":"x","type":"int256","internalType":"SD59x18"},{"name":"y","type":"int256","internalType":"SD59x18"}]},{"type":"error","name":"PRBMath_SD59x18_Exp2_InputTooBig","inputs":[{"name":"x","type":"int256","internalType":"SD59x18"}]},{"type":"error","name":"PRBMath_SD59x18_Exp_InputTooBig","inputs":[{"name":"x","type":"int256","internalType":"SD59x18"}]},{"type":"error","name":"SafeERC20FailedOperation","inputs":[{"name":"token","type":"address","internalType":"address"}]}],"bytecode":{"object":"0x6080806040523461002257670de0b6b3a76400006010556125a290816100278239f35b5f80fdfe60806040908082526004361015610014575f80fd5b5f3560e01c90816307bfce3714611574575080631b6b7298146112085780631c49bc6714610cae57806322f3e2d414610c8b5780632495a59914610c635780632810e1d614610ac557806338bea4cb14610a9e57806345c820af14610a7657806350655d8c14610a4a57806352c65d3d146109d957806379c13657146109b65780637c654303146109905780637dc0d1d0146105de57806384f523ad1461097257806388953322146109545780638c3199a51461092c57806392fe281a14610906578063a65e2cfd1461060a578063b18b78dd146105de578063c1300a17146105ba578063c52987cf1461059c578063c848272c1461057e578063d690b66714610479578063d7b95e7c1461045b578063d90a730e14610422578063dbb3f537146103ff578063e0a73a93146103e1578063e184c9be146103c3578063f0c628d2146102505763fc772c8b14610168575f80fd5b3461024c57602036600319011261024c576101816115ad565b60025490916001600160a01b039161019c90831633146117d8565b600b54916101ac60ff8416611868565b6101ba600a544210156118a1565b6101ca60ff8460081c16156118d9565b805f54169316928303610212575061ff00191661010017600b556101ec611919565b7ffaaabf0894f388e92b9bf0de644395567da49d23ba2661955bc7bf23d4d5eb015f80a2005b5162461bcd60e51b8152602060048201526014602482015273139bdd08185d5d1a1bdc9a5e9959081cda1bdc9d60621b6044820152606490fd5b5f80fd5b503461024c57602036600319011261024c5761026a6115ad565b6002546001600160a01b03919061028490831633146117d8565b600b5460ff8160101c161561038e5760ff1661035957600d5460101c60ff161561033157815f54916102b88284161561182a565b16906001600160601b0360a01b16175f555b600160ff19600b541617600b55600e5442019182421161031d577fe434930c7893705aec5441443b2d8cd63e9c0ba320a18bedf3fc5a8466e9caf69183600a5560015416928151905f82526020820152a2005b634e487b7160e01b5f52601160045260245ffd5b81600154916103428284161561182a565b16906001600160601b0360a01b16176001556102ca565b825162461bcd60e51b815260206004820152600e60248201526d416c72656164792061637469766560901b6044820152606490fd5b835162461bcd60e51b815260206004820152600e60248201526d139bdd08199d5b991959081e595d60921b6044820152606490fd5b503461024c575f36600319011261024c57602090600a549051908152f35b503461024c575f36600319011261024c576020906009549051908152f35b503461024c575f36600319011261024c5760209060ff600d541690519015158152f35b503461024c575f36600319011261024c5780516104579161044d82610446816116c6565b03836115c3565b5191829182611647565b0390f35b503461024c575f36600319011261024c57602090600c549051908152f35b503461024c57602036600319011261024c57600435906104a460018060a01b036002541633146117d8565b600b5460ff8160101c16159081610572575b50156105445781151580610531575b156104fa57816020917f9bd8fafd8d26ef5854d389890421ed9f74bb67e628192237a309160edfc7e01d9360105551908152a1005b5162461bcd60e51b8152602060048201526011602482015270496e76616c696420696e74656e7369747960781b6044820152606490fd5b5068056bc75e2d631000008211156104c5565b5162461bcd60e51b8152602060048201526008602482015267546f6f206c61746560c01b6044820152606490fd5b60ff915016155f6104b6565b503461024c575f36600319011261024c576020906010549051908152f35b503461024c575f36600319011261024c576020906007549051908152f35b503461024c575f36600319011261024c5780516104579161044d8261044681611754565b503461024c575f36600319011261024c57600b54905160189190911c6001600160a01b03168152602090f35b503461024c578060031936011261024c576002546024916001600160a01b0391600435919084359061063f90851633146117d8565b600b549060ff8260101c166108d257831561089757801561085d57600d549360ff8560101c165f146107b15786602087600454168651928380926370a0823160e01b82523060048301525afa9081156107a7579082915f91610773575b5003610730575b670de0b6b3a76400008082029182040361071d5760085496871561070a5750869004600755600e5562ff000019166201000017600b555192835260181c16907f7bbd832c62ba43aeb8eacd4bb63a4e1f09c87347a6bb6c742580e8b598bd1f3790602090a2005b634e487b7160e01b5f9081526012600452fd5b86634e487b7160e01b5f5260116004525ffd5b835162461bcd60e51b8152602060048201526017818901527f4655543a2062616420737472696b652066756e64696e670000000000000000006044820152606490fd5b9150506020813d821161079f575b8161078e602093836115c3565b8101031261024c578190515f61069c565b3d9150610781565b85513d5f823e3d90fd5b86602087600354168651928380926370a0823160e01b82523060048301525afa9081156107a7575f9161082c575b5060085411156106a357835162461bcd60e51b815260206004820152601b818901527f4655543a2062616420756e6465726c79696e672066756e64696e6700000000006044820152606490fd5b90506020813d8211610855575b81610846602093836115c3565b8101031261024c57515f6107df565b3d9150610839565b825162461bcd60e51b8152602060048201526014818801527304655543a206578706972795365636f6e64733d360641b6044820152606490fd5b825162461bcd60e51b8152602060048201526015818801527404655543a20737472696b654e6f74696f6e616c3d3605c1b6044820152606490fd5b825162461bcd60e51b815260206004820152600e818801526d105b1c9958591e48199d5b99195960921b6044820152606490fd5b503461024c575f36600319011261024c5760209060ff600b5460081c1690519015158152f35b503461024c575f36600319011261024c5760045490516001600160a01b039091168152602090f35b503461024c575f36600319011261024c57602090600e549051908152f35b503461024c575f36600319011261024c576020906008549051908152f35b503461024c575f36600319011261024c5760209060ff600b5460101c1690519015158152f35b503461024c575f36600319011261024c576020905168056bc75e2d631000008152f35b503461024c575f36600319011261024c5780518181019181831067ffffffffffffffff841117610a365761045792815260168252755349474d4f49445f46494e4954455f4655545552455360501b60208301525191829182611647565b634e487b7160e01b5f52604160045260245ffd5b503461024c575f36600319011261024c57600d54905160189190911c6001600160a01b03168152602090f35b503461024c575f36600319011261024c5760025490516001600160a01b039091168152602090f35b503461024c575f36600319011261024c575f5490516001600160a01b039091168152602090f35b503461024c57600319905f3683011261024c57600b54610ae760ff8216611868565b610af5600a544210156118a1565b600d5460ff8116610c34578293610b3b9351809363861a210560e01b8252866004830152610b25604483016116c6565b9282840301602483015281806020978895611754565b039160181c6001600160a01b03165afa918215610c2a575f92610bfb575b508115610bc757928160017fa60f416ed7a87ce606d905a15dbcc035e8cc9278a0e64aeab945456776ba975a95610bb89594600c5560ff191617600d55815193849360808552610bab608086016116c6565b9085820390860152611754565b918301524260608301520390a1005b835162461bcd60e51b815260048101849052600d60248201526c496e76616c696420707269636560981b6044820152606490fd5b9091508281813d8311610c23575b610c1381836115c3565b8101031261024c5751905f610b59565b503d610c09565b84513d5f823e3d90fd5b825162461bcd60e51b815260206004820152600860248201526714995cdbdb1d995960c21b6044820152606490fd5b503461024c575f36600319011261024c5760035490516001600160a01b039091168152602090f35b503461024c575f36600319011261024c5760209060ff600b541690519015158152f35b503461024c5761014036600319011261024c57610cc96115ad565b610cd1611597565b6044356001600160a01b03811693919084900361024c5760643567ffffffffffffffff811161024c57610d08903690600401611601565b9360843567ffffffffffffffff811161024c57610d29903690600401611601565b91610104356001600160a01b038116900361024c5761012435936001600160a01b038516850361024c57600d549060ff8260081c166111cf5760e4356111935760c4351561116257505f80546001600160a01b03199081166001600160a01b038981169190911790925562ff0100600160b81b0319909216601888901b6301000000600160b81b03161761010017600d55600380548316939091169290921790915560048054909116919091179055835167ffffffffffffffff8111610a3657610df460055461168e565b601f81116110fe575b506020601f821160011461108d5781929394955f92611082575b50508160011b915f199060031b1c1916176005555b80519067ffffffffffffffff8211610a3657610e4960065461168e565b601f811161101f575b50602090601f8311600114610f995760ff9392915f9183610f8e575b50508160011b915f199060031b1c1916176006555b600d805462ff0000191660a4351515601090811b62ff000016919091179182905560c4356008555f600955600b80546301000000600160b81b0319166101043560181b6301000000600160b81b0316179055600280546001600160a01b0319166001600160a01b0390941693909317909255901c1615610f5e5760018060a01b03166001600160601b0360a01b60015416176001556001600160601b0360a01b5f54165f555b600d5460181c6001600160a01b03167f2447a5130f9e0acdbce8830900477e1bc578b69c95c87044d29a906048e6d4345f80a2005b60018060a01b03166001600160601b0360a01b5f5416175f556001600160601b0360a01b60015416600155610f29565b015190505f80610e6e565b90601f1983169160065f527ff652222313e28459528d920b65115c16c04f3efc82aaedc97be59f3f377c0d3f925f5b818110611007575091600193918560ff97969410610fef575b505050811b01600655610e83565b01515f1960f88460031b161c191690555f8080610fe1565b92936020600181928786015181550195019301610fc8565b60065f527ff652222313e28459528d920b65115c16c04f3efc82aaedc97be59f3f377c0d3f601f840160051c81019160208510611078575b601f0160051c01905b81811061106d5750610e52565b5f8155600101611060565b9091508190611057565b015190505f80610e17565b60055f525f8051602061254d833981519152905f5b601f19841681106110e6575060019394959683601f198116106110ce575b505050811b01600555610e2c565b01515f1960f88460031b161c191690555f80806110c0565b9091602060018192858b0151815501930191016110a2565b60055f52601f820160051c5f8051602061254d833981519152016020831061114e575b601f820160051c5f8051602061254d8339815191520181106111435750610dfd565b5f8155600101611121565b505f8051602061254d833981519152611121565b5162461bcd60e51b815260206004820152600b60248201526a04655543a2073697a653d360ac1b6044820152606490fd5b5162461bcd60e51b815260206004820152601660248201527504655543a207072656d69756d206d75737420626520360541b6044820152606490fd5b5162461bcd60e51b8152602060048201526013602482015272105b1c9958591e481a5b9a5d1a585b1a5e9959606a1b6044820152606490fd5b503461024c578060031936011261024c57611221611597565b60025490916001600160a01b039161123c90831633146117d8565b600b549161124c60ff8416611868565b61125a600a544210156118a1565b61126a60ff8460081c16156118d9565b60ff600d54161561154157808060015416941693840361150757600754600c5490801515806114fe575b156114cd57670de0b6b3a764000090816112b060085483611817565b0492601054905f838203931281841281169184139015161761031d57600160ff1b9181810291905f82128482141661031d57818305149015171561031d5782900581811461031d57611303905f03611c76565b8083019181831260011661031d5782146114bc575f8212156114b5575f03670de0b6b3a763ffff19015b80156114a1576ec097ce7bc90715b34b9f100000000004906001600160ff1b038211611484575f19908318131561147d575b6706f05b59d3b2000080821061145e57506706f05b59d3b1ffff19810190811161031d575b8060011b908082046002149015171561031d57610100926113a491611817565b049361ff00191617600b556113b7611919565b6002541691823b1561024c575f8093602484518096819363d3dc581960e01b83528660048401525af180156114545761141c575b7f427069c8cccc1e9a4db47d472ff349ab88b09f7f3b06dc64e1f0f54e2de080d192508151908082526020820152a2005b67ffffffffffffffff8311610a36577f427069c8cccc1e9a4db47d472ff349ab88b09f7f3b06dc64e1f0f54e2de080d19282526113eb565b82513d5f823e3d90fd5b9081039081111561138457634e487b7160e01b5f52601160045260245ffd5b5f0361135f565b8260449187519163d49c26b360e01b835260048301526024820152fd5b634e487b7160e01b5f52601260045260245ffd5b508061132d565b85516309fe2b4560e41b8152600490fd5b835162461bcd60e51b815260206004820152600a6024820152694261642070726963657360b01b6044820152606490fd5b50811515611294565b815162461bcd60e51b81526020600482015260136024820152724e6f7420617574686f72697a6564206c6f6e6760681b6044820152606490fd5b815162461bcd60e51b815260206004820152600c60248201526b139bdd081c995cdbdb1d995960a21b6044820152606490fd5b3461024c575f36600319011261024c576001546001600160a01b03168152602090f35b602435906001600160a01b038216820361024c57565b600435906001600160a01b038216820361024c57565b90601f8019910116810190811067ffffffffffffffff821117610a3657604052565b67ffffffffffffffff8111610a3657601f01601f191660200190565b81601f8201121561024c57803590611618826115e5565b9261162660405194856115c3565b8284526020838301011161024c57815f926020809301838601378301015290565b602080825282518183018190529093925f5b82811061167a57505060409293505f838284010152601f8019910116010190565b818101860151848201604001528501611659565b90600182811c921680156116bc575b60208310146116a857565b634e487b7160e01b5f52602260045260245ffd5b91607f169161169d565b6005545f92916116d58261168e565b8082529160019081811690811561173757506001146116f357505050565b9192935060055f525f8051602061254d833981519152915f925b84841061171f57505060209250010190565b8054602085850181019190915290930192810161170d565b915050602093945060ff929192191683830152151560051b010190565b6006545f92916117638261168e565b80825291600190818116908115611737575060011461178157505050565b9192935060065f527ff652222313e28459528d920b65115c16c04f3efc82aaedc97be59f3f377c0d3f915f925b8484106117c057505060209250010190565b805460208585018101919091529093019281016117ae565b156117df57565b60405162461bcd60e51b815260206004820152601060248201526f4f6e6c792046757475726573426f6f6b60801b6044820152606490fd5b8181029291811591840414171561031d57565b1561183157565b60405162461bcd60e51b815260206004820152600f60248201526e105b1c9958591e48195b9d195c9959608a1b6044820152606490fd5b1561186f57565b60405162461bcd60e51b815260206004820152600a6024820152694e6f742061637469766560b01b6044820152606490fd5b156118a857565b60405162461bcd60e51b8152602060048201526009602482015268546f6f206561726c7960b81b6044820152606490fd5b156118e057565b60405162461bcd60e51b8152602060048201526011602482015270105b1c9958591e48195e195c98da5cd959607a1b6044820152606490fd5b600f5460ff8116611b115760ff1916600117600f55600d54601081901c60ff1615611a29575060018060a01b0380600454166040516370a0823160e01b8152306004820152602081602481855afa908115611a1e575f916119ea575b508061198057505050565b6119b4817fa7d2bc2d53b8added70ccf0bad7e8eb9dbb4703f2928383a5b2d8b264f6ed2629385600d5460181c1690611b14565b82600d5460181c1692600454166119e56040519283928360209093929193604081019460018060a01b031681520152565b0390a2565b906020823d8211611a16575b81611a03602093836115c3565b81010312611a135750515f611975565b80fd5b3d91506119f6565b6040513d5f823e3d90fd5b6003546040516370a0823160e01b81523060048201526001600160a01b0392918316602082602481845afa918215611a1e575f92611ade575b5081611a6f575b50505050565b81611aa191857fa7d2bc2d53b8added70ccf0bad7e8eb9dbb4703f2928383a5b2d8b264f6ed2629560181c1690611b14565b82600d5460181c169260035416611ad26040519283928360209093929193604081019460018060a01b031681520152565b0390a25f808080611a69565b90916020823d8211611b09575b81611af8602093836115c3565b81010312611a13575051905f611a62565b3d9150611aeb565b50565b60405163a9059cbb60e01b602082019081526001600160a01b03939093166024820152604480820194909452928352611b9590611b526064856115c3565b60018060a01b0316925f80938192519082875af13d15611bf1573d90611b77826115e5565b91611b8560405193846115c3565b82523d84602084013e5b84611bf9565b908151918215159283611bc5575b505050611bad5750565b60249060405190635274afe760e01b82526004820152fd5b819293509060209181010312611bed576020015190811591821503611a1357505f8080611ba3565b5080fd5b606090611b8f565b90611c205750805115611c0e57805190602001fd5b604051630a12f52160e11b8152600490fd5b81511580611c53575b611c31575090565b604051639996b31560e01b81526001600160a01b039091166004820152602490fd5b50803b15611c29565b80156114a1576ec097ce7bc90715b34b9f10000000000590565b68023f2fa8f6da5b9d31198112611ccf57680736ea4425c11ac6308113611cb757670de0b6b3a76400006714057b7ef767814f611cb4920205611cd4565b90565b6024906040519063ca7ec0c560e01b82526004820152fd5b505f90565b5f811215611d015768033dd1780914b97114198112611ccf57611cf8905f03611cd4565b611cb490611c5c565b680a688906bd8affffff811361253557670de0b6b3a764000080604092831b0590600160bf1b67ff000000000000008316612424575b66ff000000000000831661231c575b65ff0000000000831661221c575b64ff000000008316612124575b63ff0000008316612034575b62ff00008316611f4c575b61ff008316611e6c575b60ff8316611d95575b02911c60bf031c90565b60808316611e5a575b838316611e48575b60208316611e36575b60108316611e24575b60088316611e12575b60048316611e00575b60028316611dee575b6001831615611d8b576801000000000000000102831c611d8b565b6801000000000000000102831c611dd3565b6801000000000000000302831c611dca565b6801000000000000000602831c611dc1565b6801000000000000000b02831c611db8565b6801000000000000001602831c611daf565b6801000000000000002c02831c611da6565b6801000000000000005902831c611d9e565b6180008316611f3a575b6140008316611f28575b6120008316611f16575b6110008316611f04575b6108008316611ef2575b6104008316611ee0575b6102008316611ece575b610100831615611d8257680100000000000000b102831c611d82565b6801000000000000016302831c611eb2565b680100000000000002c602831c611ea8565b6801000000000000058c02831c611e9e565b68010000000000000b1702831c611e94565b6801000000000000162e02831c611e8a565b68010000000000002c5d02831c611e80565b680100000000000058b902831c611e76565b628000008316612022575b624000008316612010575b622000008316611ffe575b621000008316611fec575b620800008316611fda575b620400008316611fc8575b620200008316611fb6575b62010000831615611d78576801000000000000b17202831c611d78565b680100000000000162e402831c611f99565b6801000000000002c5c802831c611f8e565b68010000000000058b9102831c611f83565b680100000000000b172102831c611f78565b68010000000000162e4302831c611f6d565b680100000000002c5c8602831c611f62565b6801000000000058b90c02831c611f57565b63800000008316612112575b63400000008316612100575b632000000083166120ee575b631000000083166120dc575b630800000083166120ca575b630400000083166120b8575b630200000083166120a6575b6301000000831615611d6d5768010000000000b1721802831c611d6d565b6801000000000162e43002831c612088565b68010000000002c5c86002831c61207c565b680100000000058b90c002831c612070565b6801000000000b17217f02831c612064565b680100000000162e42ff02831c612058565b6801000000002c5c85fe02831c61204c565b68010000000058b90bfc02831c612040565b648000000000831661220a575b64400000000083166121f8575b64200000000083166121e6575b64100000000083166121d4575b64080000000083166121c2575b64040000000083166121b0575b640200000000831661219e575b640100000000831615611d6157680100000000b17217f802831c611d61565b68010000000162e42ff102831c61217f565b680100000002c5c85fe302831c612172565b6801000000058b90bfce02831c612165565b68010000000b17217fbb02831c612158565b6801000000162e42fff002831c61214b565b68010000002c5c8601cc02831c61213e565b680100000058b90c0b4902831c612131565b65800000000000831661230a575b6540000000000083166122f8575b6520000000000083166122e6575b6510000000000083166122d4575b6508000000000083166122c2575b6504000000000083166122b0575b65020000000000831661229e575b65010000000000831615611d54576801000000b17218355102831c611d54565b680100000162e430e5a202831c61227e565b6801000002c5c863b73f02831c612270565b68010000058b90cf1e6e02831c612262565b680100000b1721bcfc9a02831c612254565b68010000162e43f4f83102831c612246565b680100002c5c89d5ec6d02831c612238565b6801000058b91b5bc9ae02831c61222a565b66800000000000008316612412575b66400000000000008316612400575b662000000000000083166123ee575b661000000000000083166123dc575b660800000000000083166123ca575b660400000000000083166123b8575b660200000000000083166123a6575b6601000000000000831615611d465768010000b17255775c0402831c611d46565b6801000162e525ee054702831c612385565b68010002c5cc37da949202831c612376565b680100058ba01fb9f96d02831c612367565b6801000b175effdc76ba02831c612358565b680100162f3904051fa102831c612349565b6801002c605e2e8cec5002831c61233a565b68010058c86da1c09ea202831c61232b565b6780000000000000008316612522575b6740000000000000008316612510575b67200000000000000083166124fe575b67100000000000000083166124ec575b67080000000000000083166124da575b67040000000000000083166124c8575b67020000000000000083166124b6575b670100000000000000831615611d3757680100b1afa5abcbed6102831c611d37565b68010163da9fb33356d802831c612494565b680102c9a3e778060ee702831c612484565b6801059b0d31585743ae02831c612474565b68010b5586cf9890f62a02831c612464565b6801172b83c7d517adce02831c612454565b6801306fe0a31b7152df02831c612444565b5068016a09e667f3bcc909607f1b612434565b60249060405190626c1a0560e31b82526004820152fdfe036b6384b5eca791c62761152d0c79bb0604c104a5fb6f4eb0703f3154bb3db0a26469706673582212206a3389c569d4c0cb27f829ce8acded7bba54018f5a87416b2d1a95c3912a8b0c64736f6c63430008140033","linkReferences":{}},"methodIdentifiers":{"MAX_INTENSITY_1E18()":"79c13657","enterAsLong(address)":"f0c628d2","exercise(uint256,address)":"1b6b7298","expiry()":"e184c9be","fund(uint256,uint256)":"a65e2cfd","futureType()":"52c65d3d","futuresBook()":"45c820af","getOracleAddress()":"b18b78dd","initialize(address,address,address,string,string,uint256,uint256,uint256,address,address)":"1c49bc67","isActive()":"22f3e2d4","isExercised()":"92fe281a","isFunded()":"7c654303","isResolved()":"dbb3f537","long()":"07bfce37","maker()":"50655d8c","makerExpirySeconds()":"88953322","oracle()":"7dc0d1d0","positionSize()":"84f523ad","premium()":"e0a73a93","priceAtExpiry()":"d7b95e7c","reclaim(address)":"fc772c8b","resolve()":"2810e1d6","setSigmoidIntensity(uint256)":"d690b667","short()":"38bea4cb","sigmoidIntensity1e18()":"c848272c","strikePrice()":"c52987cf","strikeSymbol()":"c1300a17","strikeToken()":"8c3199a5","underlyingSymbol()":"d90a730e","underlyingToken()":"2495a599"},"id":3}