{"abi":[{"type":"function","name":"MAX_AMPLITUDE_1E18","inputs":[],"outputs":[{"name":"","type":"uint256","internalType":"uint256"}],"stateMutability":"view"},{"type":"function","name":"amplitude1e18","inputs":[],"outputs":[{"name":"","type":"uint256","internalType":"uint256"}],"stateMutability":"view"},{"type":"function","name":"contractType","inputs":[],"outputs":[{"name":"","type":"string","internalType":"string"}],"stateMutability":"view"},{"type":"function","name":"enterAsLong","inputs":[{"name":"realLong","type":"address","internalType":"address"}],"outputs":[],"stateMutability":"nonpayable"},{"type":"function","name":"exercise","inputs":[{"name":"","type":"uint256","internalType":"uint256"},{"name":"realLong","type":"address","internalType":"address"}],"outputs":[],"stateMutability":"nonpayable"},{"type":"function","name":"expiry","inputs":[],"outputs":[{"name":"","type":"uint256","internalType":"uint256"}],"stateMutability":"view"},{"type":"function","name":"fund","inputs":[{"name":"strikeNotional","type":"uint256","internalType":"uint256"},{"name":"expirySeconds","type":"uint256","internalType":"uint256"}],"outputs":[],"stateMutability":"nonpayable"},{"type":"function","name":"genieBook","inputs":[],"outputs":[{"name":"","type":"address","internalType":"address"}],"stateMutability":"view"},{"type":"function","name":"getOracleAddress","inputs":[],"outputs":[{"name":"","type":"address","internalType":"address"}],"stateMutability":"view"},{"type":"function","name":"initialize","inputs":[{"name":"_short","type":"address","internalType":"address"},{"name":"_underlyingToken","type":"address","internalType":"address"},{"name":"_strikeToken","type":"address","internalType":"address"},{"name":"_underlyingSymbol","type":"string","internalType":"string"},{"name":"_strikeSymbol","type":"string","internalType":"string"},{"name":"_sideFlag","type":"uint256","internalType":"uint256"},{"name":"_positionSize","type":"uint256","internalType":"uint256"},{"name":"_premiumMustBeZero","type":"uint256","internalType":"uint256"},{"name":"_oracle","type":"address","internalType":"address"},{"name":"_genieBook","type":"address","internalType":"address"}],"outputs":[],"stateMutability":"nonpayable"},{"type":"function","name":"isActive","inputs":[],"outputs":[{"name":"","type":"bool","internalType":"bool"}],"stateMutability":"view"},{"type":"function","name":"isExercised","inputs":[],"outputs":[{"name":"","type":"bool","internalType":"bool"}],"stateMutability":"view"},{"type":"function","name":"isFunded","inputs":[],"outputs":[{"name":"","type":"bool","internalType":"bool"}],"stateMutability":"view"},{"type":"function","name":"isResolved","inputs":[],"outputs":[{"name":"","type":"bool","internalType":"bool"}],"stateMutability":"view"},{"type":"function","name":"long","inputs":[],"outputs":[{"name":"","type":"address","internalType":"address"}],"stateMutability":"view"},{"type":"function","name":"maker","inputs":[],"outputs":[{"name":"","type":"address","internalType":"address"}],"stateMutability":"view"},{"type":"function","name":"makerExpirySeconds","inputs":[],"outputs":[{"name":"","type":"uint256","internalType":"uint256"}],"stateMutability":"view"},{"type":"function","name":"oracle","inputs":[],"outputs":[{"name":"","type":"address","internalType":"contract SimuOracle"}],"stateMutability":"view"},{"type":"function","name":"period1e18","inputs":[],"outputs":[{"name":"","type":"uint256","internalType":"uint256"}],"stateMutability":"view"},{"type":"function","name":"phaseShift1e18","inputs":[],"outputs":[{"name":"","type":"int256","internalType":"int256"}],"stateMutability":"view"},{"type":"function","name":"positionSize","inputs":[],"outputs":[{"name":"","type":"uint256","internalType":"uint256"}],"stateMutability":"view"},{"type":"function","name":"premium","inputs":[],"outputs":[{"name":"","type":"uint256","internalType":"uint256"}],"stateMutability":"view"},{"type":"function","name":"priceAtExpiry","inputs":[],"outputs":[{"name":"","type":"uint256","internalType":"uint256"}],"stateMutability":"view"},{"type":"function","name":"reclaim","inputs":[{"name":"realShort","type":"address","internalType":"address"}],"outputs":[],"stateMutability":"nonpayable"},{"type":"function","name":"resolve","inputs":[],"outputs":[],"stateMutability":"nonpayable"},{"type":"function","name":"setSinusoidalOffset","inputs":[{"name":"_phaseShift1e18","type":"int256","internalType":"int256"}],"outputs":[],"stateMutability":"nonpayable"},{"type":"function","name":"setSinusoidalParameters","inputs":[{"name":"_amplitude1e18","type":"uint256","internalType":"uint256"},{"name":"_period1e18","type":"uint256","internalType":"uint256"}],"outputs":[],"stateMutability":"nonpayable"},{"type":"function","name":"short","inputs":[],"outputs":[{"name":"","type":"address","internalType":"address"}],"stateMutability":"view"},{"type":"function","name":"strikePrice","inputs":[],"outputs":[{"name":"","type":"uint256","internalType":"uint256"}],"stateMutability":"view"},{"type":"function","name":"strikeSymbol","inputs":[],"outputs":[{"name":"","type":"string","internalType":"string"}],"stateMutability":"view"},{"type":"function","name":"strikeToken","inputs":[],"outputs":[{"name":"","type":"address","internalType":"contract IERC20"}],"stateMutability":"view"},{"type":"function","name":"underlyingSymbol","inputs":[],"outputs":[{"name":"","type":"string","internalType":"string"}],"stateMutability":"view"},{"type":"function","name":"underlyingToken","inputs":[],"outputs":[{"name":"","type":"address","internalType":"contract IERC20"}],"stateMutability":"view"},{"type":"event","name":"FundingRefunded","inputs":[{"name":"maker","type":"address","indexed":true,"internalType":"address"},{"name":"token","type":"address","indexed":false,"internalType":"address"},{"name":"amount","type":"uint256","indexed":false,"internalType":"uint256"}],"anonymous":false},{"type":"event","name":"GenieActivated","inputs":[{"name":"long","type":"address","indexed":true,"internalType":"address"},{"name":"premiumPaid","type":"uint256","indexed":false,"internalType":"uint256"},{"name":"expiry","type":"uint256","indexed":false,"internalType":"uint256"}],"anonymous":false},{"type":"event","name":"GenieCreated","inputs":[{"name":"maker","type":"address","indexed":true,"internalType":"address"}],"anonymous":false},{"type":"event","name":"GenieExpiredUnused","inputs":[{"name":"short","type":"address","indexed":true,"internalType":"address"}],"anonymous":false},{"type":"event","name":"GenieFunded","inputs":[{"name":"maker","type":"address","indexed":true,"internalType":"address"},{"name":"positionSize","type":"uint256","indexed":false,"internalType":"uint256"}],"anonymous":false},{"type":"event","name":"GenieSettled","inputs":[{"name":"long","type":"address","indexed":true,"internalType":"address"},{"name":"payout","type":"uint256","indexed":false,"internalType":"uint256"},{"name":"sameAsPayout","type":"uint256","indexed":false,"internalType":"uint256"}],"anonymous":false},{"type":"event","name":"PriceResolved","inputs":[{"name":"underlyingSymbol","type":"string","indexed":false,"internalType":"string"},{"name":"strikeSymbol","type":"string","indexed":false,"internalType":"string"},{"name":"priceAtExpiry","type":"uint256","indexed":false,"internalType":"uint256"},{"name":"resolvedAt","type":"uint256","indexed":false,"internalType":"uint256"}],"anonymous":false},{"type":"event","name":"SinusoidalOffsetSet","inputs":[{"name":"phaseShift1e18","type":"int256","indexed":false,"internalType":"int256"}],"anonymous":false},{"type":"event","name":"SinusoidalParametersSet","inputs":[{"name":"amplitude1e18","type":"uint256","indexed":false,"internalType":"uint256"},{"name":"period1e18","type":"uint256","indexed":false,"internalType":"uint256"}],"anonymous":false},{"type":"error","name":"AddressEmptyCode","inputs":[{"name":"target","type":"address","internalType":"address"}]},{"type":"error","name":"AddressInsufficientBalance","inputs":[{"name":"account","type":"address","internalType":"address"}]},{"type":"error","name":"FailedInnerCall","inputs":[]},{"type":"error","name":"SafeERC20FailedOperation","inputs":[{"name":"token","type":"address","internalType":"address"}]}],"bytecode":{"object":"0x60808060405234610016576120c2908161001b8239f35b5f80fdfe608060408181526004361015610013575f80fd5b5f91823560e01c90816304db60e9146119465750806307bfce371461191e5780631b6b7298146114fc5780631c49bc6714610f8157806322f3e2d414610f5e5780632495a59914610f365780632810e1d614610d4857806329c8a28e14610bef57806338bea4cb14610bc857806350655d8c14610b9c5780636032e1a714610b745780636b99395214610b195780637c65430314610af35780637dc0d1d01461072d57806384f523ad14610ad55780638895332214610ab75780638c3199a514610a8f57806392fe281a14610a69578063a65e2cfd14610759578063b18b78dd1461072d578063bf0c5ec41461070b578063c1300a1714610675578063c52987cf14610657578063cb2ef6f7146105ea578063d7b95e7c146105cc578063d90a730e146104fc578063dbb3f537146104d9578063e0a73a93146104bb578063e17e06ca1461049d578063e184c9be1461047f578063edeeb02b14610461578063f0c628d21461027c5763fc772c8b1461018a575f80fd5b34610278576020366003190112610278576101a3611978565b60025490916001600160a01b03916101be9083163314611aa7565b600b54916101ce60ff8416611b0b565b6101dc600a54421015611c43565b6101ec60ff8460081c1615611c7b565b808554169316928303610235575061ffff191661010017600b5561020e611d10565b7f1a7feb53619b88119f24a748048bdae0275511f6100adcc4e4d70a6232c1d8d18280a280f35b5162461bcd60e51b815260206004820152601b60248201527f43616c6c6572206e6f7420617574686f72697a65642073686f727400000000006044820152606490fd5b5080fd5b5034610278576020908160031936011261045d57610298611978565b6002546001600160a01b039391906102b39085163314611aa7565b600b5460ff8160101c16156104285760ff166103f457600d5460101c60ff16156103975784549084821661035c578416906001600160601b0360a01b161784555b600160ff19600b541617600b55600e5442019283421161034857907f7414337d2923a2f0d99917ea7979f18bbedf5e590e26a1f849dc1091e56332bd929184600a556001541693825191868352820152a280f35b634e487b7160e01b85526011600452602485fd5b835162461bcd60e51b815260048101849052601460248201527314da1bdc9d08185b1c9958591e481a9bda5b995960621b6044820152606490fd5b600154908482166103ba578416906001600160601b0360a01b16176001556102f4565b835162461bcd60e51b8152600481018490526013602482015272131bdb99c8185b1c9958591e481a9bda5b9959606a1b6044820152606490fd5b50606491519062461bcd60e51b82526004820152600e60248201526d416c72656164792061637469766560901b6044820152fd5b835162461bcd60e51b815260048101849052600e60248201526d139bdd08199d5b991959081e595d60921b6044820152606490fd5b8280fd5b50346102785781600319360112610278576020906012549051908152f35b5034610278578160031936011261027857602090600a549051908152f35b50346102785781600319360112610278576020906010549051908152f35b50346102785781600319360112610278576020906009549051908152f35b503461027857816003193601126102785760209060ff600d541690519015158152f35b5090346105c957806003193601126105c9575080515f9160055461051f81611a28565b808452906001908181169081156105a15750600114610558575b505061054a8261055494038361198e565b5191829182611a60565b0390f35b60055f90815294505f8051602061204d8339815191525b828610610589575050509181016020019161054a82610539565b8054602087870181019190915290950194810161056f565b6105549650859250602091509261054a9360ff191682840152151560051b8201019450610539565b80fd5b5034610278578160031936011261027857602090600c549051908152f35b5090346105c957806003193601126105c9575080518181019181831067ffffffffffffffff84111761064357610554928152601082526f53494e55534f4944414c5f47454e494560801b60208301525191829182611a60565b634e487b7160e01b5f52604160045260245ffd5b50346102785781600319360112610278576020906007549051908152f35b5090346105c957806003193601126105c9575080515f9160065461069881611a28565b808452906001908181169081156105a157506001146106c257505061054a8261055494038361198e565b60065f90815294505f8051602061206d8339815191525b8286106106f3575050509181016020019161054a82610539565b805460208787018101919091529095019481016106d9565b503461027857816003193601126102785760209051670de0b6b3a76400008152f35b5034610278578160031936011261027857600b54905160189190911c6001600160a01b03168152602090f35b50346102785761076836611a12565b6002549192916001600160a01b03906107849082163314611aa7565b600b549260ff8460101c16610a355784156109f25782156109b657600d549060ff8260101c165f146108fd576024602084600454168351928380926370a0823160e01b82523060048301525afa9081156108f35790879189916108bb575b5003610878575b670de0b6b3a76400008087029687040361086457600854958615610850577fecc2d26bdcdba0890f1423ac13345453fc154d2505c7fbdb7abe090a6349517a9560209588620100009304600755600e5562ff0000191617600b555194855260181c1692a280f35b634e487b7160e01b5f52601260045260245ffd5b634e487b7160e01b87526011600452602487fd5b5162461bcd60e51b815260206004820152601f60248201527f47454e49453a20696e636f727265637420737472696b652066756e64696e67006044820152606490fd5b9150506020813d82116108eb575b816108d66020938361198e565b810103126108e7578690515f6107e2565b5f80fd5b3d91506108c9565b82513d8a823e3d90fd5b6024602084600354168351928380926370a0823160e01b82523060048301525afa9081156108f3578891610985575b5060085411156107e9575162461bcd60e51b815260206004820152602360248201527f47454e49453a20696e636f727265637420756e6465726c79696e672066756e64604482015262696e6760e81b6064820152608490fd5b90506020813d82116109ae575b8161099f6020938361198e565b810103126108e757515f61092c565b3d9150610992565b5162461bcd60e51b8152602060048201526016602482015275047454e49453a206578706972795365636f6e64733d360541b6044820152606490fd5b5162461bcd60e51b815260206004820152601760248201527f47454e49453a20737472696b654e6f74696f6e616c3d300000000000000000006044820152606490fd5b5162461bcd60e51b815260206004820152600e60248201526d105b1c9958591e48199d5b99195960921b6044820152606490fd5b503461027857816003193601126102785760209060ff600b5460081c1690519015158152f35b503461027857816003193601126102785760045490516001600160a01b039091168152602090f35b5034610278578160031936011261027857602090600e549051908152f35b50346102785781600319360112610278576020906008549051908152f35b503461027857816003193601126102785760209060ff600b5460101c1690519015158152f35b50346102785760203660031901126102785760207fbd8aa28724d3b759dbe02813f7e99c440df2159b889783bceeed25866b4be36c9160043590610b6860018060a01b03600254163314611aa7565b8160125551908152a180f35b503461027857816003193601126102785760025490516001600160a01b039091168152602090f35b5034610278578160031936011261027857600d54905160189190911c6001600160a01b03168152602090f35b5034610278578160031936011261027857905490516001600160a01b039091168152602090f35b503461027857610bfe36611a12565b610c1360018060a01b03600254163314611aa7565b600b5460ff8160101c16159081610d3c575b5015610cf85781151580610ce6575b15610cae578015610c7957907f6d27b7bba1895d517ce5cc5c3054b37d4beade9e98b4e6738ed0d50173e050079291816010558060115582519182526020820152a180f35b825162461bcd60e51b815260206004820152600e60248201526d125b9d985b1a59081c195c9a5bd960921b6044820152606490fd5b825162461bcd60e51b8152602060048201526011602482015270496e76616c696420616d706c697475646560781b6044820152606490fd5b50670de0b6b3a7640000821115610c34565b825162461bcd60e51b815260206004820152601a60248201527f546f6f206c61746520746f2073657420706172616d65746572730000000000006044820152606490fd5b60ff915016155f610c25565b5090346105c95760031991818336011261027857600b54610d6b60ff8216611b0b565b600a544210610efb57600d5460ff8116610ec457610dba93948351809363861a210560e01b8252856004830152610da460448301611b44565b9282840301602483015281806020988995611bd2565b039160181c6001600160a01b03165afa918215610eba578592610e8b575b508115610e475791816001610e37947fa60f416ed7a87ce606d905a15dbcc035e8cc9278a0e64aeab945456776ba975a9694600c5560ff191617600d55815193849360808552610e2a60808601611b44565b9085820390860152611bd2565b918301524260608301520390a180f35b825162461bcd60e51b815260048101859052601960248201527f496e76616c69642070726963652066726f6d206f7261636c65000000000000006044820152606490fd5b9091508381813d8311610eb3575b610ea3818361198e565b810103126108e75751905f610dd8565b503d610e99565b83513d87823e3d90fd5b825162461bcd60e51b815260206004820152601060248201526f105b1c9958591e481c995cdbdb1d995960821b6044820152606490fd5b815162461bcd60e51b8152602060048201526014602482015273546f6f206561726c7920746f207265736f6c766560601b6044820152606490fd5b503461027857816003193601126102785760035490516001600160a01b039091168152602090f35b503461027857816003193601126102785760209060ff600b541690519015158152f35b5090346105c9576101403660031901126105c957610f9d611978565b610fa5611962565b926044356001600160a01b038116908190036108e75760643567ffffffffffffffff81116114f857610fdb9036906004016119cc565b9060843567ffffffffffffffff81116114f457610ffc9036906004016119cc565b95610104356001600160a01b03811690036108e75761012435936001600160a01b03851685036108e757600d549060ff8260081c166114bb5760e4356114785760c4351561143d575086546001600160a01b03199081166001600160a01b0388811691909117895562ff0100600160b81b0319909216601888901b6301000000600160b81b03161761010017600d55600380548216939092169290921790556004805490911691909117905580519067ffffffffffffffff82116114295781906110c7600554611a28565b601f81116113ba575b50602090601f831160011461134657869261133b575b50508160011b915f199060031b1c1916176005555b835167ffffffffffffffff811161132757611117600654611a28565b601f81116112d7575b506020601f8211600114611265578190859660ff95969261125a575b50508160011b915f199060031b1c1916176006555b600d805462ff0000191660a4351515601090811b62ff000016919091179182905560c4356008556009869055600b80546301000000600160b81b0319166101043560181b6301000000600160b81b0316179055600280546001600160a01b0319166001600160a01b0390941693909317909255901c16156112445760018060a01b03166001600160601b0360a01b60015416176001556001600160601b0360a01b81541681555b670de0b6b3a764000060108190556011556012819055600d5460181c6001600160a01b03167f576c193f725a7141a0944a54305979d93256ffdb9c9950bd11d5fe49ede4e0bd8280a280f35b50600180546001600160a01b03191690556111f8565b015190505f8061113c565b600685525f8051602061206d83398151915295601f198316865b8181106112bf57509160ff959697918460019594106112a7575b505050811b01600655611151565b01515f1960f88460031b161c191690555f8080611299565b8383015189556001909801976020938401930161127f565b600685525f8051602061206d833981519152601f830160051c8101916020841061131d575b601f0160051c01905b8181106113125750611120565b858155600101611305565b90915081906112fc565b634e487b7160e01b84526041600452602484fd5b015190505f806110e6565b9250600586525f8051602061204d8339815191529086935b601f198416851061139f576001945083601f19811610611387575b505050811b016005556110fb565b01515f1960f88460031b161c191690555f8080611379565b8181015183556020948501946001909301929091019061135e565b90915060058652601f830160051c5f8051602061204d8339815191520160208410611415575b908392915b601f820160051c5f8051602061204d83398151915201811061140757506110d0565b8781558493506001016113e5565b505f8051602061204d8339815191526113e0565b634e487b7160e01b85526041600452602485fd5b5162461bcd60e51b8152602060048201526015602482015274047454e49453a20706f736974696f6e53697a653d3605c1b6044820152606490fd5b5162461bcd60e51b815260206004820152601860248201527f47454e49453a207072656d69756d206d757374206265203000000000000000006044820152606490fd5b5162461bcd60e51b8152602060048201526013602482015272105b1c9958591e481a5b9a5d1a585b1a5e9959606a1b6044820152606490fd5b8580fd5b8480fd5b5034610278578060031936011261027857611515611962565b9060018060a01b0361152c81600254163314611aa7565b600b549061153c60ff8316611b0b565b61154a600a54421015611c43565b61155a60ff8360081c1615611c7b565b60ff600d5416156118e55780806001541694169384036118a157600754600c5481151580611898575b15611865576115a9670de0b6b3a764000092836115a260085483611ae4565b0492611cbb565b6757325bbf446493ac908181029080820583149015171561185157601154801561183d57600160ff1b82145f1982141661182957916115ef819286946012549105611cf5565b07908982128061180c575b5050672b992ddfa23249d681136117ee575b6116c26113b064017328cc00846116ba61168b6116b4836116a58961169f836116918161163c6116cb9f80611cd3565b05809885846116818461167b8361166f8361166983829f61165d9084611cd3565b059860068a0590611cbb565b97611cd3565b05946078860590611cf5565b93611cd3565b059e8f0590611cbb565b9c611cd3565b0599620589808b0590611cf5565b98611cd3565b05956302611500870590611cbb565b94611cd3565b050590611cf5565b60105490611cd3565b05828101908884831291129080158216911516176117da57916117056101009260028a9695058681126117d3575b8381136117cc57611ae4565b049361ffff191617600b55611718611d10565b60025416803b15610278578190602485518094819363d3dc581960e01b83528760048401525af18015610eba5761177d575b50907f1f7b59e7408a5eda471d7328f56c4b76fe7595e32c2319c7da4904919b5214b7918151908082526020820152a280f35b67ffffffffffffffff81959295116117b8578252927f1f7b59e7408a5eda471d7328f56c4b76fe7595e32c2319c7da4904919b5214b761174a565b634e487b7160e01b82526041600452602482fd5b5082611ae4565b50856116f9565b634e487b7160e01b88526011600452602488fd5b6757325bbf446493ab198101915081136001166117da57829061160c565b918193500191821280158216911516176117da5782905f806115fa565b634e487b7160e01b8a52601160045260248afd5b634e487b7160e01b8a52601260045260248afd5b634e487b7160e01b89526011600452602489fd5b845162461bcd60e51b815260206004820152600c60248201526b556e7365742070726963657360a01b6044820152606490fd5b50801515611583565b825162461bcd60e51b815260206004820152601a60248201527f43616c6c6572206e6f7420617574686f72697a6564206c6f6e670000000000006044820152606490fd5b825162461bcd60e51b8152602060048201526012602482015271141c9a58d9481b9bdd081c995cdbdb1d995960721b6044820152606490fd5b503461027857816003193601126102785760015490516001600160a01b039091168152602090f35b8390346102785781600319360112610278576020906011548152f35b602435906001600160a01b03821682036108e757565b600435906001600160a01b03821682036108e757565b90601f8019910116810190811067ffffffffffffffff82111761064357604052565b67ffffffffffffffff811161064357601f01601f191660200190565b81601f820112156108e7578035906119e3826119b0565b926119f1604051948561198e565b828452602083830101116108e757815f926020809301838601378301015290565b60409060031901126108e7576004359060243590565b90600182811c92168015611a56575b6020831014611a4257565b634e487b7160e01b5f52602260045260245ffd5b91607f1691611a37565b602080825282518183018190529093925f5b828110611a9357505060409293505f838284010152601f8019910116010190565b818101860151848201604001528501611a72565b15611aae57565b60405162461bcd60e51b815260206004820152600e60248201526d4f6e6c792047656e6965426f6f6b60901b6044820152606490fd5b81810292918115918404141715611af757565b634e487b7160e01b5f52601160045260245ffd5b15611b1257565b60405162461bcd60e51b815260206004820152600a6024820152694e6f742061637469766560b01b6044820152606490fd5b6005545f9291611b5382611a28565b80825291600190818116908115611bb55750600114611b7157505050565b9192935060055f525f8051602061204d833981519152915f925b848410611b9d57505060209250010190565b80546020858501810191909152909301928101611b8b565b915050602093945060ff929192191683830152151560051b010190565b6006545f9291611be182611a28565b80825291600190818116908115611bb55750600114611bff57505050565b9192935060065f525f8051602061206d833981519152915f925b848410611c2b57505060209250010190565b80546020858501810191909152909301928101611c19565b15611c4a57565b60405162461bcd60e51b8152602060048201526009602482015268546f6f206561726c7960b81b6044820152606490fd5b15611c8257565b60405162461bcd60e51b8152602060048201526011602482015270105b1c9958591e48195e195c98da5cd959607a1b6044820152606490fd5b81810392915f138015828513169184121617611af757565b81810292915f8212600160ff1b821416611af7578184051490151715611af757565b9190915f8382019384129112908015821691151617611af757565b600f5460ff8116611f055760ff1916600117600f55600d54601081901c60ff1615611e1d575060018060a01b0380600454166040516370a0823160e01b8152306004820152602081602481855afa908115611e12575f91611de1575b5080611d7757505050565b611dab817fa7d2bc2d53b8added70ccf0bad7e8eb9dbb4703f2928383a5b2d8b264f6ed2629385600d5460181c1690611f08565b82600d5460181c169260045416611ddc6040519283928360209093929193604081019460018060a01b031681520152565b0390a2565b906020823d8211611e0a575b81611dfa6020938361198e565b810103126105c95750515f611d6c565b3d9150611ded565b6040513d5f823e3d90fd5b6003546040516370a0823160e01b81523060048201526001600160a01b0392918316602082602481845afa918215611e12575f92611ed2575b5081611e63575b50505050565b81611e9591857fa7d2bc2d53b8added70ccf0bad7e8eb9dbb4703f2928383a5b2d8b264f6ed2629560181c1690611f08565b82600d5460181c169260035416611ec66040519283928360209093929193604081019460018060a01b031681520152565b0390a25f808080611e5d565b90916020823d8211611efd575b81611eec6020938361198e565b810103126105c9575051905f611e56565b3d9150611edf565b50565b60405163a9059cbb60e01b602082019081526001600160a01b03939093166024820152604480820194909452928352611f8990611f4660648561198e565b60018060a01b0316925f80938192519082875af13d15611fe1573d90611f6b826119b0565b91611f79604051938461198e565b82523d84602084013e5b84611fe9565b908151918215159283611fb9575b505050611fa15750565b60249060405190635274afe760e01b82526004820152fd5b8192935090602091810103126102785760200151908115918215036105c957505f8080611f97565b606090611f83565b906120105750805115611ffe57805190602001fd5b604051630a12f52160e11b8152600490fd5b81511580612043575b612021575090565b604051639996b31560e01b81526001600160a01b039091166004820152602490fd5b50803b1561201956fe036b6384b5eca791c62761152d0c79bb0604c104a5fb6f4eb0703f3154bb3db0f652222313e28459528d920b65115c16c04f3efc82aaedc97be59f3f377c0d3fa2646970667358221220370e4f0eae074e589c938ff5af4d24d59e71a88c1e00673596320dd3e22f83c164736f6c63430008140033","linkReferences":{}},"methodIdentifiers":{"MAX_AMPLITUDE_1E18()":"bf0c5ec4","amplitude1e18()":"e17e06ca","contractType()":"cb2ef6f7","enterAsLong(address)":"f0c628d2","exercise(uint256,address)":"1b6b7298","expiry()":"e184c9be","fund(uint256,uint256)":"a65e2cfd","genieBook()":"6032e1a7","getOracleAddress()":"b18b78dd","initialize(address,address,address,string,string,uint256,uint256,uint256,address,address)":"1c49bc67","isActive()":"22f3e2d4","isExercised()":"92fe281a","isFunded()":"7c654303","isResolved()":"dbb3f537","long()":"07bfce37","maker()":"50655d8c","makerExpirySeconds()":"88953322","oracle()":"7dc0d1d0","period1e18()":"04db60e9","phaseShift1e18()":"edeeb02b","positionSize()":"84f523ad","premium()":"e0a73a93","priceAtExpiry()":"d7b95e7c","reclaim(address)":"fc772c8b","resolve()":"2810e1d6","setSinusoidalOffset(int256)":"6b993952","setSinusoidalParameters(uint256,uint256)":"29c8a28e","short()":"38bea4cb","strikePrice()":"c52987cf","strikeSymbol()":"c1300a17","strikeToken()":"8c3199a5","underlyingSymbol()":"d90a730e","underlyingToken()":"2495a599"},"id":2}