{"abi":[{"type":"function","name":"MIN_FULLPAYLINE","inputs":[],"outputs":[{"name":"","type":"uint256","internalType":"uint256"}],"stateMutability":"view"},{"type":"function","name":"contractType","inputs":[],"outputs":[{"name":"","type":"string","internalType":"string"}],"stateMutability":"view"},{"type":"function","name":"enterAsLong","inputs":[{"name":"realLong","type":"address","internalType":"address"}],"outputs":[],"stateMutability":"nonpayable"},{"type":"function","name":"exercise","inputs":[{"name":"","type":"uint256","internalType":"uint256"},{"name":"realLong","type":"address","internalType":"address"}],"outputs":[],"stateMutability":"nonpayable"},{"type":"function","name":"expiry","inputs":[],"outputs":[{"name":"","type":"uint256","internalType":"uint256"}],"stateMutability":"view"},{"type":"function","name":"fullPayLine1e18","inputs":[],"outputs":[{"name":"","type":"uint256","internalType":"uint256"}],"stateMutability":"view"},{"type":"function","name":"fund","inputs":[{"name":"strikeNotional","type":"uint256","internalType":"uint256"},{"name":"expirySeconds","type":"uint256","internalType":"uint256"}],"outputs":[],"stateMutability":"nonpayable"},{"type":"function","name":"genieBook","inputs":[],"outputs":[{"name":"","type":"address","internalType":"address"}],"stateMutability":"view"},{"type":"function","name":"getOracleAddress","inputs":[],"outputs":[{"name":"","type":"address","internalType":"address"}],"stateMutability":"view"},{"type":"function","name":"initialize","inputs":[{"name":"_short","type":"address","internalType":"address"},{"name":"_underlyingToken","type":"address","internalType":"address"},{"name":"_strikeToken","type":"address","internalType":"address"},{"name":"_underlyingSymbol","type":"string","internalType":"string"},{"name":"_strikeSymbol","type":"string","internalType":"string"},{"name":"_sideFlag","type":"uint256","internalType":"uint256"},{"name":"_positionSize","type":"uint256","internalType":"uint256"},{"name":"_premiumMustBeZero","type":"uint256","internalType":"uint256"},{"name":"_oracle","type":"address","internalType":"address"},{"name":"_genieBook","type":"address","internalType":"address"}],"outputs":[],"stateMutability":"nonpayable"},{"type":"function","name":"isActive","inputs":[],"outputs":[{"name":"","type":"bool","internalType":"bool"}],"stateMutability":"view"},{"type":"function","name":"isExercised","inputs":[],"outputs":[{"name":"","type":"bool","internalType":"bool"}],"stateMutability":"view"},{"type":"function","name":"isFunded","inputs":[],"outputs":[{"name":"","type":"bool","internalType":"bool"}],"stateMutability":"view"},{"type":"function","name":"isResolved","inputs":[],"outputs":[{"name":"","type":"bool","internalType":"bool"}],"stateMutability":"view"},{"type":"function","name":"long","inputs":[],"outputs":[{"name":"","type":"address","internalType":"address"}],"stateMutability":"view"},{"type":"function","name":"maker","inputs":[],"outputs":[{"name":"","type":"address","internalType":"address"}],"stateMutability":"view"},{"type":"function","name":"makerExpirySeconds","inputs":[],"outputs":[{"name":"","type":"uint256","internalType":"uint256"}],"stateMutability":"view"},{"type":"function","name":"oracle","inputs":[],"outputs":[{"name":"","type":"address","internalType":"contract SimuOracle"}],"stateMutability":"view"},{"type":"function","name":"positionSize","inputs":[],"outputs":[{"name":"","type":"uint256","internalType":"uint256"}],"stateMutability":"view"},{"type":"function","name":"premium","inputs":[],"outputs":[{"name":"","type":"uint256","internalType":"uint256"}],"stateMutability":"view"},{"type":"function","name":"priceAtExpiry","inputs":[],"outputs":[{"name":"","type":"uint256","internalType":"uint256"}],"stateMutability":"view"},{"type":"function","name":"reclaim","inputs":[{"name":"realShort","type":"address","internalType":"address"}],"outputs":[],"stateMutability":"nonpayable"},{"type":"function","name":"resolve","inputs":[],"outputs":[],"stateMutability":"nonpayable"},{"type":"function","name":"setFullPayLine","inputs":[{"name":"_fullPayLine1e18","type":"uint256","internalType":"uint256"}],"outputs":[],"stateMutability":"nonpayable"},{"type":"function","name":"short","inputs":[],"outputs":[{"name":"","type":"address","internalType":"address"}],"stateMutability":"view"},{"type":"function","name":"strikePrice","inputs":[],"outputs":[{"name":"","type":"uint256","internalType":"uint256"}],"stateMutability":"view"},{"type":"function","name":"strikeSymbol","inputs":[],"outputs":[{"name":"","type":"string","internalType":"string"}],"stateMutability":"view"},{"type":"function","name":"strikeToken","inputs":[],"outputs":[{"name":"","type":"address","internalType":"contract IERC20"}],"stateMutability":"view"},{"type":"function","name":"underlyingSymbol","inputs":[],"outputs":[{"name":"","type":"string","internalType":"string"}],"stateMutability":"view"},{"type":"function","name":"underlyingToken","inputs":[],"outputs":[{"name":"","type":"address","internalType":"contract IERC20"}],"stateMutability":"view"},{"type":"event","name":"FullPayLineSet","inputs":[{"name":"fullPayLine1e18","type":"uint256","indexed":false,"internalType":"uint256"}],"anonymous":false},{"type":"event","name":"FundingRefunded","inputs":[{"name":"maker","type":"address","indexed":true,"internalType":"address"},{"name":"token","type":"address","indexed":false,"internalType":"address"},{"name":"amount","type":"uint256","indexed":false,"internalType":"uint256"}],"anonymous":false},{"type":"event","name":"GenieActivated","inputs":[{"name":"long","type":"address","indexed":true,"internalType":"address"},{"name":"premiumPaid","type":"uint256","indexed":false,"internalType":"uint256"},{"name":"expiry","type":"uint256","indexed":false,"internalType":"uint256"}],"anonymous":false},{"type":"event","name":"GenieCreated","inputs":[{"name":"maker","type":"address","indexed":true,"internalType":"address"}],"anonymous":false},{"type":"event","name":"GenieExpiredUnused","inputs":[{"name":"short","type":"address","indexed":true,"internalType":"address"}],"anonymous":false},{"type":"event","name":"GenieFunded","inputs":[{"name":"maker","type":"address","indexed":true,"internalType":"address"},{"name":"positionSize","type":"uint256","indexed":false,"internalType":"uint256"}],"anonymous":false},{"type":"event","name":"GenieSettled","inputs":[{"name":"long","type":"address","indexed":true,"internalType":"address"},{"name":"payout","type":"uint256","indexed":false,"internalType":"uint256"},{"name":"sameAsPayout","type":"uint256","indexed":false,"internalType":"uint256"}],"anonymous":false},{"type":"event","name":"PriceResolved","inputs":[{"name":"underlyingSymbol","type":"string","indexed":false,"internalType":"string"},{"name":"strikeSymbol","type":"string","indexed":false,"internalType":"string"},{"name":"priceAtExpiry","type":"uint256","indexed":false,"internalType":"uint256"},{"name":"resolvedAt","type":"uint256","indexed":false,"internalType":"uint256"}],"anonymous":false},{"type":"error","name":"AddressEmptyCode","inputs":[{"name":"target","type":"address","internalType":"address"}]},{"type":"error","name":"AddressInsufficientBalance","inputs":[{"name":"account","type":"address","internalType":"address"}]},{"type":"error","name":"FailedInnerCall","inputs":[]},{"type":"error","name":"SafeERC20FailedOperation","inputs":[{"name":"token","type":"address","internalType":"address"}]}],"bytecode":{"object":"0x6080806040523461001657611f41908161001b8239f35b5f80fdfe608060408181526004361015610013575f80fd5b5f91823560e01c90816307bfce37146117a2575080631b6b7298146114035780631c49bc6714610e9257806322f3e2d414610e6f5780632495a59914610e475780632810e1d614610c5957806338bea4cb14610c3257806350655d8c14610c065780635ead8fa614610be85780636032e1a714610bc057806376a9864314610ba5578063784a8c7414610aa15780637c65430314610a7b5780637dc0d1d0146106ae57806384f523ad14610a5d5780638895332214610a3f5780638c3199a514610a1757806392fe281a146109f1578063a65e2cfd146106da578063b18b78dd146106ae578063c1300a1714610618578063c52987cf146105fa578063cb2ef6f71461058d578063d7b95e7c1461056f578063d90a730e1461049f578063dbb3f5371461047c578063e0a73a931461045e578063e184c9be14610440578063f0c628d21461025b5763fc772c8b14610169575f80fd5b34610257576020366003190112610257576101826117dd565b60025490916001600160a01b039161019d90831633146118f6565b600b54916101ad60ff841661195a565b6101bb600a54421015611a92565b6101cb60ff8460081c1615611aca565b808554169316928303610214575061ffff191661010017600b556101ed611b8f565b7f1a7feb53619b88119f24a748048bdae0275511f6100adcc4e4d70a6232c1d8d18280a280f35b5162461bcd60e51b815260206004820152601b60248201527f43616c6c6572206e6f7420617574686f72697a65642073686f727400000000006044820152606490fd5b5080fd5b5034610257576020908160031936011261043c576102776117dd565b6002546001600160a01b0393919061029290851633146118f6565b600b5460ff8160101c16156104075760ff166103d357600d5460101c60ff16156103765784549084821661033b578416906001600160601b0360a01b161784555b600160ff19600b541617600b55600e5442019283421161032757907f7414337d2923a2f0d99917ea7979f18bbedf5e590e26a1f849dc1091e56332bd929184600a556001541693825191868352820152a280f35b634e487b7160e01b85526011600452602485fd5b835162461bcd60e51b815260048101849052601460248201527314da1bdc9d08185b1c9958591e481a9bda5b995960621b6044820152606490fd5b60015490848216610399578416906001600160601b0360a01b16176001556102d3565b835162461bcd60e51b8152600481018490526013602482015272131bdb99c8185b1c9958591e481a9bda5b9959606a1b6044820152606490fd5b50606491519062461bcd60e51b82526004820152600e60248201526d416c72656164792061637469766560901b6044820152fd5b835162461bcd60e51b815260048101849052600e60248201526d139bdd08199d5b991959081e595d60921b6044820152606490fd5b8280fd5b5034610257578160031936011261025757602090600a549051908152f35b50346102575781600319360112610257576020906009549051908152f35b503461025757816003193601126102575760209060ff600d541690519015158152f35b50903461056c578060031936011261056c575080515f916005546104c281611877565b8084529060019081811690811561054457506001146104fb575b50506104ed826104f79403836117f3565b51918291826118af565b0390f35b60055f90815294505f80516020611ecc8339815191525b82861061052c57505050918101602001916104ed826104dc565b80546020878701810191909152909501948101610512565b6104f7965085925060209150926104ed9360ff191682840152151560051b82010194506104dc565b80fd5b5034610257578160031936011261025757602090600c549051908152f35b50903461056c578060031936011261056c575080518181019181831067ffffffffffffffff8411176105e6576104f7928152601082526f504f4c594e4f4d49414c5f47454e494560801b602083015251918291826118af565b634e487b7160e01b5f52604160045260245ffd5b50346102575781600319360112610257576020906007549051908152f35b50903461056c578060031936011261056c575080515f9160065461063b81611877565b8084529060019081811690811561054457506001146106655750506104ed826104f79403836117f3565b60065f90815294505f80516020611eec8339815191525b82861061069657505050918101602001916104ed826104dc565b8054602087870181019190915290950194810161067c565b5034610257578160031936011261025757600b54905160189190911c6001600160a01b03168152602090f35b50346102575780600319360112610257576002546024916001600160a01b0391600435919084359061070f90851633146118f6565b600b549060ff8260101c166109bd57831561097a57801561093e57600d549360ff8560101c165f146108865786602087600454168651928380926370a0823160e01b82523060048301525afa90811561087c579082918a91610844575b5003610801575b670de0b6b3a7640000808202918204036107ee576008549687156107db5750869004600755600e5562ff000019166201000017600b555192835260181c16907fecc2d26bdcdba0890f1423ac13345453fc154d2505c7fbdb7abe090a6349517a90602090a280f35b634e487b7160e01b5f9081526012600452fd5b634e487b7160e01b885260116004528688fd5b835162461bcd60e51b815260206004820152601f818901527f47454e49453a20696e636f727265637420737472696b652066756e64696e67006044820152606490fd5b9150506020813d8211610874575b8161085f602093836117f3565b81010312610870578190515f61076c565b5f80fd5b3d9150610852565b85513d8b823e3d90fd5b86602087600354168651928380926370a0823160e01b82523060048301525afa90811561087c57899161090d575b50600854111561077357835162461bcd60e51b8152602060048201526023818901527f47454e49453a20696e636f727265637420756e6465726c79696e672066756e64604482015262696e6760e81b6064820152608490fd5b90506020813d8211610936575b81610927602093836117f3565b8101031261087057515f6108b4565b3d915061091a565b825162461bcd60e51b81526020600482015260168188015275047454e49453a206578706972795365636f6e64733d360541b6044820152606490fd5b825162461bcd60e51b8152602060048201526017818801527f47454e49453a20737472696b654e6f74696f6e616c3d300000000000000000006044820152606490fd5b825162461bcd60e51b815260206004820152600e818801526d105b1c9958591e48199d5b99195960921b6044820152606490fd5b503461025757816003193601126102575760209060ff600b5460081c1690519015158152f35b503461025757816003193601126102575760045490516001600160a01b039091168152602090f35b5034610257578160031936011261025757602090600e549051908152f35b50346102575781600319360112610257576020906008549051908152f35b503461025757816003193601126102575760209060ff600b5460101c1690519015158152f35b50346102575760203660031901126102575760043590610acc60018060a01b036002541633146118f6565b600b5460ff8160101c16159081610b99575b5015610b565760018210610b1d57816020917f496b3ee7aa603cd53382c5026b2e8b4214151faac72dcf039b5802edaede69f19360105551908152a180f35b5162461bcd60e51b8152602060048201526013602482015272496e76616c69642066756c6c5061794c696e6560681b6044820152606490fd5b5162461bcd60e51b815260206004820152601a60248201527f546f6f206c61746520746f2073657420706172616d65746572730000000000006044820152606490fd5b60ff915016155f610ade565b50346102575781600319360112610257576020905160018152f35b503461025757816003193601126102575760025490516001600160a01b039091168152602090f35b50346102575781600319360112610257576020906010549051908152f35b5034610257578160031936011261025757600d54905160189190911c6001600160a01b03168152602090f35b5034610257578160031936011261025757905490516001600160a01b039091168152602090f35b50903461056c5760031991818336011261025757600b54610c7c60ff821661195a565b600a544210610e0c57600d5460ff8116610dd557610ccb93948351809363861a210560e01b8252856004830152610cb560448301611993565b9282840301602483015281806020988995611a21565b039160181c6001600160a01b03165afa918215610dcb578592610d9c575b508115610d585791816001610d48947fa60f416ed7a87ce606d905a15dbcc035e8cc9278a0e64aeab945456776ba975a9694600c5560ff191617600d55815193849360808552610d3b60808601611993565b9085820390860152611a21565b918301524260608301520390a180f35b825162461bcd60e51b815260048101859052601960248201527f496e76616c69642070726963652066726f6d206f7261636c65000000000000006044820152606490fd5b9091508381813d8311610dc4575b610db481836117f3565b810103126108705751905f610ce9565b503d610daa565b83513d87823e3d90fd5b825162461bcd60e51b815260206004820152601060248201526f105b1c9958591e481c995cdbdb1d995960821b6044820152606490fd5b815162461bcd60e51b8152602060048201526014602482015273546f6f206561726c7920746f207265736f6c766560601b6044820152606490fd5b503461025757816003193601126102575760035490516001600160a01b039091168152602090f35b503461025757816003193601126102575760209060ff600b541690519015158152f35b50903461056c5761014036600319011261056c57610eae6117dd565b610eb66117c7565b926044356001600160a01b038116908190036108705760643567ffffffffffffffff81116113ff57610eec903690600401611831565b9060843567ffffffffffffffff81116113fb57610f0d903690600401611831565b95610104356001600160a01b03811690036108705761012435936001600160a01b038516850361087057600d549060ff8260081c166113c25760e43561137f5760c43515611344575086546001600160a01b03199081166001600160a01b0388811691909117895562ff0100600160b81b0319909216601888901b6301000000600160b81b03161761010017600d55600380548216939092169290921790556004805490911691909117905580519067ffffffffffffffff8211611330578190610fd8600554611877565b601f81116112c1575b50602090601f831160011461124d578692611242575b50508160011b915f199060031b1c1916176005555b835167ffffffffffffffff811161122e57611028600654611877565b601f81116111de575b506020601f821160011461116c578190859660ff959692611161575b50508160011b915f199060031b1c1916176006555b600d805462ff0000191660a4351515601090811b62ff000016919091179182905560c4356008556009869055600b80546301000000600160b81b0319166101043560181b6301000000600160b81b0316179055600280546001600160a01b0319166001600160a01b0390941693909317909255901c161561114b5760018060a01b03166001600160601b0360a01b60015416176001556001600160601b0360a01b81541681555b670de0b6b3a7640000601055600d5460181c6001600160a01b03167f576c193f725a7141a0944a54305979d93256ffdb9c9950bd11d5fe49ede4e0bd8280a280f35b50600180546001600160a01b0319169055611109565b015190505f8061104d565b600685525f80516020611eec83398151915295601f198316865b8181106111c657509160ff959697918460019594106111ae575b505050811b01600655611062565b01515f1960f88460031b161c191690555f80806111a0565b83830151895560019098019760209384019301611186565b600685525f80516020611eec833981519152601f830160051c81019160208410611224575b601f0160051c01905b8181106112195750611031565b85815560010161120c565b9091508190611203565b634e487b7160e01b84526041600452602484fd5b015190505f80610ff7565b9250600586525f80516020611ecc8339815191529086935b601f19841685106112a6576001945083601f1981161061128e575b505050811b0160055561100c565b01515f1960f88460031b161c191690555f8080611280565b81810151835560209485019460019093019290910190611265565b90915060058652601f830160051c5f80516020611ecc833981519152016020841061131c575b908392915b601f820160051c5f80516020611ecc83398151915201811061130e5750610fe1565b8781558493506001016112ec565b505f80516020611ecc8339815191526112e7565b634e487b7160e01b85526041600452602485fd5b5162461bcd60e51b8152602060048201526015602482015274047454e49453a20706f736974696f6e53697a653d3605c1b6044820152606490fd5b5162461bcd60e51b815260206004820152601860248201527f47454e49453a207072656d69756d206d757374206265203000000000000000006044820152606490fd5b5162461bcd60e51b8152602060048201526013602482015272105b1c9958591e481a5b9a5d1a585b1a5e9959606a1b6044820152606490fd5b8580fd5b8480fd5b503461025757806003193601126102575761141c6117c7565b9060018060a01b03611433816002541633146118f6565b600b549061144360ff831661195a565b611451600a54421015611a92565b61146160ff8360081c1615611aca565b60ff600d54161561176957808060015416941693840361172557600754600c548115158061171c575b156116e9576114c1670de0b6b3a7640000926114bc6114b782866114b060085483611933565b0495611b0a565b611b22565b611b61565b678ac7230489e800008082136116e1575b50678ac7230489e7ffff198082126116d9575b50826114f18280611b3f565b0583611509816115018585611b3f565b059283611b3f565b056005820291808305600514901517156116c5579061152791611b0a565b8160021b91808305600414901517156116b15788828201928312911290801582169115161761168e5761155c61156591611b22565b60105490611b61565b670de0b6b3a763ffff198082126116a9575b508281136116a2575b8281019088848312911290801582169115161761168e57916115b96101009260028a969505868112611687575b83811361168057611933565b049361ffff191617600b556115cc611b8f565b60025416803b15610257578190602485518094819363d3dc581960e01b83528760048401525af18015610dcb57611631575b50907f1f7b59e7408a5eda471d7328f56c4b76fe7595e32c2319c7da4904919b5214b7918151908082526020820152a280f35b67ffffffffffffffff819592951161166c578252927f1f7b59e7408a5eda471d7328f56c4b76fe7595e32c2319c7da4904919b5214b76115fe565b634e487b7160e01b82526041600452602482fd5b5082611933565b50856115ad565b634e487b7160e01b88526011600452602488fd5b5081611580565b90505f611577565b634e487b7160e01b89526011600452602489fd5b634e487b7160e01b8a52601160045260248afd5b90505f6114e5565b90505f6114d2565b845162461bcd60e51b815260206004820152600c60248201526b556e7365742070726963657360a01b6044820152606490fd5b5080151561148a565b825162461bcd60e51b815260206004820152601a60248201527f43616c6c6572206e6f7420617574686f72697a6564206c6f6e670000000000006044820152606490fd5b825162461bcd60e51b8152602060048201526012602482015271141c9a58d9481b9bdd081c995cdbdb1d995960721b6044820152606490fd5b8390346102575781600319360112610257576001546001600160a01b03168152602090f35b602435906001600160a01b038216820361087057565b600435906001600160a01b038216820361087057565b90601f8019910116810190811067ffffffffffffffff8211176105e657604052565b67ffffffffffffffff81116105e657601f01601f191660200190565b81601f820112156108705780359061184882611815565b9261185660405194856117f3565b8284526020838301011161087057815f926020809301838601378301015290565b90600182811c921680156118a5575b602083101461189157565b634e487b7160e01b5f52602260045260245ffd5b91607f1691611886565b602080825282518183018190529093925f5b8281106118e257505060409293505f838284010152601f8019910116010190565b8181018601518482016040015285016118c1565b156118fd57565b60405162461bcd60e51b815260206004820152600e60248201526d4f6e6c792047656e6965426f6f6b60901b6044820152606490fd5b8181029291811591840414171561194657565b634e487b7160e01b5f52601160045260245ffd5b1561196157565b60405162461bcd60e51b815260206004820152600a6024820152694e6f742061637469766560b01b6044820152606490fd5b6005545f92916119a282611877565b80825291600190818116908115611a0457506001146119c057505050565b9192935060055f525f80516020611ecc833981519152915f925b8484106119ec57505060209250010190565b805460208585018101919091529093019281016119da565b915050602093945060ff929192191683830152151560051b010190565b6006545f9291611a3082611877565b80825291600190818116908115611a045750600114611a4e57505050565b9192935060065f525f80516020611eec833981519152915f925b848410611a7a57505060209250010190565b80546020858501810191909152909301928101611a68565b15611a9957565b60405162461bcd60e51b8152602060048201526009602482015268546f6f206561726c7960b81b6044820152606490fd5b15611ad157565b60405162461bcd60e51b8152602060048201526011602482015270105b1c9958591e48195e195c98da5cd959607a1b6044820152606490fd5b81810392915f13801582851316918412161761194657565b90670de0b6b3a76400009182810292818405149015171561194657565b81810292915f8212600160ff1b82141661194657818405149015171561194657565b8115611b7b57600160ff1b81145f19831416611946570590565b634e487b7160e01b5f52601260045260245ffd5b600f5460ff8116611d845760ff1916600117600f55600d54601081901c60ff1615611c9c575060018060a01b0380600454166040516370a0823160e01b8152306004820152602081602481855afa908115611c91575f91611c60575b5080611bf657505050565b611c2a817fa7d2bc2d53b8added70ccf0bad7e8eb9dbb4703f2928383a5b2d8b264f6ed2629385600d5460181c1690611d87565b82600d5460181c169260045416611c5b6040519283928360209093929193604081019460018060a01b031681520152565b0390a2565b906020823d8211611c89575b81611c79602093836117f3565b8101031261056c5750515f611beb565b3d9150611c6c565b6040513d5f823e3d90fd5b6003546040516370a0823160e01b81523060048201526001600160a01b0392918316602082602481845afa918215611c91575f92611d51575b5081611ce2575b50505050565b81611d1491857fa7d2bc2d53b8added70ccf0bad7e8eb9dbb4703f2928383a5b2d8b264f6ed2629560181c1690611d87565b82600d5460181c169260035416611d456040519283928360209093929193604081019460018060a01b031681520152565b0390a25f808080611cdc565b90916020823d8211611d7c575b81611d6b602093836117f3565b8101031261056c575051905f611cd5565b3d9150611d5e565b50565b60405163a9059cbb60e01b602082019081526001600160a01b03939093166024820152604480820194909452928352611e0890611dc56064856117f3565b60018060a01b0316925f80938192519082875af13d15611e60573d90611dea82611815565b91611df860405193846117f3565b82523d84602084013e5b84611e68565b908151918215159283611e38575b505050611e205750565b60249060405190635274afe760e01b82526004820152fd5b81929350906020918101031261025757602001519081159182150361056c57505f8080611e16565b606090611e02565b90611e8f5750805115611e7d57805190602001fd5b604051630a12f52160e11b8152600490fd5b81511580611ec2575b611ea0575090565b604051639996b31560e01b81526001600160a01b039091166004820152602490fd5b50803b15611e9856fe036b6384b5eca791c62761152d0c79bb0604c104a5fb6f4eb0703f3154bb3db0f652222313e28459528d920b65115c16c04f3efc82aaedc97be59f3f377c0d3fa2646970667358221220e18b68e9cee42c2ead8566fb311a0ed5e051fc44c1f80a638aa2c7e8caf6eb4664736f6c63430008140033","linkReferences":{}},"methodIdentifiers":{"MIN_FULLPAYLINE()":"76a98643","contractType()":"cb2ef6f7","enterAsLong(address)":"f0c628d2","exercise(uint256,address)":"1b6b7298","expiry()":"e184c9be","fullPayLine1e18()":"5ead8fa6","fund(uint256,uint256)":"a65e2cfd","genieBook()":"6032e1a7","getOracleAddress()":"b18b78dd","initialize(address,address,address,string,string,uint256,uint256,uint256,address,address)":"1c49bc67","isActive()":"22f3e2d4","isExercised()":"92fe281a","isFunded()":"7c654303","isResolved()":"dbb3f537","long()":"07bfce37","maker()":"50655d8c","makerExpirySeconds()":"88953322","oracle()":"7dc0d1d0","positionSize()":"84f523ad","premium()":"e0a73a93","priceAtExpiry()":"d7b95e7c","reclaim(address)":"fc772c8b","resolve()":"2810e1d6","setFullPayLine(uint256)":"784a8c74","short()":"38bea4cb","strikePrice()":"c52987cf","strikeSymbol()":"c1300a17","strikeToken()":"8c3199a5","underlyingSymbol()":"d90a730e","underlyingToken()":"2495a599"},"id":3}