{"abi":[{"type":"function","name":"enterAsLong","inputs":[{"name":"realLong","type":"address","internalType":"address"}],"outputs":[],"stateMutability":"nonpayable"},{"type":"function","name":"exercise","inputs":[{"name":"","type":"uint256","internalType":"uint256"},{"name":"realLong","type":"address","internalType":"address"}],"outputs":[],"stateMutability":"nonpayable"},{"type":"function","name":"expiry","inputs":[],"outputs":[{"name":"","type":"uint256","internalType":"uint256"}],"stateMutability":"view"},{"type":"function","name":"fund","inputs":[{"name":"strikeNotional","type":"uint256","internalType":"uint256"},{"name":"expirySeconds","type":"uint256","internalType":"uint256"}],"outputs":[],"stateMutability":"nonpayable"},{"type":"function","name":"futureType","inputs":[],"outputs":[{"name":"","type":"string","internalType":"string"}],"stateMutability":"view"},{"type":"function","name":"futuresBook","inputs":[],"outputs":[{"name":"","type":"address","internalType":"address"}],"stateMutability":"view"},{"type":"function","name":"getOracleAddress","inputs":[],"outputs":[{"name":"","type":"address","internalType":"address"}],"stateMutability":"view"},{"type":"function","name":"initialize","inputs":[{"name":"_short","type":"address","internalType":"address"},{"name":"_underlyingToken","type":"address","internalType":"address"},{"name":"_strikeToken","type":"address","internalType":"address"},{"name":"_underlyingSymbol","type":"string","internalType":"string"},{"name":"_strikeSymbol","type":"string","internalType":"string"},{"name":"_sideFlag","type":"uint256","internalType":"uint256"},{"name":"_positionSize","type":"uint256","internalType":"uint256"},{"name":"_premiumMustBeZero","type":"uint256","internalType":"uint256"},{"name":"_oracle","type":"address","internalType":"address"},{"name":"_futuresBook","type":"address","internalType":"address"}],"outputs":[],"stateMutability":"nonpayable"},{"type":"function","name":"isActive","inputs":[],"outputs":[{"name":"","type":"bool","internalType":"bool"}],"stateMutability":"view"},{"type":"function","name":"isExercised","inputs":[],"outputs":[{"name":"","type":"bool","internalType":"bool"}],"stateMutability":"view"},{"type":"function","name":"isFunded","inputs":[],"outputs":[{"name":"","type":"bool","internalType":"bool"}],"stateMutability":"view"},{"type":"function","name":"isResolved","inputs":[],"outputs":[{"name":"","type":"bool","internalType":"bool"}],"stateMutability":"view"},{"type":"function","name":"long","inputs":[],"outputs":[{"name":"","type":"address","internalType":"address"}],"stateMutability":"view"},{"type":"function","name":"maker","inputs":[],"outputs":[{"name":"","type":"address","internalType":"address"}],"stateMutability":"view"},{"type":"function","name":"makerExpirySeconds","inputs":[],"outputs":[{"name":"","type":"uint256","internalType":"uint256"}],"stateMutability":"view"},{"type":"function","name":"oracle","inputs":[],"outputs":[{"name":"","type":"address","internalType":"contract SimuOracle"}],"stateMutability":"view"},{"type":"function","name":"positionSize","inputs":[],"outputs":[{"name":"","type":"uint256","internalType":"uint256"}],"stateMutability":"view"},{"type":"function","name":"premium","inputs":[],"outputs":[{"name":"","type":"uint256","internalType":"uint256"}],"stateMutability":"view"},{"type":"function","name":"priceAtExpiry","inputs":[],"outputs":[{"name":"","type":"uint256","internalType":"uint256"}],"stateMutability":"view"},{"type":"function","name":"reclaim","inputs":[{"name":"realShort","type":"address","internalType":"address"}],"outputs":[],"stateMutability":"nonpayable"},{"type":"function","name":"resolve","inputs":[],"outputs":[],"stateMutability":"nonpayable"},{"type":"function","name":"short","inputs":[],"outputs":[{"name":"","type":"address","internalType":"address"}],"stateMutability":"view"},{"type":"function","name":"strikePrice","inputs":[],"outputs":[{"name":"","type":"uint256","internalType":"uint256"}],"stateMutability":"view"},{"type":"function","name":"strikeSymbol","inputs":[],"outputs":[{"name":"","type":"string","internalType":"string"}],"stateMutability":"view"},{"type":"function","name":"strikeToken","inputs":[],"outputs":[{"name":"","type":"address","internalType":"contract IERC20"}],"stateMutability":"view"},{"type":"function","name":"underlyingSymbol","inputs":[],"outputs":[{"name":"","type":"string","internalType":"string"}],"stateMutability":"view"},{"type":"function","name":"underlyingToken","inputs":[],"outputs":[{"name":"","type":"address","internalType":"contract IERC20"}],"stateMutability":"view"},{"type":"event","name":"FundingRefunded","inputs":[{"name":"maker","type":"address","indexed":true,"internalType":"address"},{"name":"token","type":"address","indexed":false,"internalType":"address"},{"name":"amount","type":"uint256","indexed":false,"internalType":"uint256"}],"anonymous":false},{"type":"event","name":"FutureActivated","inputs":[{"name":"long","type":"address","indexed":true,"internalType":"address"},{"name":"premiumPaid","type":"uint256","indexed":false,"internalType":"uint256"},{"name":"expiry","type":"uint256","indexed":false,"internalType":"uint256"}],"anonymous":false},{"type":"event","name":"FutureCreated","inputs":[{"name":"maker","type":"address","indexed":true,"internalType":"address"}],"anonymous":false},{"type":"event","name":"FutureExpiredUnused","inputs":[{"name":"short","type":"address","indexed":true,"internalType":"address"}],"anonymous":false},{"type":"event","name":"FutureFunded","inputs":[{"name":"maker","type":"address","indexed":true,"internalType":"address"},{"name":"positionSize","type":"uint256","indexed":false,"internalType":"uint256"}],"anonymous":false},{"type":"event","name":"FutureSettled","inputs":[{"name":"long","type":"address","indexed":true,"internalType":"address"},{"name":"pnlPaid","type":"uint256","indexed":false,"internalType":"uint256"},{"name":"sameAsPnl","type":"uint256","indexed":false,"internalType":"uint256"}],"anonymous":false},{"type":"event","name":"PriceResolved","inputs":[{"name":"underlyingSymbol","type":"string","indexed":false,"internalType":"string"},{"name":"strikeSymbol","type":"string","indexed":false,"internalType":"string"},{"name":"priceAtExpiry","type":"uint256","indexed":false,"internalType":"uint256"},{"name":"resolvedAt","type":"uint256","indexed":false,"internalType":"uint256"}],"anonymous":false},{"type":"error","name":"AddressEmptyCode","inputs":[{"name":"target","type":"address","internalType":"address"}]},{"type":"error","name":"AddressInsufficientBalance","inputs":[{"name":"account","type":"address","internalType":"address"}]},{"type":"error","name":"FailedInnerCall","inputs":[]},{"type":"error","name":"SafeERC20FailedOperation","inputs":[{"name":"token","type":"address","internalType":"address"}]}],"bytecode":{"object":"0x6080806040523461001657611a83908161001b8239f35b5f80fdfe608060408181526004361015610013575f80fd5b5f91823560e01c90816307bfce371461133c575080631b6b7298146110eb5780631c49bc6714610b5757806322f3e2d414610b345780632495a59914610b0c5780632810e1d61461096c57806338bea4cb1461094557806345c820af1461091d57806350655d8c146108f157806352c65d3d1461087c5780637c654303146108565780637dc0d1d01461049f57806384f523ad14610838578063889533221461081a5780638c3199a5146107f257806392fe281a146107cc578063a65e2cfd146104cb578063b18b78dd1461049f578063c1300a171461047b578063c52987cf1461045d578063d7b95e7c1461043f578063d90a730e14610406578063dbb3f537146103e3578063e0a73a93146103c5578063e184c9be146103a7578063f0c628d2146102315763fc772c8b14610148575f80fd5b3461022d57602036600319011261022d57610161611377565b60025490916001600160a01b039161017c90831633146115a2565b600b549161018c60ff841661161f565b61019a600a54421015611658565b6101aa60ff8460081c1615611690565b8085541693169283036101f3575061ff00191661010017600b556101cc6116f1565b7ffaaabf0894f388e92b9bf0de644395567da49d23ba2661955bc7bf23d4d5eb018280a280f35b5162461bcd60e51b8152602060048201526014602482015273139bdd08185d5d1a1bdc9a5e9959081cda1bdc9d60621b6044820152606490fd5b5080fd5b503461022d57602036600319011261022d5761024b611377565b6002546001600160a01b0392919061026690841633146115a2565b600b5460ff8160101c16156103725760ff1661033d57600d5460101c60ff1615610315578284549161029a828416156115e1565b16906001600160601b0360a01b161783555b600160ff19600b541617600b55600e5442019182421161030157907fe434930c7893705aec5441443b2d8cd63e9c0ba320a18bedf3fc5a8466e9caf69183600a5560015416928151908582526020820152a280f35b634e487b7160e01b84526011600452602484fd5b8260015491610326828416156115e1565b16906001600160601b0360a01b16176001556102ac565b815162461bcd60e51b815260206004820152600e60248201526d416c72656164792061637469766560901b6044820152606490fd5b825162461bcd60e51b815260206004820152600e60248201526d139bdd08199d5b991959081e595d60921b6044820152606490fd5b503461022d578160031936011261022d57602090600a549051908152f35b503461022d578160031936011261022d576020906009549051908152f35b503461022d578160031936011261022d5760209060ff600d541690519015158152f35b503461022d578160031936011261022d57805161043b916104318261042a81611490565b038361138d565b5191829182611411565b0390f35b503461022d578160031936011261022d57602090600c549051908152f35b503461022d578160031936011261022d576020906007549051908152f35b503461022d578160031936011261022d57805161043b916104318261042a8161151e565b503461022d578160031936011261022d57600b54905160189190911c6001600160a01b03168152602090f35b503461022d578060031936011261022d576002546024916001600160a01b0391600435919084359061050090851633146115a2565b600b549060ff8260101c1661079857831561075d57801561072357600d549360ff8560101c165f146106775786602087600454168651928380926370a0823160e01b82523060048301525afa90811561066d579082918a91610635575b50036105f2575b670de0b6b3a7640000808202918204036105df576008549687156105cc5750869004600755600e5562ff000019166201000017600b555192835260181c16907f7bbd832c62ba43aeb8eacd4bb63a4e1f09c87347a6bb6c742580e8b598bd1f3790602090a280f35b634e487b7160e01b5f9081526012600452fd5b634e487b7160e01b885260116004528688fd5b835162461bcd60e51b8152602060048201526017818901527f4655543a2062616420737472696b652066756e64696e670000000000000000006044820152606490fd5b9150506020813d8211610665575b816106506020938361138d565b81010312610661578190515f61055d565b5f80fd5b3d9150610643565b85513d8b823e3d90fd5b86602087600354168651928380926370a0823160e01b82523060048301525afa90811561066d5789916106f2575b50600854111561056457835162461bcd60e51b815260206004820152601b818901527f4655543a2062616420756e6465726c79696e672066756e64696e6700000000006044820152606490fd5b90506020813d821161071b575b8161070c6020938361138d565b8101031261066157515f6106a5565b3d91506106ff565b825162461bcd60e51b8152602060048201526014818801527304655543a206578706972795365636f6e64733d360641b6044820152606490fd5b825162461bcd60e51b8152602060048201526015818801527404655543a20737472696b654e6f74696f6e616c3d3605c1b6044820152606490fd5b825162461bcd60e51b815260206004820152600e818801526d105b1c9958591e48199d5b99195960921b6044820152606490fd5b503461022d578160031936011261022d5760209060ff600b5460081c1690519015158152f35b503461022d578160031936011261022d5760045490516001600160a01b039091168152602090f35b503461022d578160031936011261022d57602090600e549051908152f35b503461022d578160031936011261022d576020906008549051908152f35b503461022d578160031936011261022d5760209060ff600b5460101c1690519015158152f35b5090346108ee57806003193601126108ee575080518181019181831067ffffffffffffffff8411176108da5761043b92815260158252744c494e4541525f46494e4954455f4655545552455360581b60208301525191829182611411565b634e487b7160e01b5f52604160045260245ffd5b80fd5b503461022d578160031936011261022d57600d54905160189190911c6001600160a01b03168152602090f35b503461022d578160031936011261022d5760025490516001600160a01b039091168152602090f35b503461022d578160031936011261022d57905490516001600160a01b039091168152602090f35b5090346108ee5760031991818336011261022d57600b5461098f60ff821661161f565b61099d600a54421015611658565b600d5460ff8116610add576109e393948351809363861a210560e01b82528560048301526109cd60448301611490565b928284030160248301528180602098899561151e565b039160181c6001600160a01b03165afa918215610ad3578592610aa4575b508115610a705791816001610a60947fa60f416ed7a87ce606d905a15dbcc035e8cc9278a0e64aeab945456776ba975a9694600c5560ff191617600d55815193849360808552610a5360808601611490565b908582039086015261151e565b918301524260608301520390a180f35b825162461bcd60e51b815260048101859052600d60248201526c496e76616c696420707269636560981b6044820152606490fd5b9091508381813d8311610acc575b610abc818361138d565b810103126106615751905f610a01565b503d610ab2565b83513d87823e3d90fd5b825162461bcd60e51b815260206004820152600860248201526714995cdbdb1d995960c21b6044820152606490fd5b503461022d578160031936011261022d5760035490516001600160a01b039091168152602090f35b503461022d578160031936011261022d5760209060ff600b541690519015158152f35b5090346108ee576101403660031901126108ee57610b73611377565b610b7b611361565b926044356001600160a01b038116908190036106615760643567ffffffffffffffff81116110e757610bb19036906004016113cb565b9060843567ffffffffffffffff81116110e357610bd29036906004016113cb565b95610104356001600160a01b03811690036106615761012435936001600160a01b038516850361066157600d549060ff8260081c166110aa5760e43561106e5760c4351561103d575086546001600160a01b03199081166001600160a01b0388811691909117895562ff0100600160b81b0319909216601888901b6301000000600160b81b03161761010017600d55600380548216939092169290921790556004805490911691909117905580519067ffffffffffffffff8211611029578190610c9d600554611458565b601f8111610fba575b50602090601f8311600114610f46578692610f3b575b50508160011b915f199060031b1c1916176005555b835167ffffffffffffffff8111610f2757610ced600654611458565b601f8111610ec4575b506020601f8211600114610e3f578190859660ff959692610e34575b50508160011b915f199060031b1c1916176006555b600d805462ff0000191660a4351515601090811b62ff000016919091179182905560c4356008556009869055600b80546301000000600160b81b0319166101043560181b6301000000600160b81b0316179055600280546001600160a01b0319166001600160a01b0390941693909317909255901c1615610e045760018060a01b03166001600160601b0360a01b60015416176001556001600160601b0360a01b81541681555b600d5460181c6001600160a01b03167f2447a5130f9e0acdbce8830900477e1bc578b69c95c87044d29a906048e6d4348280a280f35b60018060a01b03166001600160601b0360a01b8254161781556001600160601b0360a01b60015416600155610dce565b015190505f80610d12565b600685527ff652222313e28459528d920b65115c16c04f3efc82aaedc97be59f3f377c0d3f95601f198316865b818110610eac57509160ff95969791846001959410610e94575b505050811b01600655610d27565b01515f1960f88460031b161c191690555f8080610e86565b83830151895560019098019760209384019301610e6c565b600685527ff652222313e28459528d920b65115c16c04f3efc82aaedc97be59f3f377c0d3f601f830160051c81019160208410610f1d575b601f0160051c01905b818110610f125750610cf6565b858155600101610f05565b9091508190610efc565b634e487b7160e01b84526041600452602484fd5b015190505f80610cbc565b9250600586525f80516020611a2e8339815191529086935b601f1984168510610f9f576001945083601f19811610610f87575b505050811b01600555610cd1565b01515f1960f88460031b161c191690555f8080610f79565b81810151835560209485019460019093019290910190610f5e565b90915060058652601f830160051c5f80516020611a2e8339815191520160208410611015575b908392915b601f820160051c5f80516020611a2e8339815191520181106110075750610ca6565b878155849350600101610fe5565b505f80516020611a2e833981519152610fe0565b634e487b7160e01b85526041600452602485fd5b5162461bcd60e51b815260206004820152600b60248201526a04655543a2073697a653d360ac1b6044820152606490fd5b5162461bcd60e51b815260206004820152601660248201527504655543a207072656d69756d206d75737420626520360541b6044820152606490fd5b5162461bcd60e51b8152602060048201526013602482015272105b1c9958591e481a5b9a5d1a585b1a5e9959606a1b6044820152606490fd5b8580fd5b8480fd5b503461022d578060031936011261022d57611104611361565b9060018060a01b0361111b816002541633146115a2565b600b549061112b60ff831661161f565b611139600a54421015611658565b61114960ff8360081c1615611690565b60ff600d5416156113095780806001541694169384036112cf57600754600c54811515806112c6575b1561129557818111156112875790611189916116d0565b600854908181029181830414901517156112735790610100670de0b6b3a76400008793049361ff00191617600b556111bf6116f1565b60025416803b1561022d578190602485518094819363d3dc581960e01b83528760048401525af18015610ad357611224575b50907f427069c8cccc1e9a4db47d472ff349ab88b09f7f3b06dc64e1f0f54e2de080d1918151908082526020820152a280f35b67ffffffffffffffff819592951161125f578252927f427069c8cccc1e9a4db47d472ff349ab88b09f7f3b06dc64e1f0f54e2de080d16111f1565b634e487b7160e01b82526041600452602482fd5b634e487b7160e01b86526011600452602486fd5b611290916116d0565b611189565b845162461bcd60e51b815260206004820152600a6024820152694261642070726963657360b01b6044820152606490fd5b50801515611172565b825162461bcd60e51b81526020600482015260136024820152724e6f7420617574686f72697a6564206c6f6e6760681b6044820152606490fd5b825162461bcd60e51b815260206004820152600c60248201526b139bdd081c995cdbdb1d995960a21b6044820152606490fd5b83903461022d578160031936011261022d576001546001600160a01b03168152602090f35b602435906001600160a01b038216820361066157565b600435906001600160a01b038216820361066157565b90601f8019910116810190811067ffffffffffffffff8211176108da57604052565b67ffffffffffffffff81116108da57601f01601f191660200190565b81601f82011215610661578035906113e2826113af565b926113f0604051948561138d565b8284526020838301011161066157815f926020809301838601378301015290565b602080825282518183018190529093925f5b82811061144457505060409293505f838284010152601f8019910116010190565b818101860151848201604001528501611423565b90600182811c92168015611486575b602083101461147257565b634e487b7160e01b5f52602260045260245ffd5b91607f1691611467565b6005545f929161149f82611458565b8082529160019081811690811561150157506001146114bd57505050565b9192935060055f525f80516020611a2e833981519152915f925b8484106114e957505060209250010190565b805460208585018101919091529093019281016114d7565b915050602093945060ff929192191683830152151560051b010190565b6006545f929161152d82611458565b80825291600190818116908115611501575060011461154b57505050565b9192935060065f527ff652222313e28459528d920b65115c16c04f3efc82aaedc97be59f3f377c0d3f915f925b84841061158a57505060209250010190565b80546020858501810191909152909301928101611578565b156115a957565b60405162461bcd60e51b815260206004820152601060248201526f4f6e6c792046757475726573426f6f6b60801b6044820152606490fd5b156115e857565b60405162461bcd60e51b815260206004820152600f60248201526e105b1c9958591e48195b9d195c9959608a1b6044820152606490fd5b1561162657565b60405162461bcd60e51b815260206004820152600a6024820152694e6f742061637469766560b01b6044820152606490fd5b1561165f57565b60405162461bcd60e51b8152602060048201526009602482015268546f6f206561726c7960b81b6044820152606490fd5b1561169757565b60405162461bcd60e51b8152602060048201526011602482015270105b1c9958591e48195e195c98da5cd959607a1b6044820152606490fd5b919082039182116116dd57565b634e487b7160e01b5f52601160045260245ffd5b600f5460ff81166118e65760ff1916600117600f55600d54601081901c60ff16156117fe575060018060a01b0380600454166040516370a0823160e01b8152306004820152602081602481855afa9081156117f3575f916117c2575b508061175857505050565b61178c817fa7d2bc2d53b8added70ccf0bad7e8eb9dbb4703f2928383a5b2d8b264f6ed2629385600d5460181c16906118e9565b82600d5460181c1692600454166117bd6040519283928360209093929193604081019460018060a01b031681520152565b0390a2565b906020823d82116117eb575b816117db6020938361138d565b810103126108ee5750515f61174d565b3d91506117ce565b6040513d5f823e3d90fd5b6003546040516370a0823160e01b81523060048201526001600160a01b0392918316602082602481845afa9182156117f3575f926118b3575b5081611844575b50505050565b8161187691857fa7d2bc2d53b8added70ccf0bad7e8eb9dbb4703f2928383a5b2d8b264f6ed2629560181c16906118e9565b82600d5460181c1692600354166118a76040519283928360209093929193604081019460018060a01b031681520152565b0390a25f80808061183e565b90916020823d82116118de575b816118cd6020938361138d565b810103126108ee575051905f611837565b3d91506118c0565b50565b60405163a9059cbb60e01b602082019081526001600160a01b0393909316602482015260448082019490945292835261196a9061192760648561138d565b60018060a01b0316925f80938192519082875af13d156119c2573d9061194c826113af565b9161195a604051938461138d565b82523d84602084013e5b846119ca565b90815191821515928361199a575b5050506119825750565b60249060405190635274afe760e01b82526004820152fd5b81929350906020918101031261022d5760200151908115918215036108ee57505f8080611978565b606090611964565b906119f157508051156119df57805190602001fd5b604051630a12f52160e11b8152600490fd5b81511580611a24575b611a02575090565b604051639996b31560e01b81526001600160a01b039091166004820152602490fd5b50803b156119fa56fe036b6384b5eca791c62761152d0c79bb0604c104a5fb6f4eb0703f3154bb3db0a26469706673582212202f4a62b525f980841944188d70dc0e5c011086f5465391a8efcabc0e139d360264736f6c63430008140033","linkReferences":{}},"methodIdentifiers":{"enterAsLong(address)":"f0c628d2","exercise(uint256,address)":"1b6b7298","expiry()":"e184c9be","fund(uint256,uint256)":"a65e2cfd","futureType()":"52c65d3d","futuresBook()":"45c820af","getOracleAddress()":"b18b78dd","initialize(address,address,address,string,string,uint256,uint256,uint256,address,address)":"1c49bc67","isActive()":"22f3e2d4","isExercised()":"92fe281a","isFunded()":"7c654303","isResolved()":"dbb3f537","long()":"07bfce37","maker()":"50655d8c","makerExpirySeconds()":"88953322","oracle()":"7dc0d1d0","positionSize()":"84f523ad","premium()":"e0a73a93","priceAtExpiry()":"d7b95e7c","reclaim(address)":"fc772c8b","resolve()":"2810e1d6","short()":"38bea4cb","strikePrice()":"c52987cf","strikeSymbol()":"c1300a17","strikeToken()":"8c3199a5","underlyingSymbol()":"d90a730e","underlyingToken()":"2495a599"},"id":1}