{"abi":[{"type":"constructor","inputs":[],"stateMutability":"nonpayable"},{"type":"function","name":"allTokens","inputs":[{"name":"","type":"uint256","internalType":"uint256"}],"outputs":[{"name":"","type":"address","internalType":"address"}],"stateMutability":"view"},{"type":"function","name":"getAllTokenData","inputs":[],"outputs":[{"name":"tokens","type":"address[]","internalType":"address[]"},{"name":"symbols","type":"string[]","internalType":"string[]"},{"name":"realPrices","type":"uint256[]","internalType":"uint256[]"},{"name":"price1e18s","type":"uint256[]","internalType":"uint256[]"},{"name":"timestamps","type":"uint256[]","internalType":"uint256[]"}],"stateMutability":"view"},{"type":"function","name":"getDerivedPriceBySymbols","inputs":[{"name":"symbolA","type":"string","internalType":"string"},{"name":"symbolB","type":"string","internalType":"string"}],"outputs":[{"name":"derivedPrice1e18","type":"uint256","internalType":"uint256"}],"stateMutability":"view"},{"type":"function","name":"getPrice","inputs":[{"name":"token","type":"address","internalType":"address"}],"outputs":[{"name":"realPrice","type":"uint256","internalType":"uint256"},{"name":"price1e18","type":"uint256","internalType":"uint256"},{"name":"lastUpdated","type":"uint256","internalType":"uint256"},{"name":"symbol","type":"string","internalType":"string"}],"stateMutability":"view"},{"type":"function","name":"getPriceBySymbol","inputs":[{"name":"symbol","type":"string","internalType":"string"}],"outputs":[{"name":"realPrice","type":"uint256","internalType":"uint256"},{"name":"price1e18","type":"uint256","internalType":"uint256"},{"name":"lastUpdated","type":"uint256","internalType":"uint256"},{"name":"token","type":"address","internalType":"address"}],"stateMutability":"view"},{"type":"function","name":"getTokenAt","inputs":[{"name":"index","type":"uint256","internalType":"uint256"}],"outputs":[{"name":"","type":"address","internalType":"address"}],"stateMutability":"view"},{"type":"function","name":"getTokenCount","inputs":[],"outputs":[{"name":"","type":"uint256","internalType":"uint256"}],"stateMutability":"view"},{"type":"function","name":"owner","inputs":[],"outputs":[{"name":"","type":"address","internalType":"address"}],"stateMutability":"view"},{"type":"function","name":"setPrice","inputs":[{"name":"token","type":"address","internalType":"address"},{"name":"symbol","type":"string","internalType":"string"},{"name":"realPrice","type":"uint256","internalType":"uint256"}],"outputs":[],"stateMutability":"nonpayable"},{"type":"function","name":"symbolToToken","inputs":[{"name":"","type":"string","internalType":"string"}],"outputs":[{"name":"","type":"address","internalType":"address"}],"stateMutability":"view"},{"type":"function","name":"tokenPrices","inputs":[{"name":"","type":"address","internalType":"address"}],"outputs":[{"name":"price1e18","type":"uint256","internalType":"uint256"},{"name":"realPrice","type":"uint256","internalType":"uint256"},{"name":"lastUpdated","type":"uint256","internalType":"uint256"},{"name":"symbol","type":"string","internalType":"string"}],"stateMutability":"view"},{"type":"event","name":"PriceSet","inputs":[{"name":"token","type":"address","indexed":true,"internalType":"address"},{"name":"symbol","type":"string","indexed":false,"internalType":"string"},{"name":"realPrice","type":"uint256","indexed":false,"internalType":"uint256"},{"name":"price1e18","type":"uint256","indexed":false,"internalType":"uint256"}],"anonymous":false}],"bytecode":{"object":"0x60808060405234610027575f80546001600160a01b03191633179055610f1b908161002c8239f35b5f80fdfe60406080815260049081361015610014575f80fd5b5f91823560e01c8063204120bc14610b8e57806341976e0914610ad1578063634282af14610aa757806378a8956714610a8a578063861a2105146108bb57806389f73520146108855780638da5cb5b1461085d5780639ebeef59146105e0578063a5bc29c214610563578063f817806f1461018a5763f86f359314610097575f80fd5b346101865760208060031936011261018257813567ffffffffffffffff811161017e576100c79036908401610de0565b808551928337600290820190815281900382019020546001600160a01b031691821561014a57508284836080965260018352209280519361010785610c38565b80548552600181015483860190815261012d600360028401549385890194855201610c8a565b606087015251945190519282519586528501528301526060820152f35b60649184519162461bcd60e51b8352820152601060248201526f14de5b589bdb081b9bdd08199bdd5b9960821b6044820152fd5b8480fd5b8380fd5b8280fd5b5082903461055f57606036600319011261055f576101a6610be6565b6024939067ffffffffffffffff90853582811161055b576101ca9036908601610de0565b8654909491936001600160a01b03939091841633036105285783169586156104f6576044359182156104c057670de0b6b3a7640000830294670de0b6b3a763ffff19848704016104ae57888a528960209b8c926003845260ff888420541615610444575b508a8a8a8980519561023f87610c38565b8c875261025a888801938c8552838901954287523691610e41565b9460608801958652815260018098522094518555518585015551600284015551948551948511610433575050600301928b6102958554610c00565b601f81116103eb575b50508b90601f841160011461035e579280808d9e948c9997947fdba6f8745e609da7081db74bb2d8560e1e8af8b19aa5a332d97e8fb77f2d58bd9e9f9760809d9c9a9894610353575b50501b915f199060031b1c19161790555b825185878237818187810160028152030190208a6bffffffffffffffffffffffff60a01b8254161790558251978896606088528160608901528888013785850187018b9052850152830152601f01601f19168101030190a280f35b015192505f806102e7565b848c528c8c209293929190601f1984168d5b8181106103d657509260809a999795927fdba6f8745e609da7081db74bb2d8560e1e8af8b19aa5a332d97e8fb77f2d58bd9d9e9f9592838e9b9996106103be575b505050811b0190556102f8565b01515f1960f88460031b161c191690558e80806103b1565b82840151855593860193928f01928f01610370565b858d52818d2090601f860160051c8201928610610429575b601f0160051c019083905b82811061041e57508d915061029e565b8d815501839061040e565b9091508190610403565b634e487b7160e01b8d52604190528bfd5b9150915083546801000000000000000081101561049c57918b918b61046f8f95600181018955610d97565b909283549160031b92831b921b19161790558a825260038352868220600160ff198254161790558d61022e565b634e487b7160e01b8c5260418552828cfd5b634e487b7160e01b8a52601183528a8afd5b835162461bcd60e51b81526020818401526011818c01527005072696365206d757374206265203e203607c1b6044820152606490fd5b606490600d8a602086519362461bcd60e51b85528401528201526c24b73b30b634b2103a37b5b2b760991b6044820152fd5b825162461bcd60e51b8152602081890152600e818b01526d139bdd08185d5d1a1bdc9a5e995960921b6044820152606490fd5b8580fd5b5080fd5b5091346105dd5760203660031901126105dd5782359067ffffffffffffffff82116105dd57366023830112156105dd57506020928160246105a993369301359101610e41565b826105bc83519283815193849201610d2b565b6002908201908152819003830190205490516001600160a01b039091168152f35b80fd5b5090346101865782600319360112610186579080546105fe81610e87565b9261060b81519485610c68565b81845261061782610e87565b602085810196601f19939192840136893761063185610e87565b9361063e83519586610c68565b8585528061064b87610e87565b01825b81811061084e57505061066086610e9f565b9361066a87610e9f565b9661067481610e9f565b98845b828110610761575050508351998a9960a08b019060a08c525180915260c08b019190855b81811061074157505050898103828b01528651928382528282019083808660051b850101990195925b85841061070757508b8903878d01528b806107038d6106f58e6106e78f8f610e0e565b908582036060870152610e0e565b908382036080850152610e0e565b0390f35b91938080979b9c9d506107298b8486600196989a9c9d9e030188528d51610d4c565b9b0194019401918c9b9a9998979694919593956106c4565b82516001600160a01b031684528d9c50928401929184019160010161069b565b808b888e9f97999a9b9c9d9e8e8a8f8f8b8895929c9e9c86809461078482610d97565b9054600391821b1c6001600160a01b03168089526001808752988c90208c51999192916107b08b610c38565b81548b52810154968a0196875260028101549c8a019c8d52016107d290610c8a565b918360608a019384526107e491610ed1565b52516107f08284610ed1565b526107fa91610ed1565b50519161080691610ed1565b52519161081291610ed1565b52519161081e91610ed1565b525f19811461083b576001019b9a9998979695939b949294610677565b634e487b7160e01b845260118252602484fd5b6060878201870152850161064e565b50503461055f578160031936011261055f57905490516001600160a01b039091168152602090f35b5091346105dd5760203660031901126105dd57506108a560209235610d97565b905491519160018060a01b039160031b1c168152f35b5082903461055f578260031936011261055f5767ffffffffffffffff928135848111610182576108ee9036908401610de0565b93909460243590811161055f576109089036908501610de0565b90948084519788378601906002825260018060a01b039182886020809a81940301902054169682865193849283378101600281520301902054169380151580610a81575b15610a4d5781526001855281812093610988600384519661096c88610c38565b8054885260018101548989015260028101548689015201610c8a565b6060860152815260018552818120936109a8600384519661096c88610c38565b60608601528051151580610a43575b15610a0f575193670de0b6b3a7640000948581029581870414901517156109fc57519283156109e95750505191048152f35b634e487b7160e01b825260129052602490fd5b634e487b7160e01b825260118452602482fd5b825162461bcd60e51b8152808501879052600e60248201526d4d697373696e672070726963657360901b6044820152606490fd5b50845115156109b7565b825162461bcd60e51b8152808501879052600e60248201526d125b9d985b1a59081cde5b589bdb60921b6044820152606490fd5b5084151561094c565b503461018657826003193601126101865760209250549051908152f35b5091346105dd5760203660031901126105dd57823592548310156105dd57506108a5602092610d97565b5082346105dd5760203660031901126105dd5782906001600160a01b03610af6610be6565b16815260016020522091805191610b0c83610c38565b83548352600184015460208401908152610b33600360028701549685870197885201610c8a565b9160608501928352855115610b5b575090610703929151935194519051915194859485610d71565b606490602085519162461bcd60e51b8352820152600d60248201526c151bdad95b881b9bdd081cd95d609a1b6044820152fd5b50503461055f57602036600319011261055f579081906001600160a01b03610bb4610be6565b16815260016020522090610703825491600184015493610bdb600360028301549201610c8a565b915194859485610d71565b600435906001600160a01b0382168203610bfc57565b5f80fd5b90600182811c92168015610c2e575b6020831014610c1a57565b634e487b7160e01b5f52602260045260245ffd5b91607f1691610c0f565b6080810190811067ffffffffffffffff821117610c5457604052565b634e487b7160e01b5f52604160045260245ffd5b90601f8019910116810190811067ffffffffffffffff821117610c5457604052565b9060405191825f825492610c9d84610c00565b9081845260019485811690815f14610d085750600114610cc8575b5050610cc692500383610c68565b565b909391505f52602090815f20935f915b818310610cf0575050610cc693508201015f80610cb8565b85548884018501529485019487945091830191610cd8565b915050610cc694506020925060ff191682840152151560051b8201015f80610cb8565b5f5b838110610d3c5750505f910152565b8181015183820152602001610d2d565b90602091610d6581518092818552858086019101610d2b565b601f01601f1916010190565b9092608092610d9495948352602083015260408201528160608201520190610d4c565b90565b600454811015610dcc5760045f527f8a35acfbc15ff81a39ae7d344fd709f28e8600b4aa8c65c6b64bfe7fe36bd19b01905f90565b634e487b7160e01b5f52603260045260245ffd5b9181601f84011215610bfc5782359167ffffffffffffffff8311610bfc5760208381860195010111610bfc57565b9081518082526020808093019301915f5b828110610e2d575050505090565b835185529381019392810192600101610e1f565b92919267ffffffffffffffff8211610c545760405191610e6b601f8201601f191660200184610c68565b829481845281830111610bfc578281602093845f960137010152565b67ffffffffffffffff8111610c545760051b60200190565b90610ea982610e87565b610eb66040519182610c68565b8281528092610ec7601f1991610e87565b0190602036910137565b8051821015610dcc5760209160051b01019056fea26469706673582212200ccec99ca8fd918d62809869fc4ce1d5f8551cf28e4850ac6e9342d0dcbaec1764736f6c63430008140033","linkReferences":{}},"methodIdentifiers":{"allTokens(uint256)":"634282af","getAllTokenData()":"9ebeef59","getDerivedPriceBySymbols(string,string)":"861a2105","getPrice(address)":"41976e09","getPriceBySymbol(string)":"f86f3593","getTokenAt(uint256)":"89f73520","getTokenCount()":"78a89567","owner()":"8da5cb5b","setPrice(address,string,uint256)":"f817806f","symbolToToken(string)":"a5bc29c2","tokenPrices(address)":"204120bc"},"id":3}